{
  "contracts/ClubVote.sol": {
    "ClubVote": {
      "abi": [
        {
          "anonymous": false,
          "inputs": [
            {
              "indexed": false,
              "internalType": "address",
              "name": "clubAddress",
              "type": "address"
            },
            {
              "indexed": false,
              "internalType": "address",
              "name": "user",
              "type": "address"
            }
          ],
          "name": "MemberApproved",
          "type": "event"
        },
        {
          "anonymous": false,
          "inputs": [
            {
              "indexed": false,
              "internalType": "address",
              "name": "clubAddress",
              "type": "address"
            },
            {
              "indexed": false,
              "internalType": "address",
              "name": "user",
              "type": "address"
            }
          ],
          "name": "MemberJoined",
          "type": "event"
        },
        {
          "anonymous": false,
          "inputs": [
            {
              "indexed": false,
              "internalType": "address",
              "name": "userAddress",
              "type": "address"
            },
            {
              "indexed": false,
              "internalType": "string",
              "name": "name",
              "type": "string"
            },
            {
              "indexed": false,
              "internalType": "string",
              "name": "clubName",
              "type": "string"
            }
          ],
          "name": "UserRegistered",
          "type": "event"
        },
        {
          "anonymous": false,
          "inputs": [
            {
              "indexed": false,
              "internalType": "address",
              "name": "voter",
              "type": "address"
            },
            {
              "indexed": false,
              "internalType": "address",
              "name": "clubAddress",
              "type": "address"
            },
            {
              "indexed": false,
              "internalType": "uint256",
              "name": "voteId",
              "type": "uint256"
            },
            {
              "indexed": false,
              "internalType": "uint256",
              "name": "choice",
              "type": "uint256"
            }
          ],
          "name": "VoteCast",
          "type": "event"
        },
        {
          "anonymous": false,
          "inputs": [
            {
              "indexed": false,
              "internalType": "address",
              "name": "clubAddress",
              "type": "address"
            },
            {
              "indexed": false,
              "internalType": "uint256",
              "name": "voteId",
              "type": "uint256"
            }
          ],
          "name": "VoteClosed",
          "type": "event"
        },
        {
          "anonymous": false,
          "inputs": [
            {
              "indexed": false,
              "internalType": "address",
              "name": "clubAddress",
              "type": "address"
            },
            {
              "indexed": false,
              "internalType": "uint256",
              "name": "voteId",
              "type": "uint256"
            },
            {
              "indexed": false,
              "internalType": "string",
              "name": "voteName",
              "type": "string"
            }
          ],
          "name": "VoteCreated",
          "type": "event"
        },
        {
          "inputs": [
            {
              "internalType": "address",
              "name": "userAddress",
              "type": "address"
            }
          ],
          "name": "approveRequest",
          "outputs": [],
          "stateMutability": "nonpayable",
          "type": "function"
        },
        {
          "inputs": [
            {
              "internalType": "uint256",
              "name": "voteId",
              "type": "uint256"
            }
          ],
          "name": "closeVote",
          "outputs": [],
          "stateMutability": "nonpayable",
          "type": "function"
        },
        {
          "inputs": [
            {
              "internalType": "address",
              "name": "",
              "type": "address"
            }
          ],
          "name": "clubs",
          "outputs": [
            {
              "internalType": "string",
              "name": "name",
              "type": "string"
            },
            {
              "internalType": "uint256",
              "name": "voteCount",
              "type": "uint256"
            },
            {
              "internalType": "uint256",
              "name": "memberCount",
              "type": "uint256"
            },
            {
              "internalType": "uint256",
              "name": "approvedMemberCount",
              "type": "uint256"
            }
          ],
          "stateMutability": "view",
          "type": "function"
        },
        {
          "inputs": [
            {
              "internalType": "string",
              "name": "_name",
              "type": "string"
            },
            {
              "internalType": "string[]",
              "name": "_options",
              "type": "string[]"
            }
          ],
          "name": "createVote",
          "outputs": [],
          "stateMutability": "nonpayable",
          "type": "function"
        },
        {
          "inputs": [],
          "name": "getMembers",
          "outputs": [
            {
              "internalType": "string[]",
              "name": "",
              "type": "string[]"
            },
            {
              "internalType": "address[]",
              "name": "",
              "type": "address[]"
            }
          ],
          "stateMutability": "view",
          "type": "function"
        },
        {
          "inputs": [
            {
              "internalType": "uint256",
              "name": "voteID",
              "type": "uint256"
            }
          ],
          "name": "getOptions",
          "outputs": [
            {
              "internalType": "string[]",
              "name": "",
              "type": "string[]"
            },
            {
              "internalType": "uint256[]",
              "name": "",
              "type": "uint256[]"
            }
          ],
          "stateMutability": "view",
          "type": "function"
        },
        {
          "inputs": [],
          "name": "getUserInfo",
          "outputs": [
            {
              "internalType": "string",
              "name": "",
              "type": "string"
            },
            {
              "internalType": "string",
              "name": "",
              "type": "string"
            }
          ],
          "stateMutability": "view",
          "type": "function"
        },
        {
          "inputs": [
            {
              "internalType": "address",
              "name": "_addr",
              "type": "address"
            }
          ],
          "name": "getUsername",
          "outputs": [
            {
              "internalType": "string",
              "name": "",
              "type": "string"
            }
          ],
          "stateMutability": "view",
          "type": "function"
        },
        {
          "inputs": [
            {
              "internalType": "address",
              "name": "addr",
              "type": "address"
            }
          ],
          "name": "getVotes",
          "outputs": [
            {
              "internalType": "string[]",
              "name": "",
              "type": "string[]"
            },
            {
              "internalType": "uint256[]",
              "name": "",
              "type": "uint256[]"
            },
            {
              "internalType": "enum ClubVote.voteStatus[]",
              "name": "",
              "type": "uint8[]"
            }
          ],
          "stateMutability": "view",
          "type": "function"
        },
        {
          "inputs": [
            {
              "internalType": "address",
              "name": "clubAddress",
              "type": "address"
            }
          ],
          "name": "joinClub",
          "outputs": [],
          "stateMutability": "nonpayable",
          "type": "function"
        },
        {
          "inputs": [
            {
              "internalType": "string",
              "name": "userName",
              "type": "string"
            },
            {
              "internalType": "string",
              "name": "clubName",
              "type": "string"
            }
          ],
          "name": "newUser",
          "outputs": [],
          "stateMutability": "nonpayable",
          "type": "function"
        },
        {
          "inputs": [
            {
              "internalType": "address",
              "name": "userAddress",
              "type": "address"
            }
          ],
          "name": "removeMember",
          "outputs": [],
          "stateMutability": "nonpayable",
          "type": "function"
        },
        {
          "inputs": [
            {
              "internalType": "address",
              "name": "",
              "type": "address"
            }
          ],
          "name": "users",
          "outputs": [
            {
              "internalType": "string",
              "name": "name",
              "type": "string"
            },
            {
              "internalType": "address",
              "name": "clubAddress",
              "type": "address"
            }
          ],
          "stateMutability": "view",
          "type": "function"
        },
        {
          "inputs": [
            {
              "internalType": "address",
              "name": "clubAddress",
              "type": "address"
            },
            {
              "internalType": "uint256",
              "name": "voteId",
              "type": "uint256"
            },
            {
              "internalType": "uint256",
              "name": "choice",
              "type": "uint256"
            }
          ],
          "name": "vote",
          "outputs": [
            {
              "internalType": "bool",
              "name": "",
              "type": "bool"
            }
          ],
          "stateMutability": "nonpayable",
          "type": "function"
        }
      ],
      "evm": {
        "bytecode": {
          "linkReferences": {},
          "object": "608060405234801561001057600080fd5b50612ed0806100206000396000f3fe608060405234801561001057600080fd5b50600436106100ea5760003560e01c80636e48a0351161008c5780639ab24eb0116100665780639ab24eb01461024a5780639eab52531461027c578063a87430ba1461029b578063ce43c032146102cc576100ea565b80636e48a035146101e15780638915b3fb146101fd57806390a3a11f1461022e576100ea565b80631f34563c116100c85780631f34563c146101435780632a4a1b731461015f57806348bd49461461018f5780635d8d1585146101c2576100ea565b8063061dff9a146100ef5780630b1ca49a1461010b5780631b49d82b14610127575b600080fd5b61010960048036038101906101049190611c64565b6102fc565b005b61012560048036038101906101209190611c64565b61047f565b005b610141600480360381019061013c9190611c64565b6105c8565b005b61015d60048036038101906101589190611dd7565b6107e3565b005b61017960048036038101906101749190611e85565b610a19565b6040516101869190611ef3565b60405180910390f35b6101a960048036038101906101a49190611c64565b610ce0565b6040516101b99493929190611f9c565b60405180910390f35b6101ca610d98565b6040516101d8929190611fe8565b60405180910390f35b6101fb60048036038101906101f6919061201f565b610fab565b005b6102176004803603810190610212919061201f565b6110b2565b604051610225929190612216565b60405180910390f35b61024860048036038101906102439190612333565b61131b565b005b610264600480360381019061025f9190611c64565b611497565b604051610273939291906124d1565b60405180910390f35b610284611764565b6040516102929291906125db565b60405180910390f35b6102b560048036038101906102b09190611c64565b611a53565b6040516102c3929190612621565b60405180910390f35b6102e660048036038101906102e19190611c64565b611b1f565b6040516102f39190612651565b60405180910390f35b6000600160003373ffffffffffffffffffffffffffffffffffffffff1673ffffffffffffffffffffffffffffffffffffffff16815260200190815260200160002090508060020160008373ffffffffffffffffffffffffffffffffffffffff1673ffffffffffffffffffffffffffffffffffffffff16815260200190815260200160002060009054906101000a900460ff16156103ce576040517f08c379a00000000000000000000000000000000000000000000000000000000081526004016103c5906126bf565b60405180910390fd5b60018160020160008473ffffffffffffffffffffffffffffffffffffffff1673ffffffffffffffffffffffffffffffffffffffff16815260200190815260200160002060006101000a81548160ff02191690831515021790555080600601600081548092919061043d9061270e565b91905055507f18376ea99fa0b809ec0f8f2185ba30fd3fa1aa765aa001e14cffb75624f788af3383604051610473929190612756565b60405180910390a15050565b6000600160003373ffffffffffffffffffffffffffffffffffffffff1673ffffffffffffffffffffffffffffffffffffffff16815260200190815260200160002090508060020160008373ffffffffffffffffffffffffffffffffffffffff1673ffffffffffffffffffffffffffffffffffffffff16815260200190815260200160002060009054906101000a900460ff16610550576040517f08c379a0000000000000000000000000000000000000000000000000000000008152600401610547906127cb565b60405180910390fd5b60008160020160008473ffffffffffffffffffffffffffffffffffffffff1673ffffffffffffffffffffffffffffffffffffffff16815260200190815260200160002060006101000a81548160ff0219169083151502179055508060060160008154809291906105bf906127eb565b91905055505050565b8073ffffffffffffffffffffffffffffffffffffffff166000803373ffffffffffffffffffffffffffffffffffffffff1673ffffffffffffffffffffffffffffffffffffffff16815260200190815260200160002060010160009054906101000a900473ffffffffffffffffffffffffffffffffffffffff1673ffffffffffffffffffffffffffffffffffffffff1603610697576040517f08c379a000000000000000000000000000000000000000000000000000000000815260040161068e90612860565b60405180910390fd5b6000600160008373ffffffffffffffffffffffffffffffffffffffff1673ffffffffffffffffffffffffffffffffffffffff1681526020019081526020016000209050338160010160008360050154815260200190815260200160002060006101000a81548173ffffffffffffffffffffffffffffffffffffffff021916908373ffffffffffffffffffffffffffffffffffffffff1602179055508060050160008154809291906107479061270e565b919050555060008160020160003373ffffffffffffffffffffffffffffffffffffffff1673ffffffffffffffffffffffffffffffffffffffff16815260200190815260200160002060006101000a81548160ff0219169083151502179055507fb168e0b33ed126dec210fb14910d562a068905fb3431f3abe71b964e9e1b119a82336040516107d7929190612756565b60405180910390a15050565b80600160003373ffffffffffffffffffffffffffffffffffffffff1673ffffffffffffffffffffffffffffffffffffffff16815260200190815260200160002060000190816108329190612a8c565b506000600160003373ffffffffffffffffffffffffffffffffffffffff1673ffffffffffffffffffffffffffffffffffffffff168152602001908152602001600020600401819055506000600160003373ffffffffffffffffffffffffffffffffffffffff1673ffffffffffffffffffffffffffffffffffffffff168152602001908152602001600020600501819055506000600160003373ffffffffffffffffffffffffffffffffffffffff1673ffffffffffffffffffffffffffffffffffffffff16815260200190815260200160002060060181905550816000803373ffffffffffffffffffffffffffffffffffffffff1673ffffffffffffffffffffffffffffffffffffffff16815260200190815260200160002060000190816109599190612a8c565b50336000803373ffffffffffffffffffffffffffffffffffffffff1673ffffffffffffffffffffffffffffffffffffffff16815260200190815260200160002060010160006101000a81548173ffffffffffffffffffffffffffffffffffffffff021916908373ffffffffffffffffffffffffffffffffffffffff1602179055507f92822564bab8864c3a47b34e8d23fbce5c46234eb5da261f94087b995ac0f33b338383604051610a0d93929190612b5e565b60405180910390a15050565b600080600160008673ffffffffffffffffffffffffffffffffffffffff1673ffffffffffffffffffffffffffffffffffffffff16815260200190815260200160002090508060020160003373ffffffffffffffffffffffffffffffffffffffff1673ffffffffffffffffffffffffffffffffffffffff16815260200190815260200160002060009054906101000a900460ff16610aeb576040517f08c379a0000000000000000000000000000000000000000000000000000000008152600401610ae290612bef565b60405180910390fd5b6000816003016000868152602001908152602001600020905060006001811115610b1857610b176123d7565b5b8160060160009054906101000a900460ff166001811115610b3c57610b3b6123d7565b5b14610b7c576040517f08c379a0000000000000000000000000000000000000000000000000000000008152600401610b7390612c5b565b60405180910390fd5b60008160050160003373ffffffffffffffffffffffffffffffffffffffff1673ffffffffffffffffffffffffffffffffffffffff16815260200190815260200160002060009054906101000a900460ff1690508015610c10576040517f08c379a0000000000000000000000000000000000000000000000000000000008152600401610c0790612cc7565b60405180910390fd5b8160030160008681526020019081526020016000206000815480929190610c369061270e565b919050555060018260050160003373ffffffffffffffffffffffffffffffffffffffff1673ffffffffffffffffffffffffffffffffffffffff16815260200190815260200160002060006101000a81548160ff0219169083151502179055507f1ed37da89ec73264fe3ff50d20d92f19845180819831a4f5dbfb4bf282f0fa5733888888604051610cca9493929190612ce7565b60405180910390a1600193505050509392505050565b6001602052806000526040600020600091509050806000018054610d03906128af565b80601f0160208091040260200160405190810160405280929190818152602001828054610d2f906128af565b8015610d7c5780601f10610d5157610100808354040283529160200191610d7c565b820191906000526020600020905b815481529060010190602001808311610d5f57829003601f168201915b5050505050908060040154908060050154908060060154905084565b60608060008060003373ffffffffffffffffffffffffffffffffffffffff1673ffffffffffffffffffffffffffffffffffffffff1681526020019081526020016000206000018054610de9906128af565b80601f0160208091040260200160405190810160405280929190818152602001828054610e15906128af565b8015610e625780601f10610e3757610100808354040283529160200191610e62565b820191906000526020600020905b815481529060010190602001808311610e4557829003601f168201915b5050505050905060008060003373ffffffffffffffffffffffffffffffffffffffff1673ffffffffffffffffffffffffffffffffffffffff16815260200190815260200160002060010160009054906101000a900473ffffffffffffffffffffffffffffffffffffffff1690506000600160008373ffffffffffffffffffffffffffffffffffffffff1673ffffffffffffffffffffffffffffffffffffffff1681526020019081526020016000206000018054610f1e906128af565b80601f0160208091040260200160405190810160405280929190818152602001828054610f4a906128af565b8015610f975780601f10610f6c57610100808354040283529160200191610f97565b820191906000526020600020905b815481529060010190602001808311610f7a57829003601f168201915b505050505090508281945094505050509091565b6000600160003373ffffffffffffffffffffffffffffffffffffffff1673ffffffffffffffffffffffffffffffffffffffff168152602001908152602001600020905080600401548210611034576040517f08c379a000000000000000000000000000000000000000000000000000000000815260040161102b90612d78565b60405180910390fd5b600181600301600084815260200190815260200160002060060160006101000a81548160ff021916908360018111156110705761106f6123d7565b5b02179055507ff3f834a80d87be6dcb993a5939836ccd60d9ae9bdd02be4a3ddd50f89db59d3533836040516110a6929190612d98565b60405180910390a15050565b6060806000600160003373ffffffffffffffffffffffffffffffffffffffff1673ffffffffffffffffffffffffffffffffffffffff16815260200190815260200160002090508060040154841061113e576040517f08c379a000000000000000000000000000000000000000000000000000000000815260040161113590612e0d565b60405180910390fd5b600081600301600086815260200190815260200160002090506000816001015467ffffffffffffffff81111561117757611176611cac565b5b6040519080825280602002602001820160405280156111aa57816020015b60608152602001906001900390816111955790505b5090506000826001015467ffffffffffffffff8111156111cd576111cc611cac565b5b6040519080825280602002602001820160405280156111fb5781602001602082028036833780820191505090505b50905060005b836001015481101561130b57836002016000828152602001908152602001600020805461122d906128af565b80601f0160208091040260200160405190810160405280929190818152602001828054611259906128af565b80156112a65780601f1061127b576101008083540402835291602001916112a6565b820191906000526020600020905b81548152906001019060200180831161128957829003601f168201915b50505050508382815181106112be576112bd612e2d565b5b6020026020010181905250836003016000828152602001908152602001600020548282815181106112f2576112f1612e2d565b5b6020026020010181815250508080600101915050611201565b5081819550955050505050915091565b6000600160003373ffffffffffffffffffffffffffffffffffffffff1673ffffffffffffffffffffffffffffffffffffffff168152602001908152602001600020905060008160040154905060008260030160008381526020019081526020016000209050848160000190816113919190612a8c565b5060008160060160006101000a81548160ff021916908360018111156113ba576113b96123d7565b5b02179055508351816001018190555060005b845181101561143a578481815181106113e8576113e7612e2d565b5b602002602001015182600201600083815260200190815260200160002090816114119190612a8c565b5060008260030160008381526020019081526020016000208190555080806001019150506113cc565b508260040160008154809291906114509061270e565b91905055507fcf25a6c234cc59090a48bec904c01b25e267d66e3c1893f65c4b15ad21fde87633838760405161148893929190612e5c565b60405180910390a15050505050565b60608060606000600160008673ffffffffffffffffffffffffffffffffffffffff1673ffffffffffffffffffffffffffffffffffffffff168152602001908152602001600020905060008160040154905060008167ffffffffffffffff81111561150457611503611cac565b5b60405190808252806020026020018201604052801561153757816020015b60608152602001906001900390816115225790505b50905060008267ffffffffffffffff81111561155657611555611cac565b5b6040519080825280602002602001820160405280156115845781602001602082028036833780820191505090505b50905060008367ffffffffffffffff8111156115a3576115a2611cac565b5b6040519080825280602002602001820160405280156115d15781602001602082028036833780820191505090505b50905060005b8481101561174e578560030160008281526020019081526020016000206000018054611602906128af565b80601f016020809104026020016040519081016040528092919081815260200182805461162e906128af565b801561167b5780601f106116505761010080835404028352916020019161167b565b820191906000526020600020905b81548152906001019060200180831161165e57829003601f168201915b505050505084828151811061169357611692612e2d565b5b6020026020010181905250856003016000828152602001908152602001600020600101548382815181106116ca576116c9612e2d565b5b60200260200101818152505085600301600082815260200190815260200160002060060160009054906101000a900460ff1682828151811061170f5761170e612e2d565b5b60200260200101906001811115611729576117286123d7565b5b9081600181111561173d5761173c6123d7565b5b8152505080806001019150506115d7565b5082828297509750975050505050509193909250565b6060806000600160003373ffffffffffffffffffffffffffffffffffffffff1673ffffffffffffffffffffffffffffffffffffffff168152602001908152602001600020905060008160060154905060008167ffffffffffffffff8111156117cf576117ce611cac565b5b60405190808252806020026020018201604052801561180257816020015b60608152602001906001900390816117ed5790505b50905060008267ffffffffffffffff81111561182157611820611cac565b5b60405190808252806020026020018201604052801561184f5781602001602082028036833780820191505090505b5090506000805b8560050154811015611a4357600086600101600083815260200190815260200160002060009054906101000a900473ffffffffffffffffffffffffffffffffffffffff1690508660020160008273ffffffffffffffffffffffffffffffffffffffff1673ffffffffffffffffffffffffffffffffffffffff16815260200190815260200160002060009054906101000a900460ff1615611a35576000808273ffffffffffffffffffffffffffffffffffffffff1673ffffffffffffffffffffffffffffffffffffffff168152602001908152602001600020600001805461193c906128af565b80601f0160208091040260200160405190810160405280929190818152602001828054611968906128af565b80156119b55780601f1061198a576101008083540402835291602001916119b5565b820191906000526020600020905b81548152906001019060200180831161199857829003601f168201915b50505050508584815181106119cd576119cc612e2d565b5b6020026020010181905250808484815181106119ec576119eb612e2d565b5b602002602001019073ffffffffffffffffffffffffffffffffffffffff16908173ffffffffffffffffffffffffffffffffffffffff16815250508280611a319061270e565b9350505b508080600101915050611856565b5082829650965050505050509091565b6000602052806000526040600020600091509050806000018054611a76906128af565b80601f0160208091040260200160405190810160405280929190818152602001828054611aa2906128af565b8015611aef5780601f10611ac457610100808354040283529160200191611aef565b820191906000526020600020905b815481529060010190602001808311611ad257829003601f168201915b5050505050908060010160009054906101000a900473ffffffffffffffffffffffffffffffffffffffff16905082565b60606000808373ffffffffffffffffffffffffffffffffffffffff1673ffffffffffffffffffffffffffffffffffffffff1681526020019081526020016000206000018054611b6d906128af565b80601f0160208091040260200160405190810160405280929190818152602001828054611b99906128af565b8015611be65780601f10611bbb57610100808354040283529160200191611be6565b820191906000526020600020905b815481529060010190602001808311611bc957829003601f168201915b50505050509050919050565b6000604051905090565b600080fd5b600080fd5b600073ffffffffffffffffffffffffffffffffffffffff82169050919050565b6000611c3182611c06565b9050919050565b611c4181611c26565b8114611c4c57600080fd5b50565b600081359050611c5e81611c38565b92915050565b600060208284031215611c7a57611c79611bfc565b5b6000611c8884828501611c4f565b91505092915050565b600080fd5b600080fd5b6000601f19601f8301169050919050565b7f4e487b7100000000000000000000000000000000000000000000000000000000600052604160045260246000fd5b611ce482611c9b565b810181811067ffffffffffffffff82111715611d0357611d02611cac565b5b80604052505050565b6000611d16611bf2565b9050611d228282611cdb565b919050565b600067ffffffffffffffff821115611d4257611d41611cac565b5b611d4b82611c9b565b9050602081019050919050565b82818337600083830152505050565b6000611d7a611d7584611d27565b611d0c565b905082815260208101848484011115611d9657611d95611c96565b5b611da1848285611d58565b509392505050565b600082601f830112611dbe57611dbd611c91565b5b8135611dce848260208601611d67565b91505092915050565b60008060408385031215611dee57611ded611bfc565b5b600083013567ffffffffffffffff811115611e0c57611e0b611c01565b5b611e1885828601611da9565b925050602083013567ffffffffffffffff811115611e3957611e38611c01565b5b611e4585828601611da9565b9150509250929050565b6000819050919050565b611e6281611e4f565b8114611e6d57600080fd5b50565b600081359050611e7f81611e59565b92915050565b600080600060608486031215611e9e57611e9d611bfc565b5b6000611eac86828701611c4f565b9350506020611ebd86828701611e70565b9250506040611ece86828701611e70565b9150509250925092565b60008115159050919050565b611eed81611ed8565b82525050565b6000602082019050611f086000830184611ee4565b92915050565b600081519050919050565b600082825260208201905092915050565b60005b83811015611f48578082015181840152602081019050611f2d565b60008484015250505050565b6000611f5f82611f0e565b611f698185611f19565b9350611f79818560208601611f2a565b611f8281611c9b565b840191505092915050565b611f9681611e4f565b82525050565b60006080820190508181036000830152611fb68187611f54565b9050611fc56020830186611f8d565b611fd26040830185611f8d565b611fdf6060830184611f8d565b95945050505050565b600060408201905081810360008301526120028185611f54565b905081810360208301526120168184611f54565b90509392505050565b60006020828403121561203557612034611bfc565b5b600061204384828501611e70565b91505092915050565b600081519050919050565b600082825260208201905092915050565b6000819050602082019050919050565b600082825260208201905092915050565b600061209482611f0e565b61209e8185612078565b93506120ae818560208601611f2a565b6120b781611c9b565b840191505092915050565b60006120ce8383612089565b905092915050565b6000602082019050919050565b60006120ee8261204c565b6120f88185612057565b93508360208202850161210a85612068565b8060005b85811015612146578484038952815161212785826120c2565b9450612132836120d6565b925060208a0199505060018101905061210e565b50829750879550505050505092915050565b600081519050919050565b600082825260208201905092915050565b6000819050602082019050919050565b61218d81611e4f565b82525050565b600061219f8383612184565b60208301905092915050565b6000602082019050919050565b60006121c382612158565b6121cd8185612163565b93506121d883612174565b8060005b838110156122095781516121f08882612193565b97506121fb836121ab565b9250506001810190506121dc565b5085935050505092915050565b6000604082019050818103600083015261223081856120e3565b9050818103602083015261224481846121b8565b90509392505050565b600067ffffffffffffffff82111561226857612267611cac565b5b602082029050602081019050919050565b600080fd5b600061229161228c8461224d565b611d0c565b905080838252602082019050602084028301858111156122b4576122b3612279565b5b835b818110156122fb57803567ffffffffffffffff8111156122d9576122d8611c91565b5b8086016122e68982611da9565b855260208501945050506020810190506122b6565b5050509392505050565b600082601f83011261231a57612319611c91565b5b813561232a84826020860161227e565b91505092915050565b6000806040838503121561234a57612349611bfc565b5b600083013567ffffffffffffffff81111561236857612367611c01565b5b61237485828601611da9565b925050602083013567ffffffffffffffff81111561239557612394611c01565b5b6123a185828601612305565b9150509250929050565b600081519050919050565b600082825260208201905092915050565b6000819050602082019050919050565b7f4e487b7100000000000000000000000000000000000000000000000000000000600052602160045260246000fd5b60028110612417576124166123d7565b5b50565b600081905061242882612406565b919050565b60006124388261241a565b9050919050565b6124488161242d565b82525050565b600061245a838361243f565b60208301905092915050565b6000602082019050919050565b600061247e826123ab565b61248881856123b6565b9350612493836123c7565b8060005b838110156124c45781516124ab888261244e565b97506124b683612466565b925050600181019050612497565b5085935050505092915050565b600060608201905081810360008301526124eb81866120e3565b905081810360208301526124ff81856121b8565b905081810360408301526125138184612473565b9050949350505050565b600081519050919050565b600082825260208201905092915050565b6000819050602082019050919050565b61255281611c26565b82525050565b60006125648383612549565b60208301905092915050565b6000602082019050919050565b60006125888261251d565b6125928185612528565b935061259d83612539565b8060005b838110156125ce5781516125b58882612558565b97506125c083612570565b9250506001810190506125a1565b5085935050505092915050565b600060408201905081810360008301526125f581856120e3565b90508181036020830152612609818461257d565b90509392505050565b61261b81611c26565b82525050565b6000604082019050818103600083015261263b8185611f54565b905061264a6020830184612612565b9392505050565b6000602082019050818103600083015261266b8184611f54565b905092915050565b7f5573657220616c726561647920617070726f7665640000000000000000000000600082015250565b60006126a9601583611f19565b91506126b482612673565b602082019050919050565b600060208201905081810360008301526126d88161269c565b9050919050565b7f4e487b7100000000000000000000000000000000000000000000000000000000600052601160045260246000fd5b600061271982611e4f565b91507fffffffffffffffffffffffffffffffffffffffffffffffffffffffffffffffff820361274b5761274a6126df565b5b600182019050919050565b600060408201905061276b6000830185612612565b6127786020830184612612565b9392505050565b7f55736572206e6f742061206d656d626572000000000000000000000000000000600082015250565b60006127b5601183611f19565b91506127c08261277f565b602082019050919050565b600060208201905081810360008301526127e4816127a8565b9050919050565b60006127f682611e4f565b915060008203612809576128086126df565b5b600182039050919050565b7f416c72656164792061206d656d62657200000000000000000000000000000000600082015250565b600061284a601083611f19565b915061285582612814565b602082019050919050565b600060208201905081810360008301526128798161283d565b9050919050565b7f4e487b7100000000000000000000000000000000000000000000000000000000600052602260045260246000fd5b600060028204905060018216806128c757607f821691505b6020821081036128da576128d9612880565b5b50919050565b60008190508160005260206000209050919050565b60006020601f8301049050919050565b600082821b905092915050565b6000600883026129427fffffffffffffffffffffffffffffffffffffffffffffffffffffffffffffffff82612905565b61294c8683612905565b95508019841693508086168417925050509392505050565b6000819050919050565b600061298961298461297f84611e4f565b612964565b611e4f565b9050919050565b6000819050919050565b6129a38361296e565b6129b76129af82612990565b848454612912565b825550505050565b600090565b6129cc6129bf565b6129d781848461299a565b505050565b5b818110156129fb576129f06000826129c4565b6001810190506129dd565b5050565b601f821115612a4057612a11816128e0565b612a1a846128f5565b81016020851015612a29578190505b612a3d612a35856128f5565b8301826129dc565b50505b505050565b600082821c905092915050565b6000612a6360001984600802612a45565b1980831691505092915050565b6000612a7c8383612a52565b9150826002028217905092915050565b612a9582611f0e565b67ffffffffffffffff811115612aae57612aad611cac565b5b612ab882546128af565b612ac38282856129ff565b600060209050601f831160018114612af65760008415612ae4578287015190505b612aee8582612a70565b865550612b56565b601f198416612b04866128e0565b60005b82811015612b2c57848901518255600182019150602085019450602081019050612b07565b86831015612b495784890151612b45601f891682612a52565b8355505b6001600288020188555050505b505050505050565b6000606082019050612b736000830186612612565b8181036020830152612b858185611f54565b90508181036040830152612b998184611f54565b9050949350505050565b7f4e6f7420616e20617070726f766564206d656d62657200000000000000000000600082015250565b6000612bd9601683611f19565b9150612be482612ba3565b602082019050919050565b60006020820190508181036000830152612c0881612bcc565b9050919050565b7f566f7465206973206e6f74206f6e676f696e6700000000000000000000000000600082015250565b6000612c45601383611f19565b9150612c5082612c0f565b602082019050919050565b60006020820190508181036000830152612c7481612c38565b9050919050565b7f557365722068617320616c726561647920766f74656400000000000000000000600082015250565b6000612cb1601683611f19565b9150612cbc82612c7b565b602082019050919050565b60006020820190508181036000830152612ce081612ca4565b9050919050565b6000608082019050612cfc6000830187612612565b612d096020830186612612565b612d166040830185611f8d565b612d236060830184611f8d565b95945050505050565b7f496e76616c696420766f74654964000000000000000000000000000000000000600082015250565b6000612d62600e83611f19565b9150612d6d82612d2c565b602082019050919050565b60006020820190508181036000830152612d9181612d55565b9050919050565b6000604082019050612dad6000830185612612565b612dba6020830184611f8d565b9392505050565b7f496e76616c696420766f74654944000000000000000000000000000000000000600082015250565b6000612df7600e83611f19565b9150612e0282612dc1565b602082019050919050565b60006020820190508181036000830152612e2681612dea565b9050919050565b7f4e487b7100000000000000000000000000000000000000000000000000000000600052603260045260246000fd5b6000606082019050612e716000830186612612565b612e7e6020830185611f8d565b8181036040830152612e908184611f54565b905094935050505056fea2646970667358221220234fc0d3e99c4d9072f63956f93af8ebdeb062173c7eb122e70c4251f96ee97764736f6c63430008180033",
          "opcodes": "PUSH1 0x80 PUSH1 0x40 MSTORE CALLVALUE DUP1 ISZERO PUSH2 0x10 JUMPI PUSH1 0x0 DUP1 REVERT JUMPDEST POP PUSH2 0x2ED0 DUP1 PUSH2 0x20 PUSH1 0x0 CODECOPY PUSH1 0x0 RETURN INVALID PUSH1 0x80 PUSH1 0x40 MSTORE CALLVALUE DUP1 ISZERO PUSH2 0x10 JUMPI PUSH1 0x0 DUP1 REVERT JUMPDEST POP PUSH1 0x4 CALLDATASIZE LT PUSH2 0xEA JUMPI PUSH1 0x0 CALLDATALOAD PUSH1 0xE0 SHR DUP1 PUSH4 0x6E48A035 GT PUSH2 0x8C JUMPI DUP1 PUSH4 0x9AB24EB0 GT PUSH2 0x66 JUMPI DUP1 PUSH4 0x9AB24EB0 EQ PUSH2 0x24A JUMPI DUP1 PUSH4 0x9EAB5253 EQ PUSH2 0x27C JUMPI DUP1 PUSH4 0xA87430BA EQ PUSH2 0x29B JUMPI DUP1 PUSH4 0xCE43C032 EQ PUSH2 0x2CC JUMPI PUSH2 0xEA JUMP JUMPDEST DUP1 PUSH4 0x6E48A035 EQ PUSH2 0x1E1 JUMPI DUP1 PUSH4 0x8915B3FB EQ PUSH2 0x1FD JUMPI DUP1 PUSH4 0x90A3A11F EQ PUSH2 0x22E JUMPI PUSH2 0xEA JUMP JUMPDEST DUP1 PUSH4 0x1F34563C GT PUSH2 0xC8 JUMPI DUP1 PUSH4 0x1F34563C EQ PUSH2 0x143 JUMPI DUP1 PUSH4 0x2A4A1B73 EQ PUSH2 0x15F JUMPI DUP1 PUSH4 0x48BD4946 EQ PUSH2 0x18F JUMPI DUP1 PUSH4 0x5D8D1585 EQ PUSH2 0x1C2 JUMPI PUSH2 0xEA JUMP JUMPDEST DUP1 PUSH4 0x61DFF9A EQ PUSH2 0xEF JUMPI DUP1 PUSH4 0xB1CA49A EQ PUSH2 0x10B JUMPI DUP1 PUSH4 0x1B49D82B EQ PUSH2 0x127 JUMPI JUMPDEST PUSH1 0x0 DUP1 REVERT JUMPDEST PUSH2 0x109 PUSH1 0x4 DUP1 CALLDATASIZE SUB DUP2 ADD SWAP1 PUSH2 0x104 SWAP2 SWAP1 PUSH2 0x1C64 JUMP JUMPDEST PUSH2 0x2FC JUMP JUMPDEST STOP JUMPDEST PUSH2 0x125 PUSH1 0x4 DUP1 CALLDATASIZE SUB DUP2 ADD SWAP1 PUSH2 0x120 SWAP2 SWAP1 PUSH2 0x1C64 JUMP JUMPDEST PUSH2 0x47F JUMP JUMPDEST STOP JUMPDEST PUSH2 0x141 PUSH1 0x4 DUP1 CALLDATASIZE SUB DUP2 ADD SWAP1 PUSH2 0x13C SWAP2 SWAP1 PUSH2 0x1C64 JUMP JUMPDEST PUSH2 0x5C8 JUMP JUMPDEST STOP JUMPDEST PUSH2 0x15D PUSH1 0x4 DUP1 CALLDATASIZE SUB DUP2 ADD SWAP1 PUSH2 0x158 SWAP2 SWAP1 PUSH2 0x1DD7 JUMP JUMPDEST PUSH2 0x7E3 JUMP JUMPDEST STOP JUMPDEST PUSH2 0x179 PUSH1 0x4 DUP1 CALLDATASIZE SUB DUP2 ADD SWAP1 PUSH2 0x174 SWAP2 SWAP1 PUSH2 0x1E85 JUMP JUMPDEST PUSH2 0xA19 JUMP JUMPDEST PUSH1 0x40 MLOAD PUSH2 0x186 SWAP2 SWAP1 PUSH2 0x1EF3 JUMP JUMPDEST PUSH1 0x40 MLOAD DUP1 SWAP2 SUB SWAP1 RETURN JUMPDEST PUSH2 0x1A9 PUSH1 0x4 DUP1 CALLDATASIZE SUB DUP2 ADD SWAP1 PUSH2 0x1A4 SWAP2 SWAP1 PUSH2 0x1C64 JUMP JUMPDEST PUSH2 0xCE0 JUMP JUMPDEST PUSH1 0x40 MLOAD PUSH2 0x1B9 SWAP5 SWAP4 SWAP3 SWAP2 SWAP1 PUSH2 0x1F9C JUMP JUMPDEST PUSH1 0x40 MLOAD DUP1 SWAP2 SUB SWAP1 RETURN JUMPDEST PUSH2 0x1CA PUSH2 0xD98 JUMP JUMPDEST PUSH1 0x40 MLOAD PUSH2 0x1D8 SWAP3 SWAP2 SWAP1 PUSH2 0x1FE8 JUMP JUMPDEST PUSH1 0x40 MLOAD DUP1 SWAP2 SUB SWAP1 RETURN JUMPDEST PUSH2 0x1FB PUSH1 0x4 DUP1 CALLDATASIZE SUB DUP2 ADD SWAP1 PUSH2 0x1F6 SWAP2 SWAP1 PUSH2 0x201F JUMP JUMPDEST PUSH2 0xFAB JUMP JUMPDEST STOP JUMPDEST PUSH2 0x217 PUSH1 0x4 DUP1 CALLDATASIZE SUB DUP2 ADD SWAP1 PUSH2 0x212 SWAP2 SWAP1 PUSH2 0x201F JUMP JUMPDEST PUSH2 0x10B2 JUMP JUMPDEST PUSH1 0x40 MLOAD PUSH2 0x225 SWAP3 SWAP2 SWAP1 PUSH2 0x2216 JUMP JUMPDEST PUSH1 0x40 MLOAD DUP1 SWAP2 SUB SWAP1 RETURN JUMPDEST PUSH2 0x248 PUSH1 0x4 DUP1 CALLDATASIZE SUB DUP2 ADD SWAP1 PUSH2 0x243 SWAP2 SWAP1 PUSH2 0x2333 JUMP JUMPDEST PUSH2 0x131B JUMP JUMPDEST STOP JUMPDEST PUSH2 0x264 PUSH1 0x4 DUP1 CALLDATASIZE SUB DUP2 ADD SWAP1 PUSH2 0x25F SWAP2 SWAP1 PUSH2 0x1C64 JUMP JUMPDEST PUSH2 0x1497 JUMP JUMPDEST PUSH1 0x40 MLOAD PUSH2 0x273 SWAP4 SWAP3 SWAP2 SWAP1 PUSH2 0x24D1 JUMP JUMPDEST PUSH1 0x40 MLOAD DUP1 SWAP2 SUB SWAP1 RETURN JUMPDEST PUSH2 0x284 PUSH2 0x1764 JUMP JUMPDEST PUSH1 0x40 MLOAD PUSH2 0x292 SWAP3 SWAP2 SWAP1 PUSH2 0x25DB JUMP JUMPDEST PUSH1 0x40 MLOAD DUP1 SWAP2 SUB SWAP1 RETURN JUMPDEST PUSH2 0x2B5 PUSH1 0x4 DUP1 CALLDATASIZE SUB DUP2 ADD SWAP1 PUSH2 0x2B0 SWAP2 SWAP1 PUSH2 0x1C64 JUMP JUMPDEST PUSH2 0x1A53 JUMP JUMPDEST PUSH1 0x40 MLOAD PUSH2 0x2C3 SWAP3 SWAP2 SWAP1 PUSH2 0x2621 JUMP JUMPDEST PUSH1 0x40 MLOAD DUP1 SWAP2 SUB SWAP1 RETURN JUMPDEST PUSH2 0x2E6 PUSH1 0x4 DUP1 CALLDATASIZE SUB DUP2 ADD SWAP1 PUSH2 0x2E1 SWAP2 SWAP1 PUSH2 0x1C64 JUMP JUMPDEST PUSH2 0x1B1F JUMP JUMPDEST PUSH1 0x40 MLOAD PUSH2 0x2F3 SWAP2 SWAP1 PUSH2 0x2651 JUMP JUMPDEST PUSH1 0x40 MLOAD DUP1 SWAP2 SUB SWAP1 RETURN JUMPDEST PUSH1 0x0 PUSH1 0x1 PUSH1 0x0 CALLER PUSH20 0xFFFFFFFFFFFFFFFFFFFFFFFFFFFFFFFFFFFFFFFF AND PUSH20 0xFFFFFFFFFFFFFFFFFFFFFFFFFFFFFFFFFFFFFFFF AND DUP2 MSTORE PUSH1 0x20 ADD SWAP1 DUP2 MSTORE PUSH1 0x20 ADD PUSH1 0x0 KECCAK256 SWAP1 POP DUP1 PUSH1 0x2 ADD PUSH1 0x0 DUP4 PUSH20 0xFFFFFFFFFFFFFFFFFFFFFFFFFFFFFFFFFFFFFFFF AND PUSH20 0xFFFFFFFFFFFFFFFFFFFFFFFFFFFFFFFFFFFFFFFF AND DUP2 MSTORE PUSH1 0x20 ADD SWAP1 DUP2 MSTORE PUSH1 0x20 ADD PUSH1 0x0 KECCAK256 PUSH1 0x0 SWAP1 SLOAD SWAP1 PUSH2 0x100 EXP SWAP1 DIV PUSH1 0xFF AND ISZERO PUSH2 0x3CE JUMPI PUSH1 0x40 MLOAD PUSH32 0x8C379A000000000000000000000000000000000000000000000000000000000 DUP2 MSTORE PUSH1 0x4 ADD PUSH2 0x3C5 SWAP1 PUSH2 0x26BF JUMP JUMPDEST PUSH1 0x40 MLOAD DUP1 SWAP2 SUB SWAP1 REVERT JUMPDEST PUSH1 0x1 DUP2 PUSH1 0x2 ADD PUSH1 0x0 DUP5 PUSH20 0xFFFFFFFFFFFFFFFFFFFFFFFFFFFFFFFFFFFFFFFF AND PUSH20 0xFFFFFFFFFFFFFFFFFFFFFFFFFFFFFFFFFFFFFFFF AND DUP2 MSTORE PUSH1 0x20 ADD SWAP1 DUP2 MSTORE PUSH1 0x20 ADD PUSH1 0x0 KECCAK256 PUSH1 0x0 PUSH2 0x100 EXP DUP2 SLOAD DUP2 PUSH1 0xFF MUL NOT AND SWAP1 DUP4 ISZERO ISZERO MUL OR SWAP1 SSTORE POP DUP1 PUSH1 0x6 ADD PUSH1 0x0 DUP2 SLOAD DUP1 SWAP3 SWAP2 SWAP1 PUSH2 0x43D SWAP1 PUSH2 0x270E JUMP JUMPDEST SWAP2 SWAP1 POP SSTORE POP PUSH32 0x18376EA99FA0B809EC0F8F2185BA30FD3FA1AA765AA001E14CFFB75624F788AF CALLER DUP4 PUSH1 0x40 MLOAD PUSH2 0x473 SWAP3 SWAP2 SWAP1 PUSH2 0x2756 JUMP JUMPDEST PUSH1 0x40 MLOAD DUP1 SWAP2 SUB SWAP1 LOG1 POP POP JUMP JUMPDEST PUSH1 0x0 PUSH1 0x1 PUSH1 0x0 CALLER PUSH20 0xFFFFFFFFFFFFFFFFFFFFFFFFFFFFFFFFFFFFFFFF AND PUSH20 0xFFFFFFFFFFFFFFFFFFFFFFFFFFFFFFFFFFFFFFFF AND DUP2 MSTORE PUSH1 0x20 ADD SWAP1 DUP2 MSTORE PUSH1 0x20 ADD PUSH1 0x0 KECCAK256 SWAP1 POP DUP1 PUSH1 0x2 ADD PUSH1 0x0 DUP4 PUSH20 0xFFFFFFFFFFFFFFFFFFFFFFFFFFFFFFFFFFFFFFFF AND PUSH20 0xFFFFFFFFFFFFFFFFFFFFFFFFFFFFFFFFFFFFFFFF AND DUP2 MSTORE PUSH1 0x20 ADD SWAP1 DUP2 MSTORE PUSH1 0x20 ADD PUSH1 0x0 KECCAK256 PUSH1 0x0 SWAP1 SLOAD SWAP1 PUSH2 0x100 EXP SWAP1 DIV PUSH1 0xFF AND PUSH2 0x550 JUMPI PUSH1 0x40 MLOAD PUSH32 0x8C379A000000000000000000000000000000000000000000000000000000000 DUP2 MSTORE PUSH1 0x4 ADD PUSH2 0x547 SWAP1 PUSH2 0x27CB JUMP JUMPDEST PUSH1 0x40 MLOAD DUP1 SWAP2 SUB SWAP1 REVERT JUMPDEST PUSH1 0x0 DUP2 PUSH1 0x2 ADD PUSH1 0x0 DUP5 PUSH20 0xFFFFFFFFFFFFFFFFFFFFFFFFFFFFFFFFFFFFFFFF AND PUSH20 0xFFFFFFFFFFFFFFFFFFFFFFFFFFFFFFFFFFFFFFFF AND DUP2 MSTORE PUSH1 0x20 ADD SWAP1 DUP2 MSTORE PUSH1 0x20 ADD PUSH1 0x0 KECCAK256 PUSH1 0x0 PUSH2 0x100 EXP DUP2 SLOAD DUP2 PUSH1 0xFF MUL NOT AND SWAP1 DUP4 ISZERO ISZERO MUL OR SWAP1 SSTORE POP DUP1 PUSH1 0x6 ADD PUSH1 0x0 DUP2 SLOAD DUP1 SWAP3 SWAP2 SWAP1 PUSH2 0x5BF SWAP1 PUSH2 0x27EB JUMP JUMPDEST SWAP2 SWAP1 POP SSTORE POP POP POP JUMP JUMPDEST DUP1 PUSH20 0xFFFFFFFFFFFFFFFFFFFFFFFFFFFFFFFFFFFFFFFF AND PUSH1 0x0 DUP1 CALLER PUSH20 0xFFFFFFFFFFFFFFFFFFFFFFFFFFFFFFFFFFFFFFFF AND PUSH20 0xFFFFFFFFFFFFFFFFFFFFFFFFFFFFFFFFFFFFFFFF AND DUP2 MSTORE PUSH1 0x20 ADD SWAP1 DUP2 MSTORE PUSH1 0x20 ADD PUSH1 0x0 KECCAK256 PUSH1 0x1 ADD PUSH1 0x0 SWAP1 SLOAD SWAP1 PUSH2 0x100 EXP SWAP1 DIV PUSH20 0xFFFFFFFFFFFFFFFFFFFFFFFFFFFFFFFFFFFFFFFF AND PUSH20 0xFFFFFFFFFFFFFFFFFFFFFFFFFFFFFFFFFFFFFFFF AND SUB PUSH2 0x697 JUMPI PUSH1 0x40 MLOAD PUSH32 0x8C379A000000000000000000000000000000000000000000000000000000000 DUP2 MSTORE PUSH1 0x4 ADD PUSH2 0x68E SWAP1 PUSH2 0x2860 JUMP JUMPDEST PUSH1 0x40 MLOAD DUP1 SWAP2 SUB SWAP1 REVERT JUMPDEST PUSH1 0x0 PUSH1 0x1 PUSH1 0x0 DUP4 PUSH20 0xFFFFFFFFFFFFFFFFFFFFFFFFFFFFFFFFFFFFFFFF AND PUSH20 0xFFFFFFFFFFFFFFFFFFFFFFFFFFFFFFFFFFFFFFFF AND DUP2 MSTORE PUSH1 0x20 ADD SWAP1 DUP2 MSTORE PUSH1 0x20 ADD PUSH1 0x0 KECCAK256 SWAP1 POP CALLER DUP2 PUSH1 0x1 ADD PUSH1 0x0 DUP4 PUSH1 0x5 ADD SLOAD DUP2 MSTORE PUSH1 0x20 ADD SWAP1 DUP2 MSTORE PUSH1 0x20 ADD PUSH1 0x0 KECCAK256 PUSH1 0x0 PUSH2 0x100 EXP DUP2 SLOAD DUP2 PUSH20 0xFFFFFFFFFFFFFFFFFFFFFFFFFFFFFFFFFFFFFFFF MUL NOT AND SWAP1 DUP4 PUSH20 0xFFFFFFFFFFFFFFFFFFFFFFFFFFFFFFFFFFFFFFFF AND MUL OR SWAP1 SSTORE POP DUP1 PUSH1 0x5 ADD PUSH1 0x0 DUP2 SLOAD DUP1 SWAP3 SWAP2 SWAP1 PUSH2 0x747 SWAP1 PUSH2 0x270E JUMP JUMPDEST SWAP2 SWAP1 POP SSTORE POP PUSH1 0x0 DUP2 PUSH1 0x2 ADD PUSH1 0x0 CALLER PUSH20 0xFFFFFFFFFFFFFFFFFFFFFFFFFFFFFFFFFFFFFFFF AND PUSH20 0xFFFFFFFFFFFFFFFFFFFFFFFFFFFFFFFFFFFFFFFF AND DUP2 MSTORE PUSH1 0x20 ADD SWAP1 DUP2 MSTORE PUSH1 0x20 ADD PUSH1 0x0 KECCAK256 PUSH1 0x0 PUSH2 0x100 EXP DUP2 SLOAD DUP2 PUSH1 0xFF MUL NOT AND SWAP1 DUP4 ISZERO ISZERO MUL OR SWAP1 SSTORE POP PUSH32 0xB168E0B33ED126DEC210FB14910D562A068905FB3431F3ABE71B964E9E1B119A DUP3 CALLER PUSH1 0x40 MLOAD PUSH2 0x7D7 SWAP3 SWAP2 SWAP1 PUSH2 0x2756 JUMP JUMPDEST PUSH1 0x40 MLOAD DUP1 SWAP2 SUB SWAP1 LOG1 POP POP JUMP JUMPDEST DUP1 PUSH1 0x1 PUSH1 0x0 CALLER PUSH20 0xFFFFFFFFFFFFFFFFFFFFFFFFFFFFFFFFFFFFFFFF AND PUSH20 0xFFFFFFFFFFFFFFFFFFFFFFFFFFFFFFFFFFFFFFFF AND DUP2 MSTORE PUSH1 0x20 ADD SWAP1 DUP2 MSTORE PUSH1 0x20 ADD PUSH1 0x0 KECCAK256 PUSH1 0x0 ADD SWAP1 DUP2 PUSH2 0x832 SWAP2 SWAP1 PUSH2 0x2A8C JUMP JUMPDEST POP PUSH1 0x0 PUSH1 0x1 PUSH1 0x0 CALLER PUSH20 0xFFFFFFFFFFFFFFFFFFFFFFFFFFFFFFFFFFFFFFFF AND PUSH20 0xFFFFFFFFFFFFFFFFFFFFFFFFFFFFFFFFFFFFFFFF AND DUP2 MSTORE PUSH1 0x20 ADD SWAP1 DUP2 MSTORE PUSH1 0x20 ADD PUSH1 0x0 KECCAK256 PUSH1 0x4 ADD DUP2 SWAP1 SSTORE POP PUSH1 0x0 PUSH1 0x1 PUSH1 0x0 CALLER PUSH20 0xFFFFFFFFFFFFFFFFFFFFFFFFFFFFFFFFFFFFFFFF AND PUSH20 0xFFFFFFFFFFFFFFFFFFFFFFFFFFFFFFFFFFFFFFFF AND DUP2 MSTORE PUSH1 0x20 ADD SWAP1 DUP2 MSTORE PUSH1 0x20 ADD PUSH1 0x0 KECCAK256 PUSH1 0x5 ADD DUP2 SWAP1 SSTORE POP PUSH1 0x0 PUSH1 0x1 PUSH1 0x0 CALLER PUSH20 0xFFFFFFFFFFFFFFFFFFFFFFFFFFFFFFFFFFFFFFFF AND PUSH20 0xFFFFFFFFFFFFFFFFFFFFFFFFFFFFFFFFFFFFFFFF AND DUP2 MSTORE PUSH1 0x20 ADD SWAP1 DUP2 MSTORE PUSH1 0x20 ADD PUSH1 0x0 KECCAK256 PUSH1 0x6 ADD DUP2 SWAP1 SSTORE POP DUP2 PUSH1 0x0 DUP1 CALLER PUSH20 0xFFFFFFFFFFFFFFFFFFFFFFFFFFFFFFFFFFFFFFFF AND PUSH20 0xFFFFFFFFFFFFFFFFFFFFFFFFFFFFFFFFFFFFFFFF AND DUP2 MSTORE PUSH1 0x20 ADD SWAP1 DUP2 MSTORE PUSH1 0x20 ADD PUSH1 0x0 KECCAK256 PUSH1 0x0 ADD SWAP1 DUP2 PUSH2 0x959 SWAP2 SWAP1 PUSH2 0x2A8C JUMP JUMPDEST POP CALLER PUSH1 0x0 DUP1 CALLER PUSH20 0xFFFFFFFFFFFFFFFFFFFFFFFFFFFFFFFFFFFFFFFF AND PUSH20 0xFFFFFFFFFFFFFFFFFFFFFFFFFFFFFFFFFFFFFFFF AND DUP2 MSTORE PUSH1 0x20 ADD SWAP1 DUP2 MSTORE PUSH1 0x20 ADD PUSH1 0x0 KECCAK256 PUSH1 0x1 ADD PUSH1 0x0 PUSH2 0x100 EXP DUP2 SLOAD DUP2 PUSH20 0xFFFFFFFFFFFFFFFFFFFFFFFFFFFFFFFFFFFFFFFF MUL NOT AND SWAP1 DUP4 PUSH20 0xFFFFFFFFFFFFFFFFFFFFFFFFFFFFFFFFFFFFFFFF AND MUL OR SWAP1 SSTORE POP PUSH32 0x92822564BAB8864C3A47B34E8D23FBCE5C46234EB5DA261F94087B995AC0F33B CALLER DUP4 DUP4 PUSH1 0x40 MLOAD PUSH2 0xA0D SWAP4 SWAP3 SWAP2 SWAP1 PUSH2 0x2B5E JUMP JUMPDEST PUSH1 0x40 MLOAD DUP1 SWAP2 SUB SWAP1 LOG1 POP POP JUMP JUMPDEST PUSH1 0x0 DUP1 PUSH1 0x1 PUSH1 0x0 DUP7 PUSH20 0xFFFFFFFFFFFFFFFFFFFFFFFFFFFFFFFFFFFFFFFF AND PUSH20 0xFFFFFFFFFFFFFFFFFFFFFFFFFFFFFFFFFFFFFFFF AND DUP2 MSTORE PUSH1 0x20 ADD SWAP1 DUP2 MSTORE PUSH1 0x20 ADD PUSH1 0x0 KECCAK256 SWAP1 POP DUP1 PUSH1 0x2 ADD PUSH1 0x0 CALLER PUSH20 0xFFFFFFFFFFFFFFFFFFFFFFFFFFFFFFFFFFFFFFFF AND PUSH20 0xFFFFFFFFFFFFFFFFFFFFFFFFFFFFFFFFFFFFFFFF AND DUP2 MSTORE PUSH1 0x20 ADD SWAP1 DUP2 MSTORE PUSH1 0x20 ADD PUSH1 0x0 KECCAK256 PUSH1 0x0 SWAP1 SLOAD SWAP1 PUSH2 0x100 EXP SWAP1 DIV PUSH1 0xFF AND PUSH2 0xAEB JUMPI PUSH1 0x40 MLOAD PUSH32 0x8C379A000000000000000000000000000000000000000000000000000000000 DUP2 MSTORE PUSH1 0x4 ADD PUSH2 0xAE2 SWAP1 PUSH2 0x2BEF JUMP JUMPDEST PUSH1 0x40 MLOAD DUP1 SWAP2 SUB SWAP1 REVERT JUMPDEST PUSH1 0x0 DUP2 PUSH1 0x3 ADD PUSH1 0x0 DUP7 DUP2 MSTORE PUSH1 0x20 ADD SWAP1 DUP2 MSTORE PUSH1 0x20 ADD PUSH1 0x0 KECCAK256 SWAP1 POP PUSH1 0x0 PUSH1 0x1 DUP2 GT ISZERO PUSH2 0xB18 JUMPI PUSH2 0xB17 PUSH2 0x23D7 JUMP JUMPDEST JUMPDEST DUP2 PUSH1 0x6 ADD PUSH1 0x0 SWAP1 SLOAD SWAP1 PUSH2 0x100 EXP SWAP1 DIV PUSH1 0xFF AND PUSH1 0x1 DUP2 GT ISZERO PUSH2 0xB3C JUMPI PUSH2 0xB3B PUSH2 0x23D7 JUMP JUMPDEST JUMPDEST EQ PUSH2 0xB7C JUMPI PUSH1 0x40 MLOAD PUSH32 0x8C379A000000000000000000000000000000000000000000000000000000000 DUP2 MSTORE PUSH1 0x4 ADD PUSH2 0xB73 SWAP1 PUSH2 0x2C5B JUMP JUMPDEST PUSH1 0x40 MLOAD DUP1 SWAP2 SUB SWAP1 REVERT JUMPDEST PUSH1 0x0 DUP2 PUSH1 0x5 ADD PUSH1 0x0 CALLER PUSH20 0xFFFFFFFFFFFFFFFFFFFFFFFFFFFFFFFFFFFFFFFF AND PUSH20 0xFFFFFFFFFFFFFFFFFFFFFFFFFFFFFFFFFFFFFFFF AND DUP2 MSTORE PUSH1 0x20 ADD SWAP1 DUP2 MSTORE PUSH1 0x20 ADD PUSH1 0x0 KECCAK256 PUSH1 0x0 SWAP1 SLOAD SWAP1 PUSH2 0x100 EXP SWAP1 DIV PUSH1 0xFF AND SWAP1 POP DUP1 ISZERO PUSH2 0xC10 JUMPI PUSH1 0x40 MLOAD PUSH32 0x8C379A000000000000000000000000000000000000000000000000000000000 DUP2 MSTORE PUSH1 0x4 ADD PUSH2 0xC07 SWAP1 PUSH2 0x2CC7 JUMP JUMPDEST PUSH1 0x40 MLOAD DUP1 SWAP2 SUB SWAP1 REVERT JUMPDEST DUP2 PUSH1 0x3 ADD PUSH1 0x0 DUP7 DUP2 MSTORE PUSH1 0x20 ADD SWAP1 DUP2 MSTORE PUSH1 0x20 ADD PUSH1 0x0 KECCAK256 PUSH1 0x0 DUP2 SLOAD DUP1 SWAP3 SWAP2 SWAP1 PUSH2 0xC36 SWAP1 PUSH2 0x270E JUMP JUMPDEST SWAP2 SWAP1 POP SSTORE POP PUSH1 0x1 DUP3 PUSH1 0x5 ADD PUSH1 0x0 CALLER PUSH20 0xFFFFFFFFFFFFFFFFFFFFFFFFFFFFFFFFFFFFFFFF AND PUSH20 0xFFFFFFFFFFFFFFFFFFFFFFFFFFFFFFFFFFFFFFFF AND DUP2 MSTORE PUSH1 0x20 ADD SWAP1 DUP2 MSTORE PUSH1 0x20 ADD PUSH1 0x0 KECCAK256 PUSH1 0x0 PUSH2 0x100 EXP DUP2 SLOAD DUP2 PUSH1 0xFF MUL NOT AND SWAP1 DUP4 ISZERO ISZERO MUL OR SWAP1 SSTORE POP PUSH32 0x1ED37DA89EC73264FE3FF50D20D92F19845180819831A4F5DBFB4BF282F0FA57 CALLER DUP9 DUP9 DUP9 PUSH1 0x40 MLOAD PUSH2 0xCCA SWAP5 SWAP4 SWAP3 SWAP2 SWAP1 PUSH2 0x2CE7 JUMP JUMPDEST PUSH1 0x40 MLOAD DUP1 SWAP2 SUB SWAP1 LOG1 PUSH1 0x1 SWAP4 POP POP POP POP SWAP4 SWAP3 POP POP POP JUMP JUMPDEST PUSH1 0x1 PUSH1 0x20 MSTORE DUP1 PUSH1 0x0 MSTORE PUSH1 0x40 PUSH1 0x0 KECCAK256 PUSH1 0x0 SWAP2 POP SWAP1 POP DUP1 PUSH1 0x0 ADD DUP1 SLOAD PUSH2 0xD03 SWAP1 PUSH2 0x28AF JUMP JUMPDEST DUP1 PUSH1 0x1F ADD PUSH1 0x20 DUP1 SWAP2 DIV MUL PUSH1 0x20 ADD PUSH1 0x40 MLOAD SWAP1 DUP2 ADD PUSH1 0x40 MSTORE DUP1 SWAP3 SWAP2 SWAP1 DUP2 DUP2 MSTORE PUSH1 0x20 ADD DUP3 DUP1 SLOAD PUSH2 0xD2F SWAP1 PUSH2 0x28AF JUMP JUMPDEST DUP1 ISZERO PUSH2 0xD7C JUMPI DUP1 PUSH1 0x1F LT PUSH2 0xD51 JUMPI PUSH2 0x100 DUP1 DUP4 SLOAD DIV MUL DUP4 MSTORE SWAP2 PUSH1 0x20 ADD SWAP2 PUSH2 0xD7C JUMP JUMPDEST DUP3 ADD SWAP2 SWAP1 PUSH1 0x0 MSTORE PUSH1 0x20 PUSH1 0x0 KECCAK256 SWAP1 JUMPDEST DUP2 SLOAD DUP2 MSTORE SWAP1 PUSH1 0x1 ADD SWAP1 PUSH1 0x20 ADD DUP1 DUP4 GT PUSH2 0xD5F JUMPI DUP3 SWAP1 SUB PUSH1 0x1F AND DUP3 ADD SWAP2 JUMPDEST POP POP POP POP POP SWAP1 DUP1 PUSH1 0x4 ADD SLOAD SWAP1 DUP1 PUSH1 0x5 ADD SLOAD SWAP1 DUP1 PUSH1 0x6 ADD SLOAD SWAP1 POP DUP5 JUMP JUMPDEST PUSH1 0x60 DUP1 PUSH1 0x0 DUP1 PUSH1 0x0 CALLER PUSH20 0xFFFFFFFFFFFFFFFFFFFFFFFFFFFFFFFFFFFFFFFF AND PUSH20 0xFFFFFFFFFFFFFFFFFFFFFFFFFFFFFFFFFFFFFFFF AND DUP2 MSTORE PUSH1 0x20 ADD SWAP1 DUP2 MSTORE PUSH1 0x20 ADD PUSH1 0x0 KECCAK256 PUSH1 0x0 ADD DUP1 SLOAD PUSH2 0xDE9 SWAP1 PUSH2 0x28AF JUMP JUMPDEST DUP1 PUSH1 0x1F ADD PUSH1 0x20 DUP1 SWAP2 DIV MUL PUSH1 0x20 ADD PUSH1 0x40 MLOAD SWAP1 DUP2 ADD PUSH1 0x40 MSTORE DUP1 SWAP3 SWAP2 SWAP1 DUP2 DUP2 MSTORE PUSH1 0x20 ADD DUP3 DUP1 SLOAD PUSH2 0xE15 SWAP1 PUSH2 0x28AF JUMP JUMPDEST DUP1 ISZERO PUSH2 0xE62 JUMPI DUP1 PUSH1 0x1F LT PUSH2 0xE37 JUMPI PUSH2 0x100 DUP1 DUP4 SLOAD DIV MUL DUP4 MSTORE SWAP2 PUSH1 0x20 ADD SWAP2 PUSH2 0xE62 JUMP JUMPDEST DUP3 ADD SWAP2 SWAP1 PUSH1 0x0 MSTORE PUSH1 0x20 PUSH1 0x0 KECCAK256 SWAP1 JUMPDEST DUP2 SLOAD DUP2 MSTORE SWAP1 PUSH1 0x1 ADD SWAP1 PUSH1 0x20 ADD DUP1 DUP4 GT PUSH2 0xE45 JUMPI DUP3 SWAP1 SUB PUSH1 0x1F AND DUP3 ADD SWAP2 JUMPDEST POP POP POP POP POP SWAP1 POP PUSH1 0x0 DUP1 PUSH1 0x0 CALLER PUSH20 0xFFFFFFFFFFFFFFFFFFFFFFFFFFFFFFFFFFFFFFFF AND PUSH20 0xFFFFFFFFFFFFFFFFFFFFFFFFFFFFFFFFFFFFFFFF AND DUP2 MSTORE PUSH1 0x20 ADD SWAP1 DUP2 MSTORE PUSH1 0x20 ADD PUSH1 0x0 KECCAK256 PUSH1 0x1 ADD PUSH1 0x0 SWAP1 SLOAD SWAP1 PUSH2 0x100 EXP SWAP1 DIV PUSH20 0xFFFFFFFFFFFFFFFFFFFFFFFFFFFFFFFFFFFFFFFF AND SWAP1 POP PUSH1 0x0 PUSH1 0x1 PUSH1 0x0 DUP4 PUSH20 0xFFFFFFFFFFFFFFFFFFFFFFFFFFFFFFFFFFFFFFFF AND PUSH20 0xFFFFFFFFFFFFFFFFFFFFFFFFFFFFFFFFFFFFFFFF AND DUP2 MSTORE PUSH1 0x20 ADD SWAP1 DUP2 MSTORE PUSH1 0x20 ADD PUSH1 0x0 KECCAK256 PUSH1 0x0 ADD DUP1 SLOAD PUSH2 0xF1E SWAP1 PUSH2 0x28AF JUMP JUMPDEST DUP1 PUSH1 0x1F ADD PUSH1 0x20 DUP1 SWAP2 DIV MUL PUSH1 0x20 ADD PUSH1 0x40 MLOAD SWAP1 DUP2 ADD PUSH1 0x40 MSTORE DUP1 SWAP3 SWAP2 SWAP1 DUP2 DUP2 MSTORE PUSH1 0x20 ADD DUP3 DUP1 SLOAD PUSH2 0xF4A SWAP1 PUSH2 0x28AF JUMP JUMPDEST DUP1 ISZERO PUSH2 0xF97 JUMPI DUP1 PUSH1 0x1F LT PUSH2 0xF6C JUMPI PUSH2 0x100 DUP1 DUP4 SLOAD DIV MUL DUP4 MSTORE SWAP2 PUSH1 0x20 ADD SWAP2 PUSH2 0xF97 JUMP JUMPDEST DUP3 ADD SWAP2 SWAP1 PUSH1 0x0 MSTORE PUSH1 0x20 PUSH1 0x0 KECCAK256 SWAP1 JUMPDEST DUP2 SLOAD DUP2 MSTORE SWAP1 PUSH1 0x1 ADD SWAP1 PUSH1 0x20 ADD DUP1 DUP4 GT PUSH2 0xF7A JUMPI DUP3 SWAP1 SUB PUSH1 0x1F AND DUP3 ADD SWAP2 JUMPDEST POP POP POP POP POP SWAP1 POP DUP3 DUP2 SWAP5 POP SWAP5 POP POP POP POP SWAP1 SWAP2 JUMP JUMPDEST PUSH1 0x0 PUSH1 0x1 PUSH1 0x0 CALLER PUSH20 0xFFFFFFFFFFFFFFFFFFFFFFFFFFFFFFFFFFFFFFFF AND PUSH20 0xFFFFFFFFFFFFFFFFFFFFFFFFFFFFFFFFFFFFFFFF AND DUP2 MSTORE PUSH1 0x20 ADD SWAP1 DUP2 MSTORE PUSH1 0x20 ADD PUSH1 0x0 KECCAK256 SWAP1 POP DUP1 PUSH1 0x4 ADD SLOAD DUP3 LT PUSH2 0x1034 JUMPI PUSH1 0x40 MLOAD PUSH32 0x8C379A000000000000000000000000000000000000000000000000000000000 DUP2 MSTORE PUSH1 0x4 ADD PUSH2 0x102B SWAP1 PUSH2 0x2D78 JUMP JUMPDEST PUSH1 0x40 MLOAD DUP1 SWAP2 SUB SWAP1 REVERT JUMPDEST PUSH1 0x1 DUP2 PUSH1 0x3 ADD PUSH1 0x0 DUP5 DUP2 MSTORE PUSH1 0x20 ADD SWAP1 DUP2 MSTORE PUSH1 0x20 ADD PUSH1 0x0 KECCAK256 PUSH1 0x6 ADD PUSH1 0x0 PUSH2 0x100 EXP DUP2 SLOAD DUP2 PUSH1 0xFF MUL NOT AND SWAP1 DUP4 PUSH1 0x1 DUP2 GT ISZERO PUSH2 0x1070 JUMPI PUSH2 0x106F PUSH2 0x23D7 JUMP JUMPDEST JUMPDEST MUL OR SWAP1 SSTORE POP PUSH32 0xF3F834A80D87BE6DCB993A5939836CCD60D9AE9BDD02BE4A3DDD50F89DB59D35 CALLER DUP4 PUSH1 0x40 MLOAD PUSH2 0x10A6 SWAP3 SWAP2 SWAP1 PUSH2 0x2D98 JUMP JUMPDEST PUSH1 0x40 MLOAD DUP1 SWAP2 SUB SWAP1 LOG1 POP POP JUMP JUMPDEST PUSH1 0x60 DUP1 PUSH1 0x0 PUSH1 0x1 PUSH1 0x0 CALLER PUSH20 0xFFFFFFFFFFFFFFFFFFFFFFFFFFFFFFFFFFFFFFFF AND PUSH20 0xFFFFFFFFFFFFFFFFFFFFFFFFFFFFFFFFFFFFFFFF AND DUP2 MSTORE PUSH1 0x20 ADD SWAP1 DUP2 MSTORE PUSH1 0x20 ADD PUSH1 0x0 KECCAK256 SWAP1 POP DUP1 PUSH1 0x4 ADD SLOAD DUP5 LT PUSH2 0x113E JUMPI PUSH1 0x40 MLOAD PUSH32 0x8C379A000000000000000000000000000000000000000000000000000000000 DUP2 MSTORE PUSH1 0x4 ADD PUSH2 0x1135 SWAP1 PUSH2 0x2E0D JUMP JUMPDEST PUSH1 0x40 MLOAD DUP1 SWAP2 SUB SWAP1 REVERT JUMPDEST PUSH1 0x0 DUP2 PUSH1 0x3 ADD PUSH1 0x0 DUP7 DUP2 MSTORE PUSH1 0x20 ADD SWAP1 DUP2 MSTORE PUSH1 0x20 ADD PUSH1 0x0 KECCAK256 SWAP1 POP PUSH1 0x0 DUP2 PUSH1 0x1 ADD SLOAD PUSH8 0xFFFFFFFFFFFFFFFF DUP2 GT ISZERO PUSH2 0x1177 JUMPI PUSH2 0x1176 PUSH2 0x1CAC JUMP JUMPDEST JUMPDEST PUSH1 0x40 MLOAD SWAP1 DUP1 DUP3 MSTORE DUP1 PUSH1 0x20 MUL PUSH1 0x20 ADD DUP3 ADD PUSH1 0x40 MSTORE DUP1 ISZERO PUSH2 0x11AA JUMPI DUP2 PUSH1 0x20 ADD JUMPDEST PUSH1 0x60 DUP2 MSTORE PUSH1 0x20 ADD SWAP1 PUSH1 0x1 SWAP1 SUB SWAP1 DUP2 PUSH2 0x1195 JUMPI SWAP1 POP JUMPDEST POP SWAP1 POP PUSH1 0x0 DUP3 PUSH1 0x1 ADD SLOAD PUSH8 0xFFFFFFFFFFFFFFFF DUP2 GT ISZERO PUSH2 0x11CD JUMPI PUSH2 0x11CC PUSH2 0x1CAC JUMP JUMPDEST JUMPDEST PUSH1 0x40 MLOAD SWAP1 DUP1 DUP3 MSTORE DUP1 PUSH1 0x20 MUL PUSH1 0x20 ADD DUP3 ADD PUSH1 0x40 MSTORE DUP1 ISZERO PUSH2 0x11FB JUMPI DUP2 PUSH1 0x20 ADD PUSH1 0x20 DUP3 MUL DUP1 CALLDATASIZE DUP4 CALLDATACOPY DUP1 DUP3 ADD SWAP2 POP POP SWAP1 POP JUMPDEST POP SWAP1 POP PUSH1 0x0 JUMPDEST DUP4 PUSH1 0x1 ADD SLOAD DUP2 LT ISZERO PUSH2 0x130B JUMPI DUP4 PUSH1 0x2 ADD PUSH1 0x0 DUP3 DUP2 MSTORE PUSH1 0x20 ADD SWAP1 DUP2 MSTORE PUSH1 0x20 ADD PUSH1 0x0 KECCAK256 DUP1 SLOAD PUSH2 0x122D SWAP1 PUSH2 0x28AF JUMP JUMPDEST DUP1 PUSH1 0x1F ADD PUSH1 0x20 DUP1 SWAP2 DIV MUL PUSH1 0x20 ADD PUSH1 0x40 MLOAD SWAP1 DUP2 ADD PUSH1 0x40 MSTORE DUP1 SWAP3 SWAP2 SWAP1 DUP2 DUP2 MSTORE PUSH1 0x20 ADD DUP3 DUP1 SLOAD PUSH2 0x1259 SWAP1 PUSH2 0x28AF JUMP JUMPDEST DUP1 ISZERO PUSH2 0x12A6 JUMPI DUP1 PUSH1 0x1F LT PUSH2 0x127B JUMPI PUSH2 0x100 DUP1 DUP4 SLOAD DIV MUL DUP4 MSTORE SWAP2 PUSH1 0x20 ADD SWAP2 PUSH2 0x12A6 JUMP JUMPDEST DUP3 ADD SWAP2 SWAP1 PUSH1 0x0 MSTORE PUSH1 0x20 PUSH1 0x0 KECCAK256 SWAP1 JUMPDEST DUP2 SLOAD DUP2 MSTORE SWAP1 PUSH1 0x1 ADD SWAP1 PUSH1 0x20 ADD DUP1 DUP4 GT PUSH2 0x1289 JUMPI DUP3 SWAP1 SUB PUSH1 0x1F AND DUP3 ADD SWAP2 JUMPDEST POP POP POP POP POP DUP4 DUP3 DUP2 MLOAD DUP2 LT PUSH2 0x12BE JUMPI PUSH2 0x12BD PUSH2 0x2E2D JUMP JUMPDEST JUMPDEST PUSH1 0x20 MUL PUSH1 0x20 ADD ADD DUP2 SWAP1 MSTORE POP DUP4 PUSH1 0x3 ADD PUSH1 0x0 DUP3 DUP2 MSTORE PUSH1 0x20 ADD SWAP1 DUP2 MSTORE PUSH1 0x20 ADD PUSH1 0x0 KECCAK256 SLOAD DUP3 DUP3 DUP2 MLOAD DUP2 LT PUSH2 0x12F2 JUMPI PUSH2 0x12F1 PUSH2 0x2E2D JUMP JUMPDEST JUMPDEST PUSH1 0x20 MUL PUSH1 0x20 ADD ADD DUP2 DUP2 MSTORE POP POP DUP1 DUP1 PUSH1 0x1 ADD SWAP2 POP POP PUSH2 0x1201 JUMP JUMPDEST POP DUP2 DUP2 SWAP6 POP SWAP6 POP POP POP POP POP SWAP2 POP SWAP2 JUMP JUMPDEST PUSH1 0x0 PUSH1 0x1 PUSH1 0x0 CALLER PUSH20 0xFFFFFFFFFFFFFFFFFFFFFFFFFFFFFFFFFFFFFFFF AND PUSH20 0xFFFFFFFFFFFFFFFFFFFFFFFFFFFFFFFFFFFFFFFF AND DUP2 MSTORE PUSH1 0x20 ADD SWAP1 DUP2 MSTORE PUSH1 0x20 ADD PUSH1 0x0 KECCAK256 SWAP1 POP PUSH1 0x0 DUP2 PUSH1 0x4 ADD SLOAD SWAP1 POP PUSH1 0x0 DUP3 PUSH1 0x3 ADD PUSH1 0x0 DUP4 DUP2 MSTORE PUSH1 0x20 ADD SWAP1 DUP2 MSTORE PUSH1 0x20 ADD PUSH1 0x0 KECCAK256 SWAP1 POP DUP5 DUP2 PUSH1 0x0 ADD SWAP1 DUP2 PUSH2 0x1391 SWAP2 SWAP1 PUSH2 0x2A8C JUMP JUMPDEST POP PUSH1 0x0 DUP2 PUSH1 0x6 ADD PUSH1 0x0 PUSH2 0x100 EXP DUP2 SLOAD DUP2 PUSH1 0xFF MUL NOT AND SWAP1 DUP4 PUSH1 0x1 DUP2 GT ISZERO PUSH2 0x13BA JUMPI PUSH2 0x13B9 PUSH2 0x23D7 JUMP JUMPDEST JUMPDEST MUL OR SWAP1 SSTORE POP DUP4 MLOAD DUP2 PUSH1 0x1 ADD DUP2 SWAP1 SSTORE POP PUSH1 0x0 JUMPDEST DUP5 MLOAD DUP2 LT ISZERO PUSH2 0x143A JUMPI DUP5 DUP2 DUP2 MLOAD DUP2 LT PUSH2 0x13E8 JUMPI PUSH2 0x13E7 PUSH2 0x2E2D JUMP JUMPDEST JUMPDEST PUSH1 0x20 MUL PUSH1 0x20 ADD ADD MLOAD DUP3 PUSH1 0x2 ADD PUSH1 0x0 DUP4 DUP2 MSTORE PUSH1 0x20 ADD SWAP1 DUP2 MSTORE PUSH1 0x20 ADD PUSH1 0x0 KECCAK256 SWAP1 DUP2 PUSH2 0x1411 SWAP2 SWAP1 PUSH2 0x2A8C JUMP JUMPDEST POP PUSH1 0x0 DUP3 PUSH1 0x3 ADD PUSH1 0x0 DUP4 DUP2 MSTORE PUSH1 0x20 ADD SWAP1 DUP2 MSTORE PUSH1 0x20 ADD PUSH1 0x0 KECCAK256 DUP2 SWAP1 SSTORE POP DUP1 DUP1 PUSH1 0x1 ADD SWAP2 POP POP PUSH2 0x13CC JUMP JUMPDEST POP DUP3 PUSH1 0x4 ADD PUSH1 0x0 DUP2 SLOAD DUP1 SWAP3 SWAP2 SWAP1 PUSH2 0x1450 SWAP1 PUSH2 0x270E JUMP JUMPDEST SWAP2 SWAP1 POP SSTORE POP PUSH32 0xCF25A6C234CC59090A48BEC904C01B25E267D66E3C1893F65C4B15AD21FDE876 CALLER DUP4 DUP8 PUSH1 0x40 MLOAD PUSH2 0x1488 SWAP4 SWAP3 SWAP2 SWAP1 PUSH2 0x2E5C JUMP JUMPDEST PUSH1 0x40 MLOAD DUP1 SWAP2 SUB SWAP1 LOG1 POP POP POP POP POP JUMP JUMPDEST PUSH1 0x60 DUP1 PUSH1 0x60 PUSH1 0x0 PUSH1 0x1 PUSH1 0x0 DUP7 PUSH20 0xFFFFFFFFFFFFFFFFFFFFFFFFFFFFFFFFFFFFFFFF AND PUSH20 0xFFFFFFFFFFFFFFFFFFFFFFFFFFFFFFFFFFFFFFFF AND DUP2 MSTORE PUSH1 0x20 ADD SWAP1 DUP2 MSTORE PUSH1 0x20 ADD PUSH1 0x0 KECCAK256 SWAP1 POP PUSH1 0x0 DUP2 PUSH1 0x4 ADD SLOAD SWAP1 POP PUSH1 0x0 DUP2 PUSH8 0xFFFFFFFFFFFFFFFF DUP2 GT ISZERO PUSH2 0x1504 JUMPI PUSH2 0x1503 PUSH2 0x1CAC JUMP JUMPDEST JUMPDEST PUSH1 0x40 MLOAD SWAP1 DUP1 DUP3 MSTORE DUP1 PUSH1 0x20 MUL PUSH1 0x20 ADD DUP3 ADD PUSH1 0x40 MSTORE DUP1 ISZERO PUSH2 0x1537 JUMPI DUP2 PUSH1 0x20 ADD JUMPDEST PUSH1 0x60 DUP2 MSTORE PUSH1 0x20 ADD SWAP1 PUSH1 0x1 SWAP1 SUB SWAP1 DUP2 PUSH2 0x1522 JUMPI SWAP1 POP JUMPDEST POP SWAP1 POP PUSH1 0x0 DUP3 PUSH8 0xFFFFFFFFFFFFFFFF DUP2 GT ISZERO PUSH2 0x1556 JUMPI PUSH2 0x1555 PUSH2 0x1CAC JUMP JUMPDEST JUMPDEST PUSH1 0x40 MLOAD SWAP1 DUP1 DUP3 MSTORE DUP1 PUSH1 0x20 MUL PUSH1 0x20 ADD DUP3 ADD PUSH1 0x40 MSTORE DUP1 ISZERO PUSH2 0x1584 JUMPI DUP2 PUSH1 0x20 ADD PUSH1 0x20 DUP3 MUL DUP1 CALLDATASIZE DUP4 CALLDATACOPY DUP1 DUP3 ADD SWAP2 POP POP SWAP1 POP JUMPDEST POP SWAP1 POP PUSH1 0x0 DUP4 PUSH8 0xFFFFFFFFFFFFFFFF DUP2 GT ISZERO PUSH2 0x15A3 JUMPI PUSH2 0x15A2 PUSH2 0x1CAC JUMP JUMPDEST JUMPDEST PUSH1 0x40 MLOAD SWAP1 DUP1 DUP3 MSTORE DUP1 PUSH1 0x20 MUL PUSH1 0x20 ADD DUP3 ADD PUSH1 0x40 MSTORE DUP1 ISZERO PUSH2 0x15D1 JUMPI DUP2 PUSH1 0x20 ADD PUSH1 0x20 DUP3 MUL DUP1 CALLDATASIZE DUP4 CALLDATACOPY DUP1 DUP3 ADD SWAP2 POP POP SWAP1 POP JUMPDEST POP SWAP1 POP PUSH1 0x0 JUMPDEST DUP5 DUP2 LT ISZERO PUSH2 0x174E JUMPI DUP6 PUSH1 0x3 ADD PUSH1 0x0 DUP3 DUP2 MSTORE PUSH1 0x20 ADD SWAP1 DUP2 MSTORE PUSH1 0x20 ADD PUSH1 0x0 KECCAK256 PUSH1 0x0 ADD DUP1 SLOAD PUSH2 0x1602 SWAP1 PUSH2 0x28AF JUMP JUMPDEST DUP1 PUSH1 0x1F ADD PUSH1 0x20 DUP1 SWAP2 DIV MUL PUSH1 0x20 ADD PUSH1 0x40 MLOAD SWAP1 DUP2 ADD PUSH1 0x40 MSTORE DUP1 SWAP3 SWAP2 SWAP1 DUP2 DUP2 MSTORE PUSH1 0x20 ADD DUP3 DUP1 SLOAD PUSH2 0x162E SWAP1 PUSH2 0x28AF JUMP JUMPDEST DUP1 ISZERO PUSH2 0x167B JUMPI DUP1 PUSH1 0x1F LT PUSH2 0x1650 JUMPI PUSH2 0x100 DUP1 DUP4 SLOAD DIV MUL DUP4 MSTORE SWAP2 PUSH1 0x20 ADD SWAP2 PUSH2 0x167B JUMP JUMPDEST DUP3 ADD SWAP2 SWAP1 PUSH1 0x0 MSTORE PUSH1 0x20 PUSH1 0x0 KECCAK256 SWAP1 JUMPDEST DUP2 SLOAD DUP2 MSTORE SWAP1 PUSH1 0x1 ADD SWAP1 PUSH1 0x20 ADD DUP1 DUP4 GT PUSH2 0x165E JUMPI DUP3 SWAP1 SUB PUSH1 0x1F AND DUP3 ADD SWAP2 JUMPDEST POP POP POP POP POP DUP5 DUP3 DUP2 MLOAD DUP2 LT PUSH2 0x1693 JUMPI PUSH2 0x1692 PUSH2 0x2E2D JUMP JUMPDEST JUMPDEST PUSH1 0x20 MUL PUSH1 0x20 ADD ADD DUP2 SWAP1 MSTORE POP DUP6 PUSH1 0x3 ADD PUSH1 0x0 DUP3 DUP2 MSTORE PUSH1 0x20 ADD SWAP1 DUP2 MSTORE PUSH1 0x20 ADD PUSH1 0x0 KECCAK256 PUSH1 0x1 ADD SLOAD DUP4 DUP3 DUP2 MLOAD DUP2 LT PUSH2 0x16CA JUMPI PUSH2 0x16C9 PUSH2 0x2E2D JUMP JUMPDEST JUMPDEST PUSH1 0x20 MUL PUSH1 0x20 ADD ADD DUP2 DUP2 MSTORE POP POP DUP6 PUSH1 0x3 ADD PUSH1 0x0 DUP3 DUP2 MSTORE PUSH1 0x20 ADD SWAP1 DUP2 MSTORE PUSH1 0x20 ADD PUSH1 0x0 KECCAK256 PUSH1 0x6 ADD PUSH1 0x0 SWAP1 SLOAD SWAP1 PUSH2 0x100 EXP SWAP1 DIV PUSH1 0xFF AND DUP3 DUP3 DUP2 MLOAD DUP2 LT PUSH2 0x170F JUMPI PUSH2 0x170E PUSH2 0x2E2D JUMP JUMPDEST JUMPDEST PUSH1 0x20 MUL PUSH1 0x20 ADD ADD SWAP1 PUSH1 0x1 DUP2 GT ISZERO PUSH2 0x1729 JUMPI PUSH2 0x1728 PUSH2 0x23D7 JUMP JUMPDEST JUMPDEST SWAP1 DUP2 PUSH1 0x1 DUP2 GT ISZERO PUSH2 0x173D JUMPI PUSH2 0x173C PUSH2 0x23D7 JUMP JUMPDEST JUMPDEST DUP2 MSTORE POP POP DUP1 DUP1 PUSH1 0x1 ADD SWAP2 POP POP PUSH2 0x15D7 JUMP JUMPDEST POP DUP3 DUP3 DUP3 SWAP8 POP SWAP8 POP SWAP8 POP POP POP POP POP POP SWAP2 SWAP4 SWAP1 SWAP3 POP JUMP JUMPDEST PUSH1 0x60 DUP1 PUSH1 0x0 PUSH1 0x1 PUSH1 0x0 CALLER PUSH20 0xFFFFFFFFFFFFFFFFFFFFFFFFFFFFFFFFFFFFFFFF AND PUSH20 0xFFFFFFFFFFFFFFFFFFFFFFFFFFFFFFFFFFFFFFFF AND DUP2 MSTORE PUSH1 0x20 ADD SWAP1 DUP2 MSTORE PUSH1 0x20 ADD PUSH1 0x0 KECCAK256 SWAP1 POP PUSH1 0x0 DUP2 PUSH1 0x6 ADD SLOAD SWAP1 POP PUSH1 0x0 DUP2 PUSH8 0xFFFFFFFFFFFFFFFF DUP2 GT ISZERO PUSH2 0x17CF JUMPI PUSH2 0x17CE PUSH2 0x1CAC JUMP JUMPDEST JUMPDEST PUSH1 0x40 MLOAD SWAP1 DUP1 DUP3 MSTORE DUP1 PUSH1 0x20 MUL PUSH1 0x20 ADD DUP3 ADD PUSH1 0x40 MSTORE DUP1 ISZERO PUSH2 0x1802 JUMPI DUP2 PUSH1 0x20 ADD JUMPDEST PUSH1 0x60 DUP2 MSTORE PUSH1 0x20 ADD SWAP1 PUSH1 0x1 SWAP1 SUB SWAP1 DUP2 PUSH2 0x17ED JUMPI SWAP1 POP JUMPDEST POP SWAP1 POP PUSH1 0x0 DUP3 PUSH8 0xFFFFFFFFFFFFFFFF DUP2 GT ISZERO PUSH2 0x1821 JUMPI PUSH2 0x1820 PUSH2 0x1CAC JUMP JUMPDEST JUMPDEST PUSH1 0x40 MLOAD SWAP1 DUP1 DUP3 MSTORE DUP1 PUSH1 0x20 MUL PUSH1 0x20 ADD DUP3 ADD PUSH1 0x40 MSTORE DUP1 ISZERO PUSH2 0x184F JUMPI DUP2 PUSH1 0x20 ADD PUSH1 0x20 DUP3 MUL DUP1 CALLDATASIZE DUP4 CALLDATACOPY DUP1 DUP3 ADD SWAP2 POP POP SWAP1 POP JUMPDEST POP SWAP1 POP PUSH1 0x0 DUP1 JUMPDEST DUP6 PUSH1 0x5 ADD SLOAD DUP2 LT ISZERO PUSH2 0x1A43 JUMPI PUSH1 0x0 DUP7 PUSH1 0x1 ADD PUSH1 0x0 DUP4 DUP2 MSTORE PUSH1 0x20 ADD SWAP1 DUP2 MSTORE PUSH1 0x20 ADD PUSH1 0x0 KECCAK256 PUSH1 0x0 SWAP1 SLOAD SWAP1 PUSH2 0x100 EXP SWAP1 DIV PUSH20 0xFFFFFFFFFFFFFFFFFFFFFFFFFFFFFFFFFFFFFFFF AND SWAP1 POP DUP7 PUSH1 0x2 ADD PUSH1 0x0 DUP3 PUSH20 0xFFFFFFFFFFFFFFFFFFFFFFFFFFFFFFFFFFFFFFFF AND PUSH20 0xFFFFFFFFFFFFFFFFFFFFFFFFFFFFFFFFFFFFFFFF AND DUP2 MSTORE PUSH1 0x20 ADD SWAP1 DUP2 MSTORE PUSH1 0x20 ADD PUSH1 0x0 KECCAK256 PUSH1 0x0 SWAP1 SLOAD SWAP1 PUSH2 0x100 EXP SWAP1 DIV PUSH1 0xFF AND ISZERO PUSH2 0x1A35 JUMPI PUSH1 0x0 DUP1 DUP3 PUSH20 0xFFFFFFFFFFFFFFFFFFFFFFFFFFFFFFFFFFFFFFFF AND PUSH20 0xFFFFFFFFFFFFFFFFFFFFFFFFFFFFFFFFFFFFFFFF AND DUP2 MSTORE PUSH1 0x20 ADD SWAP1 DUP2 MSTORE PUSH1 0x20 ADD PUSH1 0x0 KECCAK256 PUSH1 0x0 ADD DUP1 SLOAD PUSH2 0x193C SWAP1 PUSH2 0x28AF JUMP JUMPDEST DUP1 PUSH1 0x1F ADD PUSH1 0x20 DUP1 SWAP2 DIV MUL PUSH1 0x20 ADD PUSH1 0x40 MLOAD SWAP1 DUP2 ADD PUSH1 0x40 MSTORE DUP1 SWAP3 SWAP2 SWAP1 DUP2 DUP2 MSTORE PUSH1 0x20 ADD DUP3 DUP1 SLOAD PUSH2 0x1968 SWAP1 PUSH2 0x28AF JUMP JUMPDEST DUP1 ISZERO PUSH2 0x19B5 JUMPI DUP1 PUSH1 0x1F LT PUSH2 0x198A JUMPI PUSH2 0x100 DUP1 DUP4 SLOAD DIV MUL DUP4 MSTORE SWAP2 PUSH1 0x20 ADD SWAP2 PUSH2 0x19B5 JUMP JUMPDEST DUP3 ADD SWAP2 SWAP1 PUSH1 0x0 MSTORE PUSH1 0x20 PUSH1 0x0 KECCAK256 SWAP1 JUMPDEST DUP2 SLOAD DUP2 MSTORE SWAP1 PUSH1 0x1 ADD SWAP1 PUSH1 0x20 ADD DUP1 DUP4 GT PUSH2 0x1998 JUMPI DUP3 SWAP1 SUB PUSH1 0x1F AND DUP3 ADD SWAP2 JUMPDEST POP POP POP POP POP DUP6 DUP5 DUP2 MLOAD DUP2 LT PUSH2 0x19CD JUMPI PUSH2 0x19CC PUSH2 0x2E2D JUMP JUMPDEST JUMPDEST PUSH1 0x20 MUL PUSH1 0x20 ADD ADD DUP2 SWAP1 MSTORE POP DUP1 DUP5 DUP5 DUP2 MLOAD DUP2 LT PUSH2 0x19EC JUMPI PUSH2 0x19EB PUSH2 0x2E2D JUMP JUMPDEST JUMPDEST PUSH1 0x20 MUL PUSH1 0x20 ADD ADD SWAP1 PUSH20 0xFFFFFFFFFFFFFFFFFFFFFFFFFFFFFFFFFFFFFFFF AND SWAP1 DUP2 PUSH20 0xFFFFFFFFFFFFFFFFFFFFFFFFFFFFFFFFFFFFFFFF AND DUP2 MSTORE POP POP DUP3 DUP1 PUSH2 0x1A31 SWAP1 PUSH2 0x270E JUMP JUMPDEST SWAP4 POP POP JUMPDEST POP DUP1 DUP1 PUSH1 0x1 ADD SWAP2 POP POP PUSH2 0x1856 JUMP JUMPDEST POP DUP3 DUP3 SWAP7 POP SWAP7 POP POP POP POP POP POP SWAP1 SWAP2 JUMP JUMPDEST PUSH1 0x0 PUSH1 0x20 MSTORE DUP1 PUSH1 0x0 MSTORE PUSH1 0x40 PUSH1 0x0 KECCAK256 PUSH1 0x0 SWAP2 POP SWAP1 POP DUP1 PUSH1 0x0 ADD DUP1 SLOAD PUSH2 0x1A76 SWAP1 PUSH2 0x28AF JUMP JUMPDEST DUP1 PUSH1 0x1F ADD PUSH1 0x20 DUP1 SWAP2 DIV MUL PUSH1 0x20 ADD PUSH1 0x40 MLOAD SWAP1 DUP2 ADD PUSH1 0x40 MSTORE DUP1 SWAP3 SWAP2 SWAP1 DUP2 DUP2 MSTORE PUSH1 0x20 ADD DUP3 DUP1 SLOAD PUSH2 0x1AA2 SWAP1 PUSH2 0x28AF JUMP JUMPDEST DUP1 ISZERO PUSH2 0x1AEF JUMPI DUP1 PUSH1 0x1F LT PUSH2 0x1AC4 JUMPI PUSH2 0x100 DUP1 DUP4 SLOAD DIV MUL DUP4 MSTORE SWAP2 PUSH1 0x20 ADD SWAP2 PUSH2 0x1AEF JUMP JUMPDEST DUP3 ADD SWAP2 SWAP1 PUSH1 0x0 MSTORE PUSH1 0x20 PUSH1 0x0 KECCAK256 SWAP1 JUMPDEST DUP2 SLOAD DUP2 MSTORE SWAP1 PUSH1 0x1 ADD SWAP1 PUSH1 0x20 ADD DUP1 DUP4 GT PUSH2 0x1AD2 JUMPI DUP3 SWAP1 SUB PUSH1 0x1F AND DUP3 ADD SWAP2 JUMPDEST POP POP POP POP POP SWAP1 DUP1 PUSH1 0x1 ADD PUSH1 0x0 SWAP1 SLOAD SWAP1 PUSH2 0x100 EXP SWAP1 DIV PUSH20 0xFFFFFFFFFFFFFFFFFFFFFFFFFFFFFFFFFFFFFFFF AND SWAP1 POP DUP3 JUMP JUMPDEST PUSH1 0x60 PUSH1 0x0 DUP1 DUP4 PUSH20 0xFFFFFFFFFFFFFFFFFFFFFFFFFFFFFFFFFFFFFFFF AND PUSH20 0xFFFFFFFFFFFFFFFFFFFFFFFFFFFFFFFFFFFFFFFF AND DUP2 MSTORE PUSH1 0x20 ADD SWAP1 DUP2 MSTORE PUSH1 0x20 ADD PUSH1 0x0 KECCAK256 PUSH1 0x0 ADD DUP1 SLOAD PUSH2 0x1B6D SWAP1 PUSH2 0x28AF JUMP JUMPDEST DUP1 PUSH1 0x1F ADD PUSH1 0x20 DUP1 SWAP2 DIV MUL PUSH1 0x20 ADD PUSH1 0x40 MLOAD SWAP1 DUP2 ADD PUSH1 0x40 MSTORE DUP1 SWAP3 SWAP2 SWAP1 DUP2 DUP2 MSTORE PUSH1 0x20 ADD DUP3 DUP1 SLOAD PUSH2 0x1B99 SWAP1 PUSH2 0x28AF JUMP JUMPDEST DUP1 ISZERO PUSH2 0x1BE6 JUMPI DUP1 PUSH1 0x1F LT PUSH2 0x1BBB JUMPI PUSH2 0x100 DUP1 DUP4 SLOAD DIV MUL DUP4 MSTORE SWAP2 PUSH1 0x20 ADD SWAP2 PUSH2 0x1BE6 JUMP JUMPDEST DUP3 ADD SWAP2 SWAP1 PUSH1 0x0 MSTORE PUSH1 0x20 PUSH1 0x0 KECCAK256 SWAP1 JUMPDEST DUP2 SLOAD DUP2 MSTORE SWAP1 PUSH1 0x1 ADD SWAP1 PUSH1 0x20 ADD DUP1 DUP4 GT PUSH2 0x1BC9 JUMPI DUP3 SWAP1 SUB PUSH1 0x1F AND DUP3 ADD SWAP2 JUMPDEST POP POP POP POP POP SWAP1 POP SWAP2 SWAP1 POP JUMP JUMPDEST PUSH1 0x0 PUSH1 0x40 MLOAD SWAP1 POP SWAP1 JUMP JUMPDEST PUSH1 0x0 DUP1 REVERT JUMPDEST PUSH1 0x0 DUP1 REVERT JUMPDEST PUSH1 0x0 PUSH20 0xFFFFFFFFFFFFFFFFFFFFFFFFFFFFFFFFFFFFFFFF DUP3 AND SWAP1 POP SWAP2 SWAP1 POP JUMP JUMPDEST PUSH1 0x0 PUSH2 0x1C31 DUP3 PUSH2 0x1C06 JUMP JUMPDEST SWAP1 POP SWAP2 SWAP1 POP JUMP JUMPDEST PUSH2 0x1C41 DUP2 PUSH2 0x1C26 JUMP JUMPDEST DUP2 EQ PUSH2 0x1C4C JUMPI PUSH1 0x0 DUP1 REVERT JUMPDEST POP JUMP JUMPDEST PUSH1 0x0 DUP2 CALLDATALOAD SWAP1 POP PUSH2 0x1C5E DUP2 PUSH2 0x1C38 JUMP JUMPDEST SWAP3 SWAP2 POP POP JUMP JUMPDEST PUSH1 0x0 PUSH1 0x20 DUP3 DUP5 SUB SLT ISZERO PUSH2 0x1C7A JUMPI PUSH2 0x1C79 PUSH2 0x1BFC JUMP JUMPDEST JUMPDEST PUSH1 0x0 PUSH2 0x1C88 DUP5 DUP3 DUP6 ADD PUSH2 0x1C4F JUMP JUMPDEST SWAP2 POP POP SWAP3 SWAP2 POP POP JUMP JUMPDEST PUSH1 0x0 DUP1 REVERT JUMPDEST PUSH1 0x0 DUP1 REVERT JUMPDEST PUSH1 0x0 PUSH1 0x1F NOT PUSH1 0x1F DUP4 ADD AND SWAP1 POP SWAP2 SWAP1 POP JUMP JUMPDEST PUSH32 0x4E487B7100000000000000000000000000000000000000000000000000000000 PUSH1 0x0 MSTORE PUSH1 0x41 PUSH1 0x4 MSTORE PUSH1 0x24 PUSH1 0x0 REVERT JUMPDEST PUSH2 0x1CE4 DUP3 PUSH2 0x1C9B JUMP JUMPDEST DUP2 ADD DUP2 DUP2 LT PUSH8 0xFFFFFFFFFFFFFFFF DUP3 GT OR ISZERO PUSH2 0x1D03 JUMPI PUSH2 0x1D02 PUSH2 0x1CAC JUMP JUMPDEST JUMPDEST DUP1 PUSH1 0x40 MSTORE POP POP POP JUMP JUMPDEST PUSH1 0x0 PUSH2 0x1D16 PUSH2 0x1BF2 JUMP JUMPDEST SWAP1 POP PUSH2 0x1D22 DUP3 DUP3 PUSH2 0x1CDB JUMP JUMPDEST SWAP2 SWAP1 POP JUMP JUMPDEST PUSH1 0x0 PUSH8 0xFFFFFFFFFFFFFFFF DUP3 GT ISZERO PUSH2 0x1D42 JUMPI PUSH2 0x1D41 PUSH2 0x1CAC JUMP JUMPDEST JUMPDEST PUSH2 0x1D4B DUP3 PUSH2 0x1C9B JUMP JUMPDEST SWAP1 POP PUSH1 0x20 DUP2 ADD SWAP1 POP SWAP2 SWAP1 POP JUMP JUMPDEST DUP3 DUP2 DUP4 CALLDATACOPY PUSH1 0x0 DUP4 DUP4 ADD MSTORE POP POP POP JUMP JUMPDEST PUSH1 0x0 PUSH2 0x1D7A PUSH2 0x1D75 DUP5 PUSH2 0x1D27 JUMP JUMPDEST PUSH2 0x1D0C JUMP JUMPDEST SWAP1 POP DUP3 DUP2 MSTORE PUSH1 0x20 DUP2 ADD DUP5 DUP5 DUP5 ADD GT ISZERO PUSH2 0x1D96 JUMPI PUSH2 0x1D95 PUSH2 0x1C96 JUMP JUMPDEST JUMPDEST PUSH2 0x1DA1 DUP5 DUP3 DUP6 PUSH2 0x1D58 JUMP JUMPDEST POP SWAP4 SWAP3 POP POP POP JUMP JUMPDEST PUSH1 0x0 DUP3 PUSH1 0x1F DUP4 ADD SLT PUSH2 0x1DBE JUMPI PUSH2 0x1DBD PUSH2 0x1C91 JUMP JUMPDEST JUMPDEST DUP2 CALLDATALOAD PUSH2 0x1DCE DUP5 DUP3 PUSH1 0x20 DUP7 ADD PUSH2 0x1D67 JUMP JUMPDEST SWAP2 POP POP SWAP3 SWAP2 POP POP JUMP JUMPDEST PUSH1 0x0 DUP1 PUSH1 0x40 DUP4 DUP6 SUB SLT ISZERO PUSH2 0x1DEE JUMPI PUSH2 0x1DED PUSH2 0x1BFC JUMP JUMPDEST JUMPDEST PUSH1 0x0 DUP4 ADD CALLDATALOAD PUSH8 0xFFFFFFFFFFFFFFFF DUP2 GT ISZERO PUSH2 0x1E0C JUMPI PUSH2 0x1E0B PUSH2 0x1C01 JUMP JUMPDEST JUMPDEST PUSH2 0x1E18 DUP6 DUP3 DUP7 ADD PUSH2 0x1DA9 JUMP JUMPDEST SWAP3 POP POP PUSH1 0x20 DUP4 ADD CALLDATALOAD PUSH8 0xFFFFFFFFFFFFFFFF DUP2 GT ISZERO PUSH2 0x1E39 JUMPI PUSH2 0x1E38 PUSH2 0x1C01 JUMP JUMPDEST JUMPDEST PUSH2 0x1E45 DUP6 DUP3 DUP7 ADD PUSH2 0x1DA9 JUMP JUMPDEST SWAP2 POP POP SWAP3 POP SWAP3 SWAP1 POP JUMP JUMPDEST PUSH1 0x0 DUP2 SWAP1 POP SWAP2 SWAP1 POP JUMP JUMPDEST PUSH2 0x1E62 DUP2 PUSH2 0x1E4F JUMP JUMPDEST DUP2 EQ PUSH2 0x1E6D JUMPI PUSH1 0x0 DUP1 REVERT JUMPDEST POP JUMP JUMPDEST PUSH1 0x0 DUP2 CALLDATALOAD SWAP1 POP PUSH2 0x1E7F DUP2 PUSH2 0x1E59 JUMP JUMPDEST SWAP3 SWAP2 POP POP JUMP JUMPDEST PUSH1 0x0 DUP1 PUSH1 0x0 PUSH1 0x60 DUP5 DUP7 SUB SLT ISZERO PUSH2 0x1E9E JUMPI PUSH2 0x1E9D PUSH2 0x1BFC JUMP JUMPDEST JUMPDEST PUSH1 0x0 PUSH2 0x1EAC DUP7 DUP3 DUP8 ADD PUSH2 0x1C4F JUMP JUMPDEST SWAP4 POP POP PUSH1 0x20 PUSH2 0x1EBD DUP7 DUP3 DUP8 ADD PUSH2 0x1E70 JUMP JUMPDEST SWAP3 POP POP PUSH1 0x40 PUSH2 0x1ECE DUP7 DUP3 DUP8 ADD PUSH2 0x1E70 JUMP JUMPDEST SWAP2 POP POP SWAP3 POP SWAP3 POP SWAP3 JUMP JUMPDEST PUSH1 0x0 DUP2 ISZERO ISZERO SWAP1 POP SWAP2 SWAP1 POP JUMP JUMPDEST PUSH2 0x1EED DUP2 PUSH2 0x1ED8 JUMP JUMPDEST DUP3 MSTORE POP POP JUMP JUMPDEST PUSH1 0x0 PUSH1 0x20 DUP3 ADD SWAP1 POP PUSH2 0x1F08 PUSH1 0x0 DUP4 ADD DUP5 PUSH2 0x1EE4 JUMP JUMPDEST SWAP3 SWAP2 POP POP JUMP JUMPDEST PUSH1 0x0 DUP2 MLOAD SWAP1 POP SWAP2 SWAP1 POP JUMP JUMPDEST PUSH1 0x0 DUP3 DUP3 MSTORE PUSH1 0x20 DUP3 ADD SWAP1 POP SWAP3 SWAP2 POP POP JUMP JUMPDEST PUSH1 0x0 JUMPDEST DUP4 DUP2 LT ISZERO PUSH2 0x1F48 JUMPI DUP1 DUP3 ADD MLOAD DUP2 DUP5 ADD MSTORE PUSH1 0x20 DUP2 ADD SWAP1 POP PUSH2 0x1F2D JUMP JUMPDEST PUSH1 0x0 DUP5 DUP5 ADD MSTORE POP POP POP POP JUMP JUMPDEST PUSH1 0x0 PUSH2 0x1F5F DUP3 PUSH2 0x1F0E JUMP JUMPDEST PUSH2 0x1F69 DUP2 DUP6 PUSH2 0x1F19 JUMP JUMPDEST SWAP4 POP PUSH2 0x1F79 DUP2 DUP6 PUSH1 0x20 DUP7 ADD PUSH2 0x1F2A JUMP JUMPDEST PUSH2 0x1F82 DUP2 PUSH2 0x1C9B JUMP JUMPDEST DUP5 ADD SWAP2 POP POP SWAP3 SWAP2 POP POP JUMP JUMPDEST PUSH2 0x1F96 DUP2 PUSH2 0x1E4F JUMP JUMPDEST DUP3 MSTORE POP POP JUMP JUMPDEST PUSH1 0x0 PUSH1 0x80 DUP3 ADD SWAP1 POP DUP2 DUP2 SUB PUSH1 0x0 DUP4 ADD MSTORE PUSH2 0x1FB6 DUP2 DUP8 PUSH2 0x1F54 JUMP JUMPDEST SWAP1 POP PUSH2 0x1FC5 PUSH1 0x20 DUP4 ADD DUP7 PUSH2 0x1F8D JUMP JUMPDEST PUSH2 0x1FD2 PUSH1 0x40 DUP4 ADD DUP6 PUSH2 0x1F8D JUMP JUMPDEST PUSH2 0x1FDF PUSH1 0x60 DUP4 ADD DUP5 PUSH2 0x1F8D JUMP JUMPDEST SWAP6 SWAP5 POP POP POP POP POP JUMP JUMPDEST PUSH1 0x0 PUSH1 0x40 DUP3 ADD SWAP1 POP DUP2 DUP2 SUB PUSH1 0x0 DUP4 ADD MSTORE PUSH2 0x2002 DUP2 DUP6 PUSH2 0x1F54 JUMP JUMPDEST SWAP1 POP DUP2 DUP2 SUB PUSH1 0x20 DUP4 ADD MSTORE PUSH2 0x2016 DUP2 DUP5 PUSH2 0x1F54 JUMP JUMPDEST SWAP1 POP SWAP4 SWAP3 POP POP POP JUMP JUMPDEST PUSH1 0x0 PUSH1 0x20 DUP3 DUP5 SUB SLT ISZERO PUSH2 0x2035 JUMPI PUSH2 0x2034 PUSH2 0x1BFC JUMP JUMPDEST JUMPDEST PUSH1 0x0 PUSH2 0x2043 DUP5 DUP3 DUP6 ADD PUSH2 0x1E70 JUMP JUMPDEST SWAP2 POP POP SWAP3 SWAP2 POP POP JUMP JUMPDEST PUSH1 0x0 DUP2 MLOAD SWAP1 POP SWAP2 SWAP1 POP JUMP JUMPDEST PUSH1 0x0 DUP3 DUP3 MSTORE PUSH1 0x20 DUP3 ADD SWAP1 POP SWAP3 SWAP2 POP POP JUMP JUMPDEST PUSH1 0x0 DUP2 SWAP1 POP PUSH1 0x20 DUP3 ADD SWAP1 POP SWAP2 SWAP1 POP JUMP JUMPDEST PUSH1 0x0 DUP3 DUP3 MSTORE PUSH1 0x20 DUP3 ADD SWAP1 POP SWAP3 SWAP2 POP POP JUMP JUMPDEST PUSH1 0x0 PUSH2 0x2094 DUP3 PUSH2 0x1F0E JUMP JUMPDEST PUSH2 0x209E DUP2 DUP6 PUSH2 0x2078 JUMP JUMPDEST SWAP4 POP PUSH2 0x20AE DUP2 DUP6 PUSH1 0x20 DUP7 ADD PUSH2 0x1F2A JUMP JUMPDEST PUSH2 0x20B7 DUP2 PUSH2 0x1C9B JUMP JUMPDEST DUP5 ADD SWAP2 POP POP SWAP3 SWAP2 POP POP JUMP JUMPDEST PUSH1 0x0 PUSH2 0x20CE DUP4 DUP4 PUSH2 0x2089 JUMP JUMPDEST SWAP1 POP SWAP3 SWAP2 POP POP JUMP JUMPDEST PUSH1 0x0 PUSH1 0x20 DUP3 ADD SWAP1 POP SWAP2 SWAP1 POP JUMP JUMPDEST PUSH1 0x0 PUSH2 0x20EE DUP3 PUSH2 0x204C JUMP JUMPDEST PUSH2 0x20F8 DUP2 DUP6 PUSH2 0x2057 JUMP JUMPDEST SWAP4 POP DUP4 PUSH1 0x20 DUP3 MUL DUP6 ADD PUSH2 0x210A DUP6 PUSH2 0x2068 JUMP JUMPDEST DUP1 PUSH1 0x0 JUMPDEST DUP6 DUP2 LT ISZERO PUSH2 0x2146 JUMPI DUP5 DUP5 SUB DUP10 MSTORE DUP2 MLOAD PUSH2 0x2127 DUP6 DUP3 PUSH2 0x20C2 JUMP JUMPDEST SWAP5 POP PUSH2 0x2132 DUP4 PUSH2 0x20D6 JUMP JUMPDEST SWAP3 POP PUSH1 0x20 DUP11 ADD SWAP10 POP POP PUSH1 0x1 DUP2 ADD SWAP1 POP PUSH2 0x210E JUMP JUMPDEST POP DUP3 SWAP8 POP DUP8 SWAP6 POP POP POP POP POP POP SWAP3 SWAP2 POP POP JUMP JUMPDEST PUSH1 0x0 DUP2 MLOAD SWAP1 POP SWAP2 SWAP1 POP JUMP JUMPDEST PUSH1 0x0 DUP3 DUP3 MSTORE PUSH1 0x20 DUP3 ADD SWAP1 POP SWAP3 SWAP2 POP POP JUMP JUMPDEST PUSH1 0x0 DUP2 SWAP1 POP PUSH1 0x20 DUP3 ADD SWAP1 POP SWAP2 SWAP1 POP JUMP JUMPDEST PUSH2 0x218D DUP2 PUSH2 0x1E4F JUMP JUMPDEST DUP3 MSTORE POP POP JUMP JUMPDEST PUSH1 0x0 PUSH2 0x219F DUP4 DUP4 PUSH2 0x2184 JUMP JUMPDEST PUSH1 0x20 DUP4 ADD SWAP1 POP SWAP3 SWAP2 POP POP JUMP JUMPDEST PUSH1 0x0 PUSH1 0x20 DUP3 ADD SWAP1 POP SWAP2 SWAP1 POP JUMP JUMPDEST PUSH1 0x0 PUSH2 0x21C3 DUP3 PUSH2 0x2158 JUMP JUMPDEST PUSH2 0x21CD DUP2 DUP6 PUSH2 0x2163 JUMP JUMPDEST SWAP4 POP PUSH2 0x21D8 DUP4 PUSH2 0x2174 JUMP JUMPDEST DUP1 PUSH1 0x0 JUMPDEST DUP4 DUP2 LT ISZERO PUSH2 0x2209 JUMPI DUP2 MLOAD PUSH2 0x21F0 DUP9 DUP3 PUSH2 0x2193 JUMP JUMPDEST SWAP8 POP PUSH2 0x21FB DUP4 PUSH2 0x21AB JUMP JUMPDEST SWAP3 POP POP PUSH1 0x1 DUP2 ADD SWAP1 POP PUSH2 0x21DC JUMP JUMPDEST POP DUP6 SWAP4 POP POP POP POP SWAP3 SWAP2 POP POP JUMP JUMPDEST PUSH1 0x0 PUSH1 0x40 DUP3 ADD SWAP1 POP DUP2 DUP2 SUB PUSH1 0x0 DUP4 ADD MSTORE PUSH2 0x2230 DUP2 DUP6 PUSH2 0x20E3 JUMP JUMPDEST SWAP1 POP DUP2 DUP2 SUB PUSH1 0x20 DUP4 ADD MSTORE PUSH2 0x2244 DUP2 DUP5 PUSH2 0x21B8 JUMP JUMPDEST SWAP1 POP SWAP4 SWAP3 POP POP POP JUMP JUMPDEST PUSH1 0x0 PUSH8 0xFFFFFFFFFFFFFFFF DUP3 GT ISZERO PUSH2 0x2268 JUMPI PUSH2 0x2267 PUSH2 0x1CAC JUMP JUMPDEST JUMPDEST PUSH1 0x20 DUP3 MUL SWAP1 POP PUSH1 0x20 DUP2 ADD SWAP1 POP SWAP2 SWAP1 POP JUMP JUMPDEST PUSH1 0x0 DUP1 REVERT JUMPDEST PUSH1 0x0 PUSH2 0x2291 PUSH2 0x228C DUP5 PUSH2 0x224D JUMP JUMPDEST PUSH2 0x1D0C JUMP JUMPDEST SWAP1 POP DUP1 DUP4 DUP3 MSTORE PUSH1 0x20 DUP3 ADD SWAP1 POP PUSH1 0x20 DUP5 MUL DUP4 ADD DUP6 DUP2 GT ISZERO PUSH2 0x22B4 JUMPI PUSH2 0x22B3 PUSH2 0x2279 JUMP JUMPDEST JUMPDEST DUP4 JUMPDEST DUP2 DUP2 LT ISZERO PUSH2 0x22FB JUMPI DUP1 CALLDATALOAD PUSH8 0xFFFFFFFFFFFFFFFF DUP2 GT ISZERO PUSH2 0x22D9 JUMPI PUSH2 0x22D8 PUSH2 0x1C91 JUMP JUMPDEST JUMPDEST DUP1 DUP7 ADD PUSH2 0x22E6 DUP10 DUP3 PUSH2 0x1DA9 JUMP JUMPDEST DUP6 MSTORE PUSH1 0x20 DUP6 ADD SWAP5 POP POP POP PUSH1 0x20 DUP2 ADD SWAP1 POP PUSH2 0x22B6 JUMP JUMPDEST POP POP POP SWAP4 SWAP3 POP POP POP JUMP JUMPDEST PUSH1 0x0 DUP3 PUSH1 0x1F DUP4 ADD SLT PUSH2 0x231A JUMPI PUSH2 0x2319 PUSH2 0x1C91 JUMP JUMPDEST JUMPDEST DUP2 CALLDATALOAD PUSH2 0x232A DUP5 DUP3 PUSH1 0x20 DUP7 ADD PUSH2 0x227E JUMP JUMPDEST SWAP2 POP POP SWAP3 SWAP2 POP POP JUMP JUMPDEST PUSH1 0x0 DUP1 PUSH1 0x40 DUP4 DUP6 SUB SLT ISZERO PUSH2 0x234A JUMPI PUSH2 0x2349 PUSH2 0x1BFC JUMP JUMPDEST JUMPDEST PUSH1 0x0 DUP4 ADD CALLDATALOAD PUSH8 0xFFFFFFFFFFFFFFFF DUP2 GT ISZERO PUSH2 0x2368 JUMPI PUSH2 0x2367 PUSH2 0x1C01 JUMP JUMPDEST JUMPDEST PUSH2 0x2374 DUP6 DUP3 DUP7 ADD PUSH2 0x1DA9 JUMP JUMPDEST SWAP3 POP POP PUSH1 0x20 DUP4 ADD CALLDATALOAD PUSH8 0xFFFFFFFFFFFFFFFF DUP2 GT ISZERO PUSH2 0x2395 JUMPI PUSH2 0x2394 PUSH2 0x1C01 JUMP JUMPDEST JUMPDEST PUSH2 0x23A1 DUP6 DUP3 DUP7 ADD PUSH2 0x2305 JUMP JUMPDEST SWAP2 POP POP SWAP3 POP SWAP3 SWAP1 POP JUMP JUMPDEST PUSH1 0x0 DUP2 MLOAD SWAP1 POP SWAP2 SWAP1 POP JUMP JUMPDEST PUSH1 0x0 DUP3 DUP3 MSTORE PUSH1 0x20 DUP3 ADD SWAP1 POP SWAP3 SWAP2 POP POP JUMP JUMPDEST PUSH1 0x0 DUP2 SWAP1 POP PUSH1 0x20 DUP3 ADD SWAP1 POP SWAP2 SWAP1 POP JUMP JUMPDEST PUSH32 0x4E487B7100000000000000000000000000000000000000000000000000000000 PUSH1 0x0 MSTORE PUSH1 0x21 PUSH1 0x4 MSTORE PUSH1 0x24 PUSH1 0x0 REVERT JUMPDEST PUSH1 0x2 DUP2 LT PUSH2 0x2417 JUMPI PUSH2 0x2416 PUSH2 0x23D7 JUMP JUMPDEST JUMPDEST POP JUMP JUMPDEST PUSH1 0x0 DUP2 SWAP1 POP PUSH2 0x2428 DUP3 PUSH2 0x2406 JUMP JUMPDEST SWAP2 SWAP1 POP JUMP JUMPDEST PUSH1 0x0 PUSH2 0x2438 DUP3 PUSH2 0x241A JUMP JUMPDEST SWAP1 POP SWAP2 SWAP1 POP JUMP JUMPDEST PUSH2 0x2448 DUP2 PUSH2 0x242D JUMP JUMPDEST DUP3 MSTORE POP POP JUMP JUMPDEST PUSH1 0x0 PUSH2 0x245A DUP4 DUP4 PUSH2 0x243F JUMP JUMPDEST PUSH1 0x20 DUP4 ADD SWAP1 POP SWAP3 SWAP2 POP POP JUMP JUMPDEST PUSH1 0x0 PUSH1 0x20 DUP3 ADD SWAP1 POP SWAP2 SWAP1 POP JUMP JUMPDEST PUSH1 0x0 PUSH2 0x247E DUP3 PUSH2 0x23AB JUMP JUMPDEST PUSH2 0x2488 DUP2 DUP6 PUSH2 0x23B6 JUMP JUMPDEST SWAP4 POP PUSH2 0x2493 DUP4 PUSH2 0x23C7 JUMP JUMPDEST DUP1 PUSH1 0x0 JUMPDEST DUP4 DUP2 LT ISZERO PUSH2 0x24C4 JUMPI DUP2 MLOAD PUSH2 0x24AB DUP9 DUP3 PUSH2 0x244E JUMP JUMPDEST SWAP8 POP PUSH2 0x24B6 DUP4 PUSH2 0x2466 JUMP JUMPDEST SWAP3 POP POP PUSH1 0x1 DUP2 ADD SWAP1 POP PUSH2 0x2497 JUMP JUMPDEST POP DUP6 SWAP4 POP POP POP POP SWAP3 SWAP2 POP POP JUMP JUMPDEST PUSH1 0x0 PUSH1 0x60 DUP3 ADD SWAP1 POP DUP2 DUP2 SUB PUSH1 0x0 DUP4 ADD MSTORE PUSH2 0x24EB DUP2 DUP7 PUSH2 0x20E3 JUMP JUMPDEST SWAP1 POP DUP2 DUP2 SUB PUSH1 0x20 DUP4 ADD MSTORE PUSH2 0x24FF DUP2 DUP6 PUSH2 0x21B8 JUMP JUMPDEST SWAP1 POP DUP2 DUP2 SUB PUSH1 0x40 DUP4 ADD MSTORE PUSH2 0x2513 DUP2 DUP5 PUSH2 0x2473 JUMP JUMPDEST SWAP1 POP SWAP5 SWAP4 POP POP POP POP JUMP JUMPDEST PUSH1 0x0 DUP2 MLOAD SWAP1 POP SWAP2 SWAP1 POP JUMP JUMPDEST PUSH1 0x0 DUP3 DUP3 MSTORE PUSH1 0x20 DUP3 ADD SWAP1 POP SWAP3 SWAP2 POP POP JUMP JUMPDEST PUSH1 0x0 DUP2 SWAP1 POP PUSH1 0x20 DUP3 ADD SWAP1 POP SWAP2 SWAP1 POP JUMP JUMPDEST PUSH2 0x2552 DUP2 PUSH2 0x1C26 JUMP JUMPDEST DUP3 MSTORE POP POP JUMP JUMPDEST PUSH1 0x0 PUSH2 0x2564 DUP4 DUP4 PUSH2 0x2549 JUMP JUMPDEST PUSH1 0x20 DUP4 ADD SWAP1 POP SWAP3 SWAP2 POP POP JUMP JUMPDEST PUSH1 0x0 PUSH1 0x20 DUP3 ADD SWAP1 POP SWAP2 SWAP1 POP JUMP JUMPDEST PUSH1 0x0 PUSH2 0x2588 DUP3 PUSH2 0x251D JUMP JUMPDEST PUSH2 0x2592 DUP2 DUP6 PUSH2 0x2528 JUMP JUMPDEST SWAP4 POP PUSH2 0x259D DUP4 PUSH2 0x2539 JUMP JUMPDEST DUP1 PUSH1 0x0 JUMPDEST DUP4 DUP2 LT ISZERO PUSH2 0x25CE JUMPI DUP2 MLOAD PUSH2 0x25B5 DUP9 DUP3 PUSH2 0x2558 JUMP JUMPDEST SWAP8 POP PUSH2 0x25C0 DUP4 PUSH2 0x2570 JUMP JUMPDEST SWAP3 POP POP PUSH1 0x1 DUP2 ADD SWAP1 POP PUSH2 0x25A1 JUMP JUMPDEST POP DUP6 SWAP4 POP POP POP POP SWAP3 SWAP2 POP POP JUMP JUMPDEST PUSH1 0x0 PUSH1 0x40 DUP3 ADD SWAP1 POP DUP2 DUP2 SUB PUSH1 0x0 DUP4 ADD MSTORE PUSH2 0x25F5 DUP2 DUP6 PUSH2 0x20E3 JUMP JUMPDEST SWAP1 POP DUP2 DUP2 SUB PUSH1 0x20 DUP4 ADD MSTORE PUSH2 0x2609 DUP2 DUP5 PUSH2 0x257D JUMP JUMPDEST SWAP1 POP SWAP4 SWAP3 POP POP POP JUMP JUMPDEST PUSH2 0x261B DUP2 PUSH2 0x1C26 JUMP JUMPDEST DUP3 MSTORE POP POP JUMP JUMPDEST PUSH1 0x0 PUSH1 0x40 DUP3 ADD SWAP1 POP DUP2 DUP2 SUB PUSH1 0x0 DUP4 ADD MSTORE PUSH2 0x263B DUP2 DUP6 PUSH2 0x1F54 JUMP JUMPDEST SWAP1 POP PUSH2 0x264A PUSH1 0x20 DUP4 ADD DUP5 PUSH2 0x2612 JUMP JUMPDEST SWAP4 SWAP3 POP POP POP JUMP JUMPDEST PUSH1 0x0 PUSH1 0x20 DUP3 ADD SWAP1 POP DUP2 DUP2 SUB PUSH1 0x0 DUP4 ADD MSTORE PUSH2 0x266B DUP2 DUP5 PUSH2 0x1F54 JUMP JUMPDEST SWAP1 POP SWAP3 SWAP2 POP POP JUMP JUMPDEST PUSH32 0x5573657220616C726561647920617070726F7665640000000000000000000000 PUSH1 0x0 DUP3 ADD MSTORE POP JUMP JUMPDEST PUSH1 0x0 PUSH2 0x26A9 PUSH1 0x15 DUP4 PUSH2 0x1F19 JUMP JUMPDEST SWAP2 POP PUSH2 0x26B4 DUP3 PUSH2 0x2673 JUMP JUMPDEST PUSH1 0x20 DUP3 ADD SWAP1 POP SWAP2 SWAP1 POP JUMP JUMPDEST PUSH1 0x0 PUSH1 0x20 DUP3 ADD SWAP1 POP DUP2 DUP2 SUB PUSH1 0x0 DUP4 ADD MSTORE PUSH2 0x26D8 DUP2 PUSH2 0x269C JUMP JUMPDEST SWAP1 POP SWAP2 SWAP1 POP JUMP JUMPDEST PUSH32 0x4E487B7100000000000000000000000000000000000000000000000000000000 PUSH1 0x0 MSTORE PUSH1 0x11 PUSH1 0x4 MSTORE PUSH1 0x24 PUSH1 0x0 REVERT JUMPDEST PUSH1 0x0 PUSH2 0x2719 DUP3 PUSH2 0x1E4F JUMP JUMPDEST SWAP2 POP PUSH32 0xFFFFFFFFFFFFFFFFFFFFFFFFFFFFFFFFFFFFFFFFFFFFFFFFFFFFFFFFFFFFFFFF DUP3 SUB PUSH2 0x274B JUMPI PUSH2 0x274A PUSH2 0x26DF JUMP JUMPDEST JUMPDEST PUSH1 0x1 DUP3 ADD SWAP1 POP SWAP2 SWAP1 POP JUMP JUMPDEST PUSH1 0x0 PUSH1 0x40 DUP3 ADD SWAP1 POP PUSH2 0x276B PUSH1 0x0 DUP4 ADD DUP6 PUSH2 0x2612 JUMP JUMPDEST PUSH2 0x2778 PUSH1 0x20 DUP4 ADD DUP5 PUSH2 0x2612 JUMP JUMPDEST SWAP4 SWAP3 POP POP POP JUMP JUMPDEST PUSH32 0x55736572206E6F742061206D656D626572000000000000000000000000000000 PUSH1 0x0 DUP3 ADD MSTORE POP JUMP JUMPDEST PUSH1 0x0 PUSH2 0x27B5 PUSH1 0x11 DUP4 PUSH2 0x1F19 JUMP JUMPDEST SWAP2 POP PUSH2 0x27C0 DUP3 PUSH2 0x277F JUMP JUMPDEST PUSH1 0x20 DUP3 ADD SWAP1 POP SWAP2 SWAP1 POP JUMP JUMPDEST PUSH1 0x0 PUSH1 0x20 DUP3 ADD SWAP1 POP DUP2 DUP2 SUB PUSH1 0x0 DUP4 ADD MSTORE PUSH2 0x27E4 DUP2 PUSH2 0x27A8 JUMP JUMPDEST SWAP1 POP SWAP2 SWAP1 POP JUMP JUMPDEST PUSH1 0x0 PUSH2 0x27F6 DUP3 PUSH2 0x1E4F JUMP JUMPDEST SWAP2 POP PUSH1 0x0 DUP3 SUB PUSH2 0x2809 JUMPI PUSH2 0x2808 PUSH2 0x26DF JUMP JUMPDEST JUMPDEST PUSH1 0x1 DUP3 SUB SWAP1 POP SWAP2 SWAP1 POP JUMP JUMPDEST PUSH32 0x416C72656164792061206D656D62657200000000000000000000000000000000 PUSH1 0x0 DUP3 ADD MSTORE POP JUMP JUMPDEST PUSH1 0x0 PUSH2 0x284A PUSH1 0x10 DUP4 PUSH2 0x1F19 JUMP JUMPDEST SWAP2 POP PUSH2 0x2855 DUP3 PUSH2 0x2814 JUMP JUMPDEST PUSH1 0x20 DUP3 ADD SWAP1 POP SWAP2 SWAP1 POP JUMP JUMPDEST PUSH1 0x0 PUSH1 0x20 DUP3 ADD SWAP1 POP DUP2 DUP2 SUB PUSH1 0x0 DUP4 ADD MSTORE PUSH2 0x2879 DUP2 PUSH2 0x283D JUMP JUMPDEST SWAP1 POP SWAP2 SWAP1 POP JUMP JUMPDEST PUSH32 0x4E487B7100000000000000000000000000000000000000000000000000000000 PUSH1 0x0 MSTORE PUSH1 0x22 PUSH1 0x4 MSTORE PUSH1 0x24 PUSH1 0x0 REVERT JUMPDEST PUSH1 0x0 PUSH1 0x2 DUP3 DIV SWAP1 POP PUSH1 0x1 DUP3 AND DUP1 PUSH2 0x28C7 JUMPI PUSH1 0x7F DUP3 AND SWAP2 POP JUMPDEST PUSH1 0x20 DUP3 LT DUP2 SUB PUSH2 0x28DA JUMPI PUSH2 0x28D9 PUSH2 0x2880 JUMP JUMPDEST JUMPDEST POP SWAP2 SWAP1 POP JUMP JUMPDEST PUSH1 0x0 DUP2 SWAP1 POP DUP2 PUSH1 0x0 MSTORE PUSH1 0x20 PUSH1 0x0 KECCAK256 SWAP1 POP SWAP2 SWAP1 POP JUMP JUMPDEST PUSH1 0x0 PUSH1 0x20 PUSH1 0x1F DUP4 ADD DIV SWAP1 POP SWAP2 SWAP1 POP JUMP JUMPDEST PUSH1 0x0 DUP3 DUP3 SHL SWAP1 POP SWAP3 SWAP2 POP POP JUMP JUMPDEST PUSH1 0x0 PUSH1 0x8 DUP4 MUL PUSH2 0x2942 PUSH32 0xFFFFFFFFFFFFFFFFFFFFFFFFFFFFFFFFFFFFFFFFFFFFFFFFFFFFFFFFFFFFFFFF DUP3 PUSH2 0x2905 JUMP JUMPDEST PUSH2 0x294C DUP7 DUP4 PUSH2 0x2905 JUMP JUMPDEST SWAP6 POP DUP1 NOT DUP5 AND SWAP4 POP DUP1 DUP7 AND DUP5 OR SWAP3 POP POP POP SWAP4 SWAP3 POP POP POP JUMP JUMPDEST PUSH1 0x0 DUP2 SWAP1 POP SWAP2 SWAP1 POP JUMP JUMPDEST PUSH1 0x0 PUSH2 0x2989 PUSH2 0x2984 PUSH2 0x297F DUP5 PUSH2 0x1E4F JUMP JUMPDEST PUSH2 0x2964 JUMP JUMPDEST PUSH2 0x1E4F JUMP JUMPDEST SWAP1 POP SWAP2 SWAP1 POP JUMP JUMPDEST PUSH1 0x0 DUP2 SWAP1 POP SWAP2 SWAP1 POP JUMP JUMPDEST PUSH2 0x29A3 DUP4 PUSH2 0x296E JUMP JUMPDEST PUSH2 0x29B7 PUSH2 0x29AF DUP3 PUSH2 0x2990 JUMP JUMPDEST DUP5 DUP5 SLOAD PUSH2 0x2912 JUMP JUMPDEST DUP3 SSTORE POP POP POP POP JUMP JUMPDEST PUSH1 0x0 SWAP1 JUMP JUMPDEST PUSH2 0x29CC PUSH2 0x29BF JUMP JUMPDEST PUSH2 0x29D7 DUP2 DUP5 DUP5 PUSH2 0x299A JUMP JUMPDEST POP POP POP JUMP JUMPDEST JUMPDEST DUP2 DUP2 LT ISZERO PUSH2 0x29FB JUMPI PUSH2 0x29F0 PUSH1 0x0 DUP3 PUSH2 0x29C4 JUMP JUMPDEST PUSH1 0x1 DUP2 ADD SWAP1 POP PUSH2 0x29DD JUMP JUMPDEST POP POP JUMP JUMPDEST PUSH1 0x1F DUP3 GT ISZERO PUSH2 0x2A40 JUMPI PUSH2 0x2A11 DUP2 PUSH2 0x28E0 JUMP JUMPDEST PUSH2 0x2A1A DUP5 PUSH2 0x28F5 JUMP JUMPDEST DUP2 ADD PUSH1 0x20 DUP6 LT ISZERO PUSH2 0x2A29 JUMPI DUP2 SWAP1 POP JUMPDEST PUSH2 0x2A3D PUSH2 0x2A35 DUP6 PUSH2 0x28F5 JUMP JUMPDEST DUP4 ADD DUP3 PUSH2 0x29DC JUMP JUMPDEST POP POP JUMPDEST POP POP POP JUMP JUMPDEST PUSH1 0x0 DUP3 DUP3 SHR SWAP1 POP SWAP3 SWAP2 POP POP JUMP JUMPDEST PUSH1 0x0 PUSH2 0x2A63 PUSH1 0x0 NOT DUP5 PUSH1 0x8 MUL PUSH2 0x2A45 JUMP JUMPDEST NOT DUP1 DUP4 AND SWAP2 POP POP SWAP3 SWAP2 POP POP JUMP JUMPDEST PUSH1 0x0 PUSH2 0x2A7C DUP4 DUP4 PUSH2 0x2A52 JUMP JUMPDEST SWAP2 POP DUP3 PUSH1 0x2 MUL DUP3 OR SWAP1 POP SWAP3 SWAP2 POP POP JUMP JUMPDEST PUSH2 0x2A95 DUP3 PUSH2 0x1F0E JUMP JUMPDEST PUSH8 0xFFFFFFFFFFFFFFFF DUP2 GT ISZERO PUSH2 0x2AAE JUMPI PUSH2 0x2AAD PUSH2 0x1CAC JUMP JUMPDEST JUMPDEST PUSH2 0x2AB8 DUP3 SLOAD PUSH2 0x28AF JUMP JUMPDEST PUSH2 0x2AC3 DUP3 DUP3 DUP6 PUSH2 0x29FF JUMP JUMPDEST PUSH1 0x0 PUSH1 0x20 SWAP1 POP PUSH1 0x1F DUP4 GT PUSH1 0x1 DUP2 EQ PUSH2 0x2AF6 JUMPI PUSH1 0x0 DUP5 ISZERO PUSH2 0x2AE4 JUMPI DUP3 DUP8 ADD MLOAD SWAP1 POP JUMPDEST PUSH2 0x2AEE DUP6 DUP3 PUSH2 0x2A70 JUMP JUMPDEST DUP7 SSTORE POP PUSH2 0x2B56 JUMP JUMPDEST PUSH1 0x1F NOT DUP5 AND PUSH2 0x2B04 DUP7 PUSH2 0x28E0 JUMP JUMPDEST PUSH1 0x0 JUMPDEST DUP3 DUP2 LT ISZERO PUSH2 0x2B2C JUMPI DUP5 DUP10 ADD MLOAD DUP3 SSTORE PUSH1 0x1 DUP3 ADD SWAP2 POP PUSH1 0x20 DUP6 ADD SWAP5 POP PUSH1 0x20 DUP2 ADD SWAP1 POP PUSH2 0x2B07 JUMP JUMPDEST DUP7 DUP4 LT ISZERO PUSH2 0x2B49 JUMPI DUP5 DUP10 ADD MLOAD PUSH2 0x2B45 PUSH1 0x1F DUP10 AND DUP3 PUSH2 0x2A52 JUMP JUMPDEST DUP4 SSTORE POP JUMPDEST PUSH1 0x1 PUSH1 0x2 DUP9 MUL ADD DUP9 SSTORE POP POP POP JUMPDEST POP POP POP POP POP POP JUMP JUMPDEST PUSH1 0x0 PUSH1 0x60 DUP3 ADD SWAP1 POP PUSH2 0x2B73 PUSH1 0x0 DUP4 ADD DUP7 PUSH2 0x2612 JUMP JUMPDEST DUP2 DUP2 SUB PUSH1 0x20 DUP4 ADD MSTORE PUSH2 0x2B85 DUP2 DUP6 PUSH2 0x1F54 JUMP JUMPDEST SWAP1 POP DUP2 DUP2 SUB PUSH1 0x40 DUP4 ADD MSTORE PUSH2 0x2B99 DUP2 DUP5 PUSH2 0x1F54 JUMP JUMPDEST SWAP1 POP SWAP5 SWAP4 POP POP POP POP JUMP JUMPDEST PUSH32 0x4E6F7420616E20617070726F766564206D656D62657200000000000000000000 PUSH1 0x0 DUP3 ADD MSTORE POP JUMP JUMPDEST PUSH1 0x0 PUSH2 0x2BD9 PUSH1 0x16 DUP4 PUSH2 0x1F19 JUMP JUMPDEST SWAP2 POP PUSH2 0x2BE4 DUP3 PUSH2 0x2BA3 JUMP JUMPDEST PUSH1 0x20 DUP3 ADD SWAP1 POP SWAP2 SWAP1 POP JUMP JUMPDEST PUSH1 0x0 PUSH1 0x20 DUP3 ADD SWAP1 POP DUP2 DUP2 SUB PUSH1 0x0 DUP4 ADD MSTORE PUSH2 0x2C08 DUP2 PUSH2 0x2BCC JUMP JUMPDEST SWAP1 POP SWAP2 SWAP1 POP JUMP JUMPDEST PUSH32 0x566F7465206973206E6F74206F6E676F696E6700000000000000000000000000 PUSH1 0x0 DUP3 ADD MSTORE POP JUMP JUMPDEST PUSH1 0x0 PUSH2 0x2C45 PUSH1 0x13 DUP4 PUSH2 0x1F19 JUMP JUMPDEST SWAP2 POP PUSH2 0x2C50 DUP3 PUSH2 0x2C0F JUMP JUMPDEST PUSH1 0x20 DUP3 ADD SWAP1 POP SWAP2 SWAP1 POP JUMP JUMPDEST PUSH1 0x0 PUSH1 0x20 DUP3 ADD SWAP1 POP DUP2 DUP2 SUB PUSH1 0x0 DUP4 ADD MSTORE PUSH2 0x2C74 DUP2 PUSH2 0x2C38 JUMP JUMPDEST SWAP1 POP SWAP2 SWAP1 POP JUMP JUMPDEST PUSH32 0x557365722068617320616C726561647920766F74656400000000000000000000 PUSH1 0x0 DUP3 ADD MSTORE POP JUMP JUMPDEST PUSH1 0x0 PUSH2 0x2CB1 PUSH1 0x16 DUP4 PUSH2 0x1F19 JUMP JUMPDEST SWAP2 POP PUSH2 0x2CBC DUP3 PUSH2 0x2C7B JUMP JUMPDEST PUSH1 0x20 DUP3 ADD SWAP1 POP SWAP2 SWAP1 POP JUMP JUMPDEST PUSH1 0x0 PUSH1 0x20 DUP3 ADD SWAP1 POP DUP2 DUP2 SUB PUSH1 0x0 DUP4 ADD MSTORE PUSH2 0x2CE0 DUP2 PUSH2 0x2CA4 JUMP JUMPDEST SWAP1 POP SWAP2 SWAP1 POP JUMP JUMPDEST PUSH1 0x0 PUSH1 0x80 DUP3 ADD SWAP1 POP PUSH2 0x2CFC PUSH1 0x0 DUP4 ADD DUP8 PUSH2 0x2612 JUMP JUMPDEST PUSH2 0x2D09 PUSH1 0x20 DUP4 ADD DUP7 PUSH2 0x2612 JUMP JUMPDEST PUSH2 0x2D16 PUSH1 0x40 DUP4 ADD DUP6 PUSH2 0x1F8D JUMP JUMPDEST PUSH2 0x2D23 PUSH1 0x60 DUP4 ADD DUP5 PUSH2 0x1F8D JUMP JUMPDEST SWAP6 SWAP5 POP POP POP POP POP JUMP JUMPDEST PUSH32 0x496E76616C696420766F74654964000000000000000000000000000000000000 PUSH1 0x0 DUP3 ADD MSTORE POP JUMP JUMPDEST PUSH1 0x0 PUSH2 0x2D62 PUSH1 0xE DUP4 PUSH2 0x1F19 JUMP JUMPDEST SWAP2 POP PUSH2 0x2D6D DUP3 PUSH2 0x2D2C JUMP JUMPDEST PUSH1 0x20 DUP3 ADD SWAP1 POP SWAP2 SWAP1 POP JUMP JUMPDEST PUSH1 0x0 PUSH1 0x20 DUP3 ADD SWAP1 POP DUP2 DUP2 SUB PUSH1 0x0 DUP4 ADD MSTORE PUSH2 0x2D91 DUP2 PUSH2 0x2D55 JUMP JUMPDEST SWAP1 POP SWAP2 SWAP1 POP JUMP JUMPDEST PUSH1 0x0 PUSH1 0x40 DUP3 ADD SWAP1 POP PUSH2 0x2DAD PUSH1 0x0 DUP4 ADD DUP6 PUSH2 0x2612 JUMP JUMPDEST PUSH2 0x2DBA PUSH1 0x20 DUP4 ADD DUP5 PUSH2 0x1F8D JUMP JUMPDEST SWAP4 SWAP3 POP POP POP JUMP JUMPDEST PUSH32 0x496E76616C696420766F74654944000000000000000000000000000000000000 PUSH1 0x0 DUP3 ADD MSTORE POP JUMP JUMPDEST PUSH1 0x0 PUSH2 0x2DF7 PUSH1 0xE DUP4 PUSH2 0x1F19 JUMP JUMPDEST SWAP2 POP PUSH2 0x2E02 DUP3 PUSH2 0x2DC1 JUMP JUMPDEST PUSH1 0x20 DUP3 ADD SWAP1 POP SWAP2 SWAP1 POP JUMP JUMPDEST PUSH1 0x0 PUSH1 0x20 DUP3 ADD SWAP1 POP DUP2 DUP2 SUB PUSH1 0x0 DUP4 ADD MSTORE PUSH2 0x2E26 DUP2 PUSH2 0x2DEA JUMP JUMPDEST SWAP1 POP SWAP2 SWAP1 POP JUMP JUMPDEST PUSH32 0x4E487B7100000000000000000000000000000000000000000000000000000000 PUSH1 0x0 MSTORE PUSH1 0x32 PUSH1 0x4 MSTORE PUSH1 0x24 PUSH1 0x0 REVERT JUMPDEST PUSH1 0x0 PUSH1 0x60 DUP3 ADD SWAP1 POP PUSH2 0x2E71 PUSH1 0x0 DUP4 ADD DUP7 PUSH2 0x2612 JUMP JUMPDEST PUSH2 0x2E7E PUSH1 0x20 DUP4 ADD DUP6 PUSH2 0x1F8D JUMP JUMPDEST DUP2 DUP2 SUB PUSH1 0x40 DUP4 ADD MSTORE PUSH2 0x2E90 DUP2 DUP5 PUSH2 0x1F54 JUMP JUMPDEST SWAP1 POP SWAP5 SWAP4 POP POP POP POP JUMP INVALID LOG2 PUSH5 0x6970667358 0x22 SLT KECCAK256 0x23 0x4F 0xC0 0xD3 0xE9 SWAP13 0x4D SWAP1 PUSH19 0xF63956F93AF8EBDEB062173C7EB122E70C4251 0xF9 PUSH15 0xE97764736F6C634300081800330000 "
        },
        "methodIdentifiers": {
          "approveRequest(address)": "061dff9a",
          "closeVote(uint256)": "6e48a035",
          "clubs(address)": "48bd4946",
          "createVote(string,string[])": "90a3a11f",
          "getMembers()": "9eab5253",
          "getOptions(uint256)": "8915b3fb",
          "getUserInfo()": "5d8d1585",
          "getUsername(address)": "ce43c032",
          "getVotes(address)": "9ab24eb0",
          "joinClub(address)": "1b49d82b",
          "newUser(string,string)": "1f34563c",
          "removeMember(address)": "0b1ca49a",
          "users(address)": "a87430ba",
          "vote(address,uint256,uint256)": "2a4a1b73"
        }
      }
    }
  }
}