{
  "_format": "hh-sol-artifact-1",
  "contractName": "ClubVote",
  "sourceName": "contracts/ClubVote.sol",
  "abi": [
    {
      "anonymous": false,
      "inputs": [
        {
          "indexed": false,
          "internalType": "string",
          "name": "username",
          "type": "string"
        },
        {
          "indexed": false,
          "internalType": "address",
          "name": "addr",
          "type": "address"
        }
      ],
      "name": "userCreated",
      "type": "event"
    },
    {
      "anonymous": false,
      "inputs": [
        {
          "indexed": false,
          "internalType": "uint256",
          "name": "voteID",
          "type": "uint256"
        },
        {
          "indexed": false,
          "internalType": "uint256",
          "name": "optionIndex",
          "type": "uint256"
        },
        {
          "indexed": false,
          "internalType": "address",
          "name": "addr",
          "type": "address"
        }
      ],
      "name": "userVoted",
      "type": "event"
    },
    {
      "anonymous": false,
      "inputs": [
        {
          "indexed": false,
          "internalType": "string",
          "name": "voteName",
          "type": "string"
        },
        {
          "indexed": false,
          "internalType": "string[]",
          "name": "options",
          "type": "string[]"
        }
      ],
      "name": "voteCreated",
      "type": "event"
    },
    {
      "inputs": [],
      "name": "checkUser",
      "outputs": [
        {
          "internalType": "bool",
          "name": "",
          "type": "bool"
        }
      ],
      "stateMutability": "view",
      "type": "function"
    },
    {
      "inputs": [
        {
          "internalType": "string",
          "name": "_username",
          "type": "string"
        }
      ],
      "name": "createUser",
      "outputs": [],
      "stateMutability": "nonpayable",
      "type": "function"
    },
    {
      "inputs": [
        {
          "internalType": "string",
          "name": "_voteName",
          "type": "string"
        },
        {
          "internalType": "string[]",
          "name": "_options",
          "type": "string[]"
        }
      ],
      "name": "createVote",
      "outputs": [],
      "stateMutability": "nonpayable",
      "type": "function"
    },
    {
      "inputs": [
        {
          "internalType": "address",
          "name": "_addr",
          "type": "address"
        }
      ],
      "name": "getCreatedVoteIDs",
      "outputs": [
        {
          "internalType": "uint256[]",
          "name": "",
          "type": "uint256[]"
        }
      ],
      "stateMutability": "view",
      "type": "function"
    },
    {
      "inputs": [
        {
          "internalType": "uint256",
          "name": "_voteID",
          "type": "uint256"
        }
      ],
      "name": "getInfoByID",
      "outputs": [
        {
          "internalType": "address",
          "name": "",
          "type": "address"
        },
        {
          "internalType": "string",
          "name": "",
          "type": "string"
        },
        {
          "internalType": "uint256",
          "name": "",
          "type": "uint256"
        },
        {
          "internalType": "string[]",
          "name": "",
          "type": "string[]"
        },
        {
          "internalType": "uint256[]",
          "name": "",
          "type": "uint256[]"
        }
      ],
      "stateMutability": "view",
      "type": "function"
    },
    {
      "inputs": [
        {
          "internalType": "address",
          "name": "_addr",
          "type": "address"
        }
      ],
      "name": "getUserName",
      "outputs": [
        {
          "internalType": "string",
          "name": "",
          "type": "string"
        }
      ],
      "stateMutability": "view",
      "type": "function"
    },
    {
      "inputs": [
        {
          "internalType": "uint256",
          "name": "_voteID",
          "type": "uint256"
        },
        {
          "internalType": "uint256",
          "name": "_optionIndex",
          "type": "uint256"
        }
      ],
      "name": "vote",
      "outputs": [],
      "stateMutability": "nonpayable",
      "type": "function"
    }
  ],
  "bytecode": "0x60806040526000805534801561001457600080fd5b50611880806100246000396000f3fe608060405234801561001057600080fd5b506004361061007d5760003560e01c806394807b5f1161005b57806394807b5f146100ee578063b384abef1461011e578063c15625471461013a578063d84f55ee146101585761007d565b806317b5189414610082578063507ffba5146100b657806390a3a11f146100d2575b600080fd5b61009c60048036038101906100979190610bf1565b610188565b6040516100ad959493929190610ec8565b60405180910390f35b6100d060048036038101906100cb9190611065565b6103a3565b005b6100ec60048036038101906100e79190611194565b6104e5565b005b61010860048036038101906101039190611238565b61078a565b6040516101159190611265565b60405180910390f35b61013860048036038101906101339190611287565b610824565b005b610142610a10565b60405161014f91906112e2565b60405180910390f35b610172600480360381019061016d9190611238565b610a78565b60405161017f91906112fd565b60405180910390f35b60006060600060608060006002600088815260200190815260200160002090508060000160009054906101000a900473ffffffffffffffffffffffffffffffffffffffff1681600101826004015483600201846003018380546101ea9061134e565b80601f01602080910402602001604051908101604052809291908181526020018280546102169061134e565b80156102635780601f1061023857610100808354040283529160200191610263565b820191906000526020600020905b81548152906001019060200180831161024657829003601f168201915b5050505050935081805480602002602001604051908101604052809291908181526020016000905b828210156103375783829060005260206000200180546102aa9061134e565b80601f01602080910402602001604051908101604052809291908181526020018280546102d69061134e565b80156103235780601f106102f857610100808354040283529160200191610323565b820191906000526020600020905b81548152906001019060200180831161030657829003601f168201915b50505050508152602001906001019061028b565b5050505091508080548060200260200160405190810160405280929190818152602001828054801561038857602002820191906000526020600020905b815481526020019060010190808311610374575b50505050509050955095509550955095505091939590929450565b33600160008273ffffffffffffffffffffffffffffffffffffffff1673ffffffffffffffffffffffffffffffffffffffff16815260200190815260200160002060010160009054906101000a900460ff16156103fe57600080fd5b81600160003373ffffffffffffffffffffffffffffffffffffffff1673ffffffffffffffffffffffffffffffffffffffff168152602001908152602001600020600001908161044d919061152b565b5060018060003373ffffffffffffffffffffffffffffffffffffffff1673ffffffffffffffffffffffffffffffffffffffff16815260200190815260200160002060010160006101000a81548160ff0219169083151502179055507f35ec00e3e3c0155f7e9aaa1c43d14199b44f430fec3bc383f0ea649281e2122482336040516104d99291906115fd565b60405180910390a15050565b33600160008273ffffffffffffffffffffffffffffffffffffffff1673ffffffffffffffffffffffffffffffffffffffff16815260200190815260200160002060010160009054906101000a900460ff1661053f57600080fd5b6000334260005460405160200161055893929190611696565b6040516020818303038152906040528051906020012060001c90506000600260008381526020019081526020016000209050600160003373ffffffffffffffffffffffffffffffffffffffff1673ffffffffffffffffffffffffffffffffffffffff168152602001908152602001600020600201829080600181540180825580915050600190039060005260206000200160009091909190915055338160000160006101000a81548173ffffffffffffffffffffffffffffffffffffffff021916908373ffffffffffffffffffffffffffffffffffffffff16021790555060018160000160146101000a81548160ff02191690831515021790555084816001019081610664919061152b565b508351816004018190555060005b8451811015610705578160030160009080600181540180825580915050600190039060005260206000200160009091909190915055816002018582815181106106be576106bd6116d3565b5b60200260200101519080600181540180825580915050600190039060005260206000200160009091909190915090816106f7919061152b565b508080600101915050610672565b5060008160060160006101000a81548160ff0219169083600181111561072e5761072d611702565b5b021790555060008081548092919061074590611760565b91905055507f44607de47f9c19db10d40febb599cc7bb46fefea4602b1562ec8691fd1a5643f858560405161077b9291906117a8565b60405180910390a15050505050565b6060600160008373ffffffffffffffffffffffffffffffffffffffff1673ffffffffffffffffffffffffffffffffffffffff16815260200190815260200160002060020180548060200260200160405190810160405280929190818152602001828054801561081857602002820191906000526020600020905b815481526020019060010190808311610804575b50505050509050919050565b816002600082815260200190815260200160002060000160149054906101000a900460ff1661085257600080fd5b33836002600082815260200190815260200160002060050160008373ffffffffffffffffffffffffffffffffffffffff1673ffffffffffffffffffffffffffffffffffffffff16815260200190815260200160002060009054906101000a900460ff16156108bf57600080fd5b33600160008273ffffffffffffffffffffffffffffffffffffffff1673ffffffffffffffffffffffffffffffffffffffff16815260200190815260200160002060010160009054906101000a900460ff1661091957600080fd5b60006002600088815260200190815260200160002090508060030160018761094191906117df565b81548110610952576109516116d3565b5b90600052602060002001600081548092919061096d90611760565b919050555060018160050160003373ffffffffffffffffffffffffffffffffffffffff1673ffffffffffffffffffffffffffffffffffffffff16815260200190815260200160002060006101000a81548160ff0219169083151502179055507fa384a352a68a0510afd67c3bb3a351080513ea83eb0b9946c2cbf5179e0f71558787336040516109ff93929190611813565b60405180910390a150505050505050565b6000600160003373ffffffffffffffffffffffffffffffffffffffff1673ffffffffffffffffffffffffffffffffffffffff16815260200190815260200160002060010160009054906101000a900460ff1615610a705760019050610a75565b600090505b90565b606081600160008273ffffffffffffffffffffffffffffffffffffffff1673ffffffffffffffffffffffffffffffffffffffff16815260200190815260200160002060010160009054906101000a900460ff16610ad457600080fd5b600160008473ffffffffffffffffffffffffffffffffffffffff1673ffffffffffffffffffffffffffffffffffffffff1681526020019081526020016000206000018054610b219061134e565b80601f0160208091040260200160405190810160405280929190818152602001828054610b4d9061134e565b8015610b9a5780601f10610b6f57610100808354040283529160200191610b9a565b820191906000526020600020905b815481529060010190602001808311610b7d57829003601f168201915b5050505050915050919050565b6000604051905090565b600080fd5b600080fd5b6000819050919050565b610bce81610bbb565b8114610bd957600080fd5b50565b600081359050610beb81610bc5565b92915050565b600060208284031215610c0757610c06610bb1565b5b6000610c1584828501610bdc565b91505092915050565b600073ffffffffffffffffffffffffffffffffffffffff82169050919050565b6000610c4982610c1e565b9050919050565b610c5981610c3e565b82525050565b600081519050919050565b600082825260208201905092915050565b60005b83811015610c99578082015181840152602081019050610c7e565b60008484015250505050565b6000601f19601f8301169050919050565b6000610cc182610c5f565b610ccb8185610c6a565b9350610cdb818560208601610c7b565b610ce481610ca5565b840191505092915050565b610cf881610bbb565b82525050565b600081519050919050565b600082825260208201905092915050565b6000819050602082019050919050565b600082825260208201905092915050565b6000610d4682610c5f565b610d508185610d2a565b9350610d60818560208601610c7b565b610d6981610ca5565b840191505092915050565b6000610d808383610d3b565b905092915050565b6000602082019050919050565b6000610da082610cfe565b610daa8185610d09565b935083602082028501610dbc85610d1a565b8060005b85811015610df85784840389528151610dd98582610d74565b9450610de483610d88565b925060208a01995050600181019050610dc0565b50829750879550505050505092915050565b600081519050919050565b600082825260208201905092915050565b6000819050602082019050919050565b610e3f81610bbb565b82525050565b6000610e518383610e36565b60208301905092915050565b6000602082019050919050565b6000610e7582610e0a565b610e7f8185610e15565b9350610e8a83610e26565b8060005b83811015610ebb578151610ea28882610e45565b9750610ead83610e5d565b925050600181019050610e8e565b5085935050505092915050565b600060a082019050610edd6000830188610c50565b8181036020830152610eef8187610cb6565b9050610efe6040830186610cef565b8181036060830152610f108185610d95565b90508181036080830152610f248184610e6a565b90509695505050505050565b600080fd5b600080fd5b7f4e487b7100000000000000000000000000000000000000000000000000000000600052604160045260246000fd5b610f7282610ca5565b810181811067ffffffffffffffff82111715610f9157610f90610f3a565b5b80604052505050565b6000610fa4610ba7565b9050610fb08282610f69565b919050565b600067ffffffffffffffff821115610fd057610fcf610f3a565b5b610fd982610ca5565b9050602081019050919050565b82818337600083830152505050565b600061100861100384610fb5565b610f9a565b90508281526020810184848401111561102457611023610f35565b5b61102f848285610fe6565b509392505050565b600082601f83011261104c5761104b610f30565b5b813561105c848260208601610ff5565b91505092915050565b60006020828403121561107b5761107a610bb1565b5b600082013567ffffffffffffffff81111561109957611098610bb6565b5b6110a584828501611037565b91505092915050565b600067ffffffffffffffff8211156110c9576110c8610f3a565b5b602082029050602081019050919050565b600080fd5b60006110f26110ed846110ae565b610f9a565b90508083825260208201905060208402830185811115611115576111146110da565b5b835b8181101561115c57803567ffffffffffffffff81111561113a57611139610f30565b5b8086016111478982611037565b85526020850194505050602081019050611117565b5050509392505050565b600082601f83011261117b5761117a610f30565b5b813561118b8482602086016110df565b91505092915050565b600080604083850312156111ab576111aa610bb1565b5b600083013567ffffffffffffffff8111156111c9576111c8610bb6565b5b6111d585828601611037565b925050602083013567ffffffffffffffff8111156111f6576111f5610bb6565b5b61120285828601611166565b9150509250929050565b61121581610c3e565b811461122057600080fd5b50565b6000813590506112328161120c565b92915050565b60006020828403121561124e5761124d610bb1565b5b600061125c84828501611223565b91505092915050565b6000602082019050818103600083015261127f8184610e6a565b905092915050565b6000806040838503121561129e5761129d610bb1565b5b60006112ac85828601610bdc565b92505060206112bd85828601610bdc565b9150509250929050565b60008115159050919050565b6112dc816112c7565b82525050565b60006020820190506112f760008301846112d3565b92915050565b600060208201905081810360008301526113178184610cb6565b905092915050565b7f4e487b7100000000000000000000000000000000000000000000000000000000600052602260045260246000fd5b6000600282049050600182168061136657607f821691505b6020821081036113795761137861131f565b5b50919050565b60008190508160005260206000209050919050565b60006020601f8301049050919050565b600082821b905092915050565b6000600883026113e17fffffffffffffffffffffffffffffffffffffffffffffffffffffffffffffffff826113a4565b6113eb86836113a4565b95508019841693508086168417925050509392505050565b6000819050919050565b600061142861142361141e84610bbb565b611403565b610bbb565b9050919050565b6000819050919050565b6114428361140d565b61145661144e8261142f565b8484546113b1565b825550505050565b600090565b61146b61145e565b611476818484611439565b505050565b5b8181101561149a5761148f600082611463565b60018101905061147c565b5050565b601f8211156114df576114b08161137f565b6114b984611394565b810160208510156114c8578190505b6114dc6114d485611394565b83018261147b565b50505b505050565b600082821c905092915050565b6000611502600019846008026114e4565b1980831691505092915050565b600061151b83836114f1565b9150826002028217905092915050565b61153482610c5f565b67ffffffffffffffff81111561154d5761154c610f3a565b5b611557825461134e565b61156282828561149e565b600060209050601f8311600181146115955760008415611583578287015190505b61158d858261150f565b8655506115f5565b601f1984166115a38661137f565b60005b828110156115cb578489015182556001820191506020850194506020810190506115a6565b868310156115e857848901516115e4601f8916826114f1565b8355505b6001600288020188555050505b505050505050565b600060408201905081810360008301526116178185610cb6565b90506116266020830184610c50565b9392505050565b60008160601b9050919050565b60006116458261162d565b9050919050565b60006116578261163a565b9050919050565b61166f61166a82610c3e565b61164c565b82525050565b6000819050919050565b61169061168b82610bbb565b611675565b82525050565b60006116a2828661165e565b6014820191506116b2828561167f565b6020820191506116c2828461167f565b602082019150819050949350505050565b7f4e487b7100000000000000000000000000000000000000000000000000000000600052603260045260246000fd5b7f4e487b7100000000000000000000000000000000000000000000000000000000600052602160045260246000fd5b7f4e487b7100000000000000000000000000000000000000000000000000000000600052601160045260246000fd5b600061176b82610bbb565b91507fffffffffffffffffffffffffffffffffffffffffffffffffffffffffffffffff820361179d5761179c611731565b5b600182019050919050565b600060408201905081810360008301526117c28185610cb6565b905081810360208301526117d68184610d95565b90509392505050565b60006117ea82610bbb565b91506117f583610bbb565b925082820390508181111561180d5761180c611731565b5b92915050565b60006060820190506118286000830186610cef565b6118356020830185610cef565b6118426040830184610c50565b94935050505056fea2646970667358221220a73fd81b5f31a86d163ebf5b9bd5fc1eb7bc7e4fd8cb0b680a567e60ad07f9db64736f6c63430008180033",
  "linkReferences": {},
  "deployedLinkReferences": {}
}