{
  "_format": "hh-sol-artifact-1",
  "contractName": "ClubVote",
  "sourceName": "contracts/ClubVote.sol",
  "abi": [
    {
      "anonymous": false,
      "inputs": [
        {
          "indexed": false,
          "internalType": "address",
          "name": "clubAddress",
          "type": "address"
        },
        {
          "indexed": false,
          "internalType": "address",
          "name": "user",
          "type": "address"
        }
      ],
      "name": "MemberApproved",
      "type": "event"
    },
    {
      "anonymous": false,
      "inputs": [
        {
          "indexed": false,
          "internalType": "address",
          "name": "clubAddress",
          "type": "address"
        },
        {
          "indexed": false,
          "internalType": "address",
          "name": "user",
          "type": "address"
        }
      ],
      "name": "MemberJoined",
      "type": "event"
    },
    {
      "anonymous": false,
      "inputs": [
        {
          "indexed": false,
          "internalType": "address",
          "name": "userAddress",
          "type": "address"
        },
        {
          "indexed": false,
          "internalType": "string",
          "name": "name",
          "type": "string"
        },
        {
          "indexed": false,
          "internalType": "string",
          "name": "clubName",
          "type": "string"
        }
      ],
      "name": "UserRegistered",
      "type": "event"
    },
    {
      "anonymous": false,
      "inputs": [
        {
          "indexed": false,
          "internalType": "address",
          "name": "voter",
          "type": "address"
        },
        {
          "indexed": false,
          "internalType": "address",
          "name": "clubAddress",
          "type": "address"
        },
        {
          "indexed": false,
          "internalType": "uint256",
          "name": "voteId",
          "type": "uint256"
        },
        {
          "indexed": false,
          "internalType": "uint256",
          "name": "choice",
          "type": "uint256"
        }
      ],
      "name": "VoteCast",
      "type": "event"
    },
    {
      "anonymous": false,
      "inputs": [
        {
          "indexed": false,
          "internalType": "address",
          "name": "clubAddress",
          "type": "address"
        },
        {
          "indexed": false,
          "internalType": "uint256",
          "name": "voteId",
          "type": "uint256"
        }
      ],
      "name": "VoteClosed",
      "type": "event"
    },
    {
      "anonymous": false,
      "inputs": [
        {
          "indexed": false,
          "internalType": "address",
          "name": "clubAddress",
          "type": "address"
        },
        {
          "indexed": false,
          "internalType": "uint256",
          "name": "voteId",
          "type": "uint256"
        },
        {
          "indexed": false,
          "internalType": "string",
          "name": "voteName",
          "type": "string"
        }
      ],
      "name": "VoteCreated",
      "type": "event"
    },
    {
      "inputs": [
        {
          "internalType": "address",
          "name": "userAddress",
          "type": "address"
        }
      ],
      "name": "approveRequest",
      "outputs": [],
      "stateMutability": "nonpayable",
      "type": "function"
    },
    {
      "inputs": [
        {
          "internalType": "uint256",
          "name": "voteId",
          "type": "uint256"
        }
      ],
      "name": "closeVote",
      "outputs": [],
      "stateMutability": "nonpayable",
      "type": "function"
    },
    {
      "inputs": [
        {
          "internalType": "address",
          "name": "",
          "type": "address"
        }
      ],
      "name": "clubs",
      "outputs": [
        {
          "internalType": "string",
          "name": "name",
          "type": "string"
        },
        {
          "internalType": "uint256",
          "name": "voteCount",
          "type": "uint256"
        },
        {
          "internalType": "uint256",
          "name": "memberCount",
          "type": "uint256"
        },
        {
          "internalType": "uint256",
          "name": "approvedMemberCount",
          "type": "uint256"
        }
      ],
      "stateMutability": "view",
      "type": "function"
    },
    {
      "inputs": [
        {
          "internalType": "string",
          "name": "_name",
          "type": "string"
        },
        {
          "internalType": "string[]",
          "name": "_options",
          "type": "string[]"
        }
      ],
      "name": "createVote",
      "outputs": [],
      "stateMutability": "nonpayable",
      "type": "function"
    },
    {
      "inputs": [],
      "name": "getMembers",
      "outputs": [
        {
          "internalType": "string[]",
          "name": "",
          "type": "string[]"
        },
        {
          "internalType": "address[]",
          "name": "",
          "type": "address[]"
        }
      ],
      "stateMutability": "view",
      "type": "function"
    },
    {
      "inputs": [
        {
          "internalType": "uint256",
          "name": "voteID",
          "type": "uint256"
        }
      ],
      "name": "getOptions",
      "outputs": [
        {
          "internalType": "string[]",
          "name": "",
          "type": "string[]"
        },
        {
          "internalType": "uint256[]",
          "name": "",
          "type": "uint256[]"
        }
      ],
      "stateMutability": "view",
      "type": "function"
    },
    {
      "inputs": [],
      "name": "getUserInfo",
      "outputs": [
        {
          "internalType": "string",
          "name": "",
          "type": "string"
        },
        {
          "internalType": "string",
          "name": "",
          "type": "string"
        }
      ],
      "stateMutability": "view",
      "type": "function"
    },
    {
      "inputs": [
        {
          "internalType": "address",
          "name": "_addr",
          "type": "address"
        }
      ],
      "name": "getUsername",
      "outputs": [
        {
          "internalType": "string",
          "name": "",
          "type": "string"
        }
      ],
      "stateMutability": "view",
      "type": "function"
    },
    {
      "inputs": [
        {
          "internalType": "address",
          "name": "addr",
          "type": "address"
        }
      ],
      "name": "getVotes",
      "outputs": [
        {
          "internalType": "string[]",
          "name": "",
          "type": "string[]"
        },
        {
          "internalType": "uint256[]",
          "name": "",
          "type": "uint256[]"
        },
        {
          "internalType": "enum ClubVote.voteStatus[]",
          "name": "",
          "type": "uint8[]"
        }
      ],
      "stateMutability": "view",
      "type": "function"
    },
    {
      "inputs": [
        {
          "internalType": "address",
          "name": "clubAddress",
          "type": "address"
        }
      ],
      "name": "joinClub",
      "outputs": [],
      "stateMutability": "nonpayable",
      "type": "function"
    },
    {
      "inputs": [
        {
          "internalType": "string",
          "name": "userName",
          "type": "string"
        },
        {
          "internalType": "string",
          "name": "clubName",
          "type": "string"
        }
      ],
      "name": "newUser",
      "outputs": [],
      "stateMutability": "nonpayable",
      "type": "function"
    },
    {
      "inputs": [
        {
          "internalType": "address",
          "name": "userAddress",
          "type": "address"
        }
      ],
      "name": "removeMember",
      "outputs": [],
      "stateMutability": "nonpayable",
      "type": "function"
    },
    {
      "inputs": [
        {
          "internalType": "address",
          "name": "",
          "type": "address"
        }
      ],
      "name": "users",
      "outputs": [
        {
          "internalType": "string",
          "name": "name",
          "type": "string"
        },
        {
          "internalType": "address",
          "name": "clubAddress",
          "type": "address"
        }
      ],
      "stateMutability": "view",
      "type": "function"
    },
    {
      "inputs": [
        {
          "internalType": "address",
          "name": "clubAddress",
          "type": "address"
        },
        {
          "internalType": "uint256",
          "name": "voteId",
          "type": "uint256"
        },
        {
          "internalType": "uint256",
          "name": "choice",
          "type": "uint256"
        }
      ],
      "name": "vote",
      "outputs": [
        {
          "internalType": "bool",
          "name": "",
          "type": "bool"
        }
      ],
      "stateMutability": "nonpayable",
      "type": "function"
    }
  ],
  "bytecode": "0x608060405234801561001057600080fd5b50612ed0806100206000396000f3fe608060405234801561001057600080fd5b50600436106100ea5760003560e01c80636e48a0351161008c5780639ab24eb0116100665780639ab24eb01461024a5780639eab52531461027c578063a87430ba1461029b578063ce43c032146102cc576100ea565b80636e48a035146101e15780638915b3fb146101fd57806390a3a11f1461022e576100ea565b80631f34563c116100c85780631f34563c146101435780632a4a1b731461015f57806348bd49461461018f5780635d8d1585146101c2576100ea565b8063061dff9a146100ef5780630b1ca49a1461010b5780631b49d82b14610127575b600080fd5b61010960048036038101906101049190611c64565b6102fc565b005b61012560048036038101906101209190611c64565b61047f565b005b610141600480360381019061013c9190611c64565b6105c8565b005b61015d60048036038101906101589190611dd7565b6107e3565b005b61017960048036038101906101749190611e85565b610a19565b6040516101869190611ef3565b60405180910390f35b6101a960048036038101906101a49190611c64565b610ce0565b6040516101b99493929190611f9c565b60405180910390f35b6101ca610d98565b6040516101d8929190611fe8565b60405180910390f35b6101fb60048036038101906101f6919061201f565b610fab565b005b6102176004803603810190610212919061201f565b6110b2565b604051610225929190612216565b60405180910390f35b61024860048036038101906102439190612333565b61131b565b005b610264600480360381019061025f9190611c64565b611497565b604051610273939291906124d1565b60405180910390f35b610284611764565b6040516102929291906125db565b60405180910390f35b6102b560048036038101906102b09190611c64565b611a53565b6040516102c3929190612621565b60405180910390f35b6102e660048036038101906102e19190611c64565b611b1f565b6040516102f39190612651565b60405180910390f35b6000600160003373ffffffffffffffffffffffffffffffffffffffff1673ffffffffffffffffffffffffffffffffffffffff16815260200190815260200160002090508060020160008373ffffffffffffffffffffffffffffffffffffffff1673ffffffffffffffffffffffffffffffffffffffff16815260200190815260200160002060009054906101000a900460ff16156103ce576040517f08c379a00000000000000000000000000000000000000000000000000000000081526004016103c5906126bf565b60405180910390fd5b60018160020160008473ffffffffffffffffffffffffffffffffffffffff1673ffffffffffffffffffffffffffffffffffffffff16815260200190815260200160002060006101000a81548160ff02191690831515021790555080600601600081548092919061043d9061270e565b91905055507f18376ea99fa0b809ec0f8f2185ba30fd3fa1aa765aa001e14cffb75624f788af3383604051610473929190612756565b60405180910390a15050565b6000600160003373ffffffffffffffffffffffffffffffffffffffff1673ffffffffffffffffffffffffffffffffffffffff16815260200190815260200160002090508060020160008373ffffffffffffffffffffffffffffffffffffffff1673ffffffffffffffffffffffffffffffffffffffff16815260200190815260200160002060009054906101000a900460ff16610550576040517f08c379a0000000000000000000000000000000000000000000000000000000008152600401610547906127cb565b60405180910390fd5b60008160020160008473ffffffffffffffffffffffffffffffffffffffff1673ffffffffffffffffffffffffffffffffffffffff16815260200190815260200160002060006101000a81548160ff0219169083151502179055508060060160008154809291906105bf906127eb565b91905055505050565b8073ffffffffffffffffffffffffffffffffffffffff166000803373ffffffffffffffffffffffffffffffffffffffff1673ffffffffffffffffffffffffffffffffffffffff16815260200190815260200160002060010160009054906101000a900473ffffffffffffffffffffffffffffffffffffffff1673ffffffffffffffffffffffffffffffffffffffff1603610697576040517f08c379a000000000000000000000000000000000000000000000000000000000815260040161068e90612860565b60405180910390fd5b6000600160008373ffffffffffffffffffffffffffffffffffffffff1673ffffffffffffffffffffffffffffffffffffffff1681526020019081526020016000209050338160010160008360050154815260200190815260200160002060006101000a81548173ffffffffffffffffffffffffffffffffffffffff021916908373ffffffffffffffffffffffffffffffffffffffff1602179055508060050160008154809291906107479061270e565b919050555060008160020160003373ffffffffffffffffffffffffffffffffffffffff1673ffffffffffffffffffffffffffffffffffffffff16815260200190815260200160002060006101000a81548160ff0219169083151502179055507fb168e0b33ed126dec210fb14910d562a068905fb3431f3abe71b964e9e1b119a82336040516107d7929190612756565b60405180910390a15050565b80600160003373ffffffffffffffffffffffffffffffffffffffff1673ffffffffffffffffffffffffffffffffffffffff16815260200190815260200160002060000190816108329190612a8c565b506000600160003373ffffffffffffffffffffffffffffffffffffffff1673ffffffffffffffffffffffffffffffffffffffff168152602001908152602001600020600401819055506000600160003373ffffffffffffffffffffffffffffffffffffffff1673ffffffffffffffffffffffffffffffffffffffff168152602001908152602001600020600501819055506000600160003373ffffffffffffffffffffffffffffffffffffffff1673ffffffffffffffffffffffffffffffffffffffff16815260200190815260200160002060060181905550816000803373ffffffffffffffffffffffffffffffffffffffff1673ffffffffffffffffffffffffffffffffffffffff16815260200190815260200160002060000190816109599190612a8c565b50336000803373ffffffffffffffffffffffffffffffffffffffff1673ffffffffffffffffffffffffffffffffffffffff16815260200190815260200160002060010160006101000a81548173ffffffffffffffffffffffffffffffffffffffff021916908373ffffffffffffffffffffffffffffffffffffffff1602179055507f92822564bab8864c3a47b34e8d23fbce5c46234eb5da261f94087b995ac0f33b338383604051610a0d93929190612b5e565b60405180910390a15050565b600080600160008673ffffffffffffffffffffffffffffffffffffffff1673ffffffffffffffffffffffffffffffffffffffff16815260200190815260200160002090508060020160003373ffffffffffffffffffffffffffffffffffffffff1673ffffffffffffffffffffffffffffffffffffffff16815260200190815260200160002060009054906101000a900460ff16610aeb576040517f08c379a0000000000000000000000000000000000000000000000000000000008152600401610ae290612bef565b60405180910390fd5b6000816003016000868152602001908152602001600020905060006001811115610b1857610b176123d7565b5b8160060160009054906101000a900460ff166001811115610b3c57610b3b6123d7565b5b14610b7c576040517f08c379a0000000000000000000000000000000000000000000000000000000008152600401610b7390612c5b565b60405180910390fd5b60008160050160003373ffffffffffffffffffffffffffffffffffffffff1673ffffffffffffffffffffffffffffffffffffffff16815260200190815260200160002060009054906101000a900460ff1690508015610c10576040517f08c379a0000000000000000000000000000000000000000000000000000000008152600401610c0790612cc7565b60405180910390fd5b8160030160008681526020019081526020016000206000815480929190610c369061270e565b919050555060018260050160003373ffffffffffffffffffffffffffffffffffffffff1673ffffffffffffffffffffffffffffffffffffffff16815260200190815260200160002060006101000a81548160ff0219169083151502179055507f1ed37da89ec73264fe3ff50d20d92f19845180819831a4f5dbfb4bf282f0fa5733888888604051610cca9493929190612ce7565b60405180910390a1600193505050509392505050565b6001602052806000526040600020600091509050806000018054610d03906128af565b80601f0160208091040260200160405190810160405280929190818152602001828054610d2f906128af565b8015610d7c5780601f10610d5157610100808354040283529160200191610d7c565b820191906000526020600020905b815481529060010190602001808311610d5f57829003601f168201915b5050505050908060040154908060050154908060060154905084565b60608060008060003373ffffffffffffffffffffffffffffffffffffffff1673ffffffffffffffffffffffffffffffffffffffff1681526020019081526020016000206000018054610de9906128af565b80601f0160208091040260200160405190810160405280929190818152602001828054610e15906128af565b8015610e625780601f10610e3757610100808354040283529160200191610e62565b820191906000526020600020905b815481529060010190602001808311610e4557829003601f168201915b5050505050905060008060003373ffffffffffffffffffffffffffffffffffffffff1673ffffffffffffffffffffffffffffffffffffffff16815260200190815260200160002060010160009054906101000a900473ffffffffffffffffffffffffffffffffffffffff1690506000600160008373ffffffffffffffffffffffffffffffffffffffff1673ffffffffffffffffffffffffffffffffffffffff1681526020019081526020016000206000018054610f1e906128af565b80601f0160208091040260200160405190810160405280929190818152602001828054610f4a906128af565b8015610f975780601f10610f6c57610100808354040283529160200191610f97565b820191906000526020600020905b815481529060010190602001808311610f7a57829003601f168201915b505050505090508281945094505050509091565b6000600160003373ffffffffffffffffffffffffffffffffffffffff1673ffffffffffffffffffffffffffffffffffffffff168152602001908152602001600020905080600401548210611034576040517f08c379a000000000000000000000000000000000000000000000000000000000815260040161102b90612d78565b60405180910390fd5b600181600301600084815260200190815260200160002060060160006101000a81548160ff021916908360018111156110705761106f6123d7565b5b02179055507ff3f834a80d87be6dcb993a5939836ccd60d9ae9bdd02be4a3ddd50f89db59d3533836040516110a6929190612d98565b60405180910390a15050565b6060806000600160003373ffffffffffffffffffffffffffffffffffffffff1673ffffffffffffffffffffffffffffffffffffffff16815260200190815260200160002090508060040154841061113e576040517f08c379a000000000000000000000000000000000000000000000000000000000815260040161113590612e0d565b60405180910390fd5b600081600301600086815260200190815260200160002090506000816001015467ffffffffffffffff81111561117757611176611cac565b5b6040519080825280602002602001820160405280156111aa57816020015b60608152602001906001900390816111955790505b5090506000826001015467ffffffffffffffff8111156111cd576111cc611cac565b5b6040519080825280602002602001820160405280156111fb5781602001602082028036833780820191505090505b50905060005b836001015481101561130b57836002016000828152602001908152602001600020805461122d906128af565b80601f0160208091040260200160405190810160405280929190818152602001828054611259906128af565b80156112a65780601f1061127b576101008083540402835291602001916112a6565b820191906000526020600020905b81548152906001019060200180831161128957829003601f168201915b50505050508382815181106112be576112bd612e2d565b5b6020026020010181905250836003016000828152602001908152602001600020548282815181106112f2576112f1612e2d565b5b6020026020010181815250508080600101915050611201565b5081819550955050505050915091565b6000600160003373ffffffffffffffffffffffffffffffffffffffff1673ffffffffffffffffffffffffffffffffffffffff168152602001908152602001600020905060008160040154905060008260030160008381526020019081526020016000209050848160000190816113919190612a8c565b5060008160060160006101000a81548160ff021916908360018111156113ba576113b96123d7565b5b02179055508351816001018190555060005b845181101561143a578481815181106113e8576113e7612e2d565b5b602002602001015182600201600083815260200190815260200160002090816114119190612a8c565b5060008260030160008381526020019081526020016000208190555080806001019150506113cc565b508260040160008154809291906114509061270e565b91905055507fcf25a6c234cc59090a48bec904c01b25e267d66e3c1893f65c4b15ad21fde87633838760405161148893929190612e5c565b60405180910390a15050505050565b60608060606000600160008673ffffffffffffffffffffffffffffffffffffffff1673ffffffffffffffffffffffffffffffffffffffff168152602001908152602001600020905060008160040154905060008167ffffffffffffffff81111561150457611503611cac565b5b60405190808252806020026020018201604052801561153757816020015b60608152602001906001900390816115225790505b50905060008267ffffffffffffffff81111561155657611555611cac565b5b6040519080825280602002602001820160405280156115845781602001602082028036833780820191505090505b50905060008367ffffffffffffffff8111156115a3576115a2611cac565b5b6040519080825280602002602001820160405280156115d15781602001602082028036833780820191505090505b50905060005b8481101561174e578560030160008281526020019081526020016000206000018054611602906128af565b80601f016020809104026020016040519081016040528092919081815260200182805461162e906128af565b801561167b5780601f106116505761010080835404028352916020019161167b565b820191906000526020600020905b81548152906001019060200180831161165e57829003601f168201915b505050505084828151811061169357611692612e2d565b5b6020026020010181905250856003016000828152602001908152602001600020600101548382815181106116ca576116c9612e2d565b5b60200260200101818152505085600301600082815260200190815260200160002060060160009054906101000a900460ff1682828151811061170f5761170e612e2d565b5b60200260200101906001811115611729576117286123d7565b5b9081600181111561173d5761173c6123d7565b5b8152505080806001019150506115d7565b5082828297509750975050505050509193909250565b6060806000600160003373ffffffffffffffffffffffffffffffffffffffff1673ffffffffffffffffffffffffffffffffffffffff168152602001908152602001600020905060008160060154905060008167ffffffffffffffff8111156117cf576117ce611cac565b5b60405190808252806020026020018201604052801561180257816020015b60608152602001906001900390816117ed5790505b50905060008267ffffffffffffffff81111561182157611820611cac565b5b60405190808252806020026020018201604052801561184f5781602001602082028036833780820191505090505b5090506000805b8560050154811015611a4357600086600101600083815260200190815260200160002060009054906101000a900473ffffffffffffffffffffffffffffffffffffffff1690508660020160008273ffffffffffffffffffffffffffffffffffffffff1673ffffffffffffffffffffffffffffffffffffffff16815260200190815260200160002060009054906101000a900460ff1615611a35576000808273ffffffffffffffffffffffffffffffffffffffff1673ffffffffffffffffffffffffffffffffffffffff168152602001908152602001600020600001805461193c906128af565b80601f0160208091040260200160405190810160405280929190818152602001828054611968906128af565b80156119b55780601f1061198a576101008083540402835291602001916119b5565b820191906000526020600020905b81548152906001019060200180831161199857829003601f168201915b50505050508584815181106119cd576119cc612e2d565b5b6020026020010181905250808484815181106119ec576119eb612e2d565b5b602002602001019073ffffffffffffffffffffffffffffffffffffffff16908173ffffffffffffffffffffffffffffffffffffffff16815250508280611a319061270e565b9350505b508080600101915050611856565b5082829650965050505050509091565b6000602052806000526040600020600091509050806000018054611a76906128af565b80601f0160208091040260200160405190810160405280929190818152602001828054611aa2906128af565b8015611aef5780601f10611ac457610100808354040283529160200191611aef565b820191906000526020600020905b815481529060010190602001808311611ad257829003601f168201915b5050505050908060010160009054906101000a900473ffffffffffffffffffffffffffffffffffffffff16905082565b60606000808373ffffffffffffffffffffffffffffffffffffffff1673ffffffffffffffffffffffffffffffffffffffff1681526020019081526020016000206000018054611b6d906128af565b80601f0160208091040260200160405190810160405280929190818152602001828054611b99906128af565b8015611be65780601f10611bbb57610100808354040283529160200191611be6565b820191906000526020600020905b815481529060010190602001808311611bc957829003601f168201915b50505050509050919050565b6000604051905090565b600080fd5b600080fd5b600073ffffffffffffffffffffffffffffffffffffffff82169050919050565b6000611c3182611c06565b9050919050565b611c4181611c26565b8114611c4c57600080fd5b50565b600081359050611c5e81611c38565b92915050565b600060208284031215611c7a57611c79611bfc565b5b6000611c8884828501611c4f565b91505092915050565b600080fd5b600080fd5b6000601f19601f8301169050919050565b7f4e487b7100000000000000000000000000000000000000000000000000000000600052604160045260246000fd5b611ce482611c9b565b810181811067ffffffffffffffff82111715611d0357611d02611cac565b5b80604052505050565b6000611d16611bf2565b9050611d228282611cdb565b919050565b600067ffffffffffffffff821115611d4257611d41611cac565b5b611d4b82611c9b565b9050602081019050919050565b82818337600083830152505050565b6000611d7a611d7584611d27565b611d0c565b905082815260208101848484011115611d9657611d95611c96565b5b611da1848285611d58565b509392505050565b600082601f830112611dbe57611dbd611c91565b5b8135611dce848260208601611d67565b91505092915050565b60008060408385031215611dee57611ded611bfc565b5b600083013567ffffffffffffffff811115611e0c57611e0b611c01565b5b611e1885828601611da9565b925050602083013567ffffffffffffffff811115611e3957611e38611c01565b5b611e4585828601611da9565b9150509250929050565b6000819050919050565b611e6281611e4f565b8114611e6d57600080fd5b50565b600081359050611e7f81611e59565b92915050565b600080600060608486031215611e9e57611e9d611bfc565b5b6000611eac86828701611c4f565b9350506020611ebd86828701611e70565b9250506040611ece86828701611e70565b9150509250925092565b60008115159050919050565b611eed81611ed8565b82525050565b6000602082019050611f086000830184611ee4565b92915050565b600081519050919050565b600082825260208201905092915050565b60005b83811015611f48578082015181840152602081019050611f2d565b60008484015250505050565b6000611f5f82611f0e565b611f698185611f19565b9350611f79818560208601611f2a565b611f8281611c9b565b840191505092915050565b611f9681611e4f565b82525050565b60006080820190508181036000830152611fb68187611f54565b9050611fc56020830186611f8d565b611fd26040830185611f8d565b611fdf6060830184611f8d565b95945050505050565b600060408201905081810360008301526120028185611f54565b905081810360208301526120168184611f54565b90509392505050565b60006020828403121561203557612034611bfc565b5b600061204384828501611e70565b91505092915050565b600081519050919050565b600082825260208201905092915050565b6000819050602082019050919050565b600082825260208201905092915050565b600061209482611f0e565b61209e8185612078565b93506120ae818560208601611f2a565b6120b781611c9b565b840191505092915050565b60006120ce8383612089565b905092915050565b6000602082019050919050565b60006120ee8261204c565b6120f88185612057565b93508360208202850161210a85612068565b8060005b85811015612146578484038952815161212785826120c2565b9450612132836120d6565b925060208a0199505060018101905061210e565b50829750879550505050505092915050565b600081519050919050565b600082825260208201905092915050565b6000819050602082019050919050565b61218d81611e4f565b82525050565b600061219f8383612184565b60208301905092915050565b6000602082019050919050565b60006121c382612158565b6121cd8185612163565b93506121d883612174565b8060005b838110156122095781516121f08882612193565b97506121fb836121ab565b9250506001810190506121dc565b5085935050505092915050565b6000604082019050818103600083015261223081856120e3565b9050818103602083015261224481846121b8565b90509392505050565b600067ffffffffffffffff82111561226857612267611cac565b5b602082029050602081019050919050565b600080fd5b600061229161228c8461224d565b611d0c565b905080838252602082019050602084028301858111156122b4576122b3612279565b5b835b818110156122fb57803567ffffffffffffffff8111156122d9576122d8611c91565b5b8086016122e68982611da9565b855260208501945050506020810190506122b6565b5050509392505050565b600082601f83011261231a57612319611c91565b5b813561232a84826020860161227e565b91505092915050565b6000806040838503121561234a57612349611bfc565b5b600083013567ffffffffffffffff81111561236857612367611c01565b5b61237485828601611da9565b925050602083013567ffffffffffffffff81111561239557612394611c01565b5b6123a185828601612305565b9150509250929050565b600081519050919050565b600082825260208201905092915050565b6000819050602082019050919050565b7f4e487b7100000000000000000000000000000000000000000000000000000000600052602160045260246000fd5b60028110612417576124166123d7565b5b50565b600081905061242882612406565b919050565b60006124388261241a565b9050919050565b6124488161242d565b82525050565b600061245a838361243f565b60208301905092915050565b6000602082019050919050565b600061247e826123ab565b61248881856123b6565b9350612493836123c7565b8060005b838110156124c45781516124ab888261244e565b97506124b683612466565b925050600181019050612497565b5085935050505092915050565b600060608201905081810360008301526124eb81866120e3565b905081810360208301526124ff81856121b8565b905081810360408301526125138184612473565b9050949350505050565b600081519050919050565b600082825260208201905092915050565b6000819050602082019050919050565b61255281611c26565b82525050565b60006125648383612549565b60208301905092915050565b6000602082019050919050565b60006125888261251d565b6125928185612528565b935061259d83612539565b8060005b838110156125ce5781516125b58882612558565b97506125c083612570565b9250506001810190506125a1565b5085935050505092915050565b600060408201905081810360008301526125f581856120e3565b90508181036020830152612609818461257d565b90509392505050565b61261b81611c26565b82525050565b6000604082019050818103600083015261263b8185611f54565b905061264a6020830184612612565b9392505050565b6000602082019050818103600083015261266b8184611f54565b905092915050565b7f5573657220616c726561647920617070726f7665640000000000000000000000600082015250565b60006126a9601583611f19565b91506126b482612673565b602082019050919050565b600060208201905081810360008301526126d88161269c565b9050919050565b7f4e487b7100000000000000000000000000000000000000000000000000000000600052601160045260246000fd5b600061271982611e4f565b91507fffffffffffffffffffffffffffffffffffffffffffffffffffffffffffffffff820361274b5761274a6126df565b5b600182019050919050565b600060408201905061276b6000830185612612565b6127786020830184612612565b9392505050565b7f55736572206e6f742061206d656d626572000000000000000000000000000000600082015250565b60006127b5601183611f19565b91506127c08261277f565b602082019050919050565b600060208201905081810360008301526127e4816127a8565b9050919050565b60006127f682611e4f565b915060008203612809576128086126df565b5b600182039050919050565b7f416c72656164792061206d656d62657200000000000000000000000000000000600082015250565b600061284a601083611f19565b915061285582612814565b602082019050919050565b600060208201905081810360008301526128798161283d565b9050919050565b7f4e487b7100000000000000000000000000000000000000000000000000000000600052602260045260246000fd5b600060028204905060018216806128c757607f821691505b6020821081036128da576128d9612880565b5b50919050565b60008190508160005260206000209050919050565b60006020601f8301049050919050565b600082821b905092915050565b6000600883026129427fffffffffffffffffffffffffffffffffffffffffffffffffffffffffffffffff82612905565b61294c8683612905565b95508019841693508086168417925050509392505050565b6000819050919050565b600061298961298461297f84611e4f565b612964565b611e4f565b9050919050565b6000819050919050565b6129a38361296e565b6129b76129af82612990565b848454612912565b825550505050565b600090565b6129cc6129bf565b6129d781848461299a565b505050565b5b818110156129fb576129f06000826129c4565b6001810190506129dd565b5050565b601f821115612a4057612a11816128e0565b612a1a846128f5565b81016020851015612a29578190505b612a3d612a35856128f5565b8301826129dc565b50505b505050565b600082821c905092915050565b6000612a6360001984600802612a45565b1980831691505092915050565b6000612a7c8383612a52565b9150826002028217905092915050565b612a9582611f0e565b67ffffffffffffffff811115612aae57612aad611cac565b5b612ab882546128af565b612ac38282856129ff565b600060209050601f831160018114612af65760008415612ae4578287015190505b612aee8582612a70565b865550612b56565b601f198416612b04866128e0565b60005b82811015612b2c57848901518255600182019150602085019450602081019050612b07565b86831015612b495784890151612b45601f891682612a52565b8355505b6001600288020188555050505b505050505050565b6000606082019050612b736000830186612612565b8181036020830152612b858185611f54565b90508181036040830152612b998184611f54565b9050949350505050565b7f4e6f7420616e20617070726f766564206d656d62657200000000000000000000600082015250565b6000612bd9601683611f19565b9150612be482612ba3565b602082019050919050565b60006020820190508181036000830152612c0881612bcc565b9050919050565b7f566f7465206973206e6f74206f6e676f696e6700000000000000000000000000600082015250565b6000612c45601383611f19565b9150612c5082612c0f565b602082019050919050565b60006020820190508181036000830152612c7481612c38565b9050919050565b7f557365722068617320616c726561647920766f74656400000000000000000000600082015250565b6000612cb1601683611f19565b9150612cbc82612c7b565b602082019050919050565b60006020820190508181036000830152612ce081612ca4565b9050919050565b6000608082019050612cfc6000830187612612565b612d096020830186612612565b612d166040830185611f8d565b612d236060830184611f8d565b95945050505050565b7f496e76616c696420766f74654964000000000000000000000000000000000000600082015250565b6000612d62600e83611f19565b9150612d6d82612d2c565b602082019050919050565b60006020820190508181036000830152612d9181612d55565b9050919050565b6000604082019050612dad6000830185612612565b612dba6020830184611f8d565b9392505050565b7f496e76616c696420766f74654944000000000000000000000000000000000000600082015250565b6000612df7600e83611f19565b9150612e0282612dc1565b602082019050919050565b60006020820190508181036000830152612e2681612dea565b9050919050565b7f4e487b7100000000000000000000000000000000000000000000000000000000600052603260045260246000fd5b6000606082019050612e716000830186612612565b612e7e6020830185611f8d565b8181036040830152612e908184611f54565b905094935050505056fea2646970667358221220234fc0d3e99c4d9072f63956f93af8ebdeb062173c7eb122e70c4251f96ee97764736f6c63430008180033",
  "linkReferences": {},
  "deployedLinkReferences": {}
}