{
  "_format": "hh-sol-artifact-1",
  "contractName": "ClubVote",
  "sourceName": "contracts/ClubVote.sol",
  "abi": [
    {
      "anonymous": false,
      "inputs": [
        {
          "indexed": false,
          "internalType": "string",
          "name": "username",
          "type": "string"
        },
        {
          "indexed": false,
          "internalType": "address",
          "name": "addr",
          "type": "address"
        }
      ],
      "name": "userCreated",
      "type": "event"
    },
    {
      "anonymous": false,
      "inputs": [
        {
          "indexed": false,
          "internalType": "uint256",
          "name": "voteID",
          "type": "uint256"
        },
        {
          "indexed": false,
          "internalType": "uint256",
          "name": "optionIndex",
          "type": "uint256"
        },
        {
          "indexed": false,
          "internalType": "address",
          "name": "addr",
          "type": "address"
        }
      ],
      "name": "userVoted",
      "type": "event"
    },
    {
      "anonymous": false,
      "inputs": [
        {
          "indexed": false,
          "internalType": "string",
          "name": "voteName",
          "type": "string"
        },
        {
          "indexed": false,
          "internalType": "string[]",
          "name": "options",
          "type": "string[]"
        }
      ],
      "name": "voteCreated",
      "type": "event"
    },
    {
      "inputs": [],
      "name": "checkUser",
      "outputs": [
        {
          "internalType": "bool",
          "name": "",
          "type": "bool"
        }
      ],
      "stateMutability": "view",
      "type": "function"
    },
    {
      "inputs": [
        {
          "internalType": "string",
          "name": "_username",
          "type": "string"
        }
      ],
      "name": "createUser",
      "outputs": [],
      "stateMutability": "nonpayable",
      "type": "function"
    },
    {
      "inputs": [
        {
          "internalType": "string",
          "name": "_voteName",
          "type": "string"
        },
        {
          "internalType": "string[]",
          "name": "_options",
          "type": "string[]"
        }
      ],
      "name": "createVote",
      "outputs": [],
      "stateMutability": "nonpayable",
      "type": "function"
    },
    {
      "inputs": [
        {
          "internalType": "address",
          "name": "_addr",
          "type": "address"
        }
      ],
      "name": "getCreatedVoteIDs",
      "outputs": [
        {
          "internalType": "uint256[]",
          "name": "",
          "type": "uint256[]"
        }
      ],
      "stateMutability": "view",
      "type": "function"
    },
    {
      "inputs": [
        {
          "internalType": "uint256",
          "name": "_voteID",
          "type": "uint256"
        }
      ],
      "name": "getInfoByID",
      "outputs": [
        {
          "internalType": "address",
          "name": "",
          "type": "address"
        },
        {
          "internalType": "string",
          "name": "",
          "type": "string"
        },
        {
          "internalType": "uint256",
          "name": "",
          "type": "uint256"
        },
        {
          "internalType": "string[]",
          "name": "",
          "type": "string[]"
        },
        {
          "internalType": "uint256[]",
          "name": "",
          "type": "uint256[]"
        }
      ],
      "stateMutability": "view",
      "type": "function"
    },
    {
      "inputs": [
        {
          "internalType": "address",
          "name": "_addr",
          "type": "address"
        }
      ],
      "name": "getUserName",
      "outputs": [
        {
          "internalType": "string",
          "name": "",
          "type": "string"
        }
      ],
      "stateMutability": "view",
      "type": "function"
    },
    {
      "inputs": [
        {
          "internalType": "uint256",
          "name": "_voteID",
          "type": "uint256"
        },
        {
          "internalType": "uint256",
          "name": "_optionIndex",
          "type": "uint256"
        }
      ],
      "name": "vote",
      "outputs": [],
      "stateMutability": "nonpayable",
      "type": "function"
    },
    {
      "inputs": [
        {
          "internalType": "uint256",
          "name": "_voteID",
          "type": "uint256"
        },
        {
          "internalType": "address",
          "name": "_addr",
          "type": "address"
        }
      ],
      "name": "voteCheck",
      "outputs": [
        {
          "internalType": "bool",
          "name": "",
          "type": "bool"
        }
      ],
      "stateMutability": "view",
      "type": "function"
    }
  ],
  "bytecode": "0x60806040526000805534801561001457600080fd5b50611966806100246000396000f3fe608060405234801561001057600080fd5b50600436106100885760003560e01c8063b384abef1161005b578063b384abef14610129578063c156254714610145578063d84f55ee14610163578063ee3186831461019357610088565b806317b518941461008d578063507ffba5146100c157806390a3a11f146100dd57806394807b5f146100f9575b600080fd5b6100a760048036038101906100a29190610c97565b6101c3565b6040516100b8959493929190610f6e565b60405180910390f35b6100db60048036038101906100d6919061110b565b6103de565b005b6100f760048036038101906100f2919061123a565b610520565b005b610113600480360381019061010e91906112de565b6107c5565b604051610120919061130b565b60405180910390f35b610143600480360381019061013e919061132d565b61085f565b005b61014d610a4b565b60405161015a9190611388565b60405180910390f35b61017d600480360381019061017891906112de565b610ab3565b60405161018a91906113a3565b60405180910390f35b6101ad60048036038101906101a891906113c5565b610be2565b6040516101ba9190611388565b60405180910390f35b60006060600060608060006002600088815260200190815260200160002090508060000160009054906101000a900473ffffffffffffffffffffffffffffffffffffffff16816001018260040154836002018460030183805461022590611434565b80601f016020809104026020016040519081016040528092919081815260200182805461025190611434565b801561029e5780601f106102735761010080835404028352916020019161029e565b820191906000526020600020905b81548152906001019060200180831161028157829003601f168201915b5050505050935081805480602002602001604051908101604052809291908181526020016000905b828210156103725783829060005260206000200180546102e590611434565b80601f016020809104026020016040519081016040528092919081815260200182805461031190611434565b801561035e5780601f106103335761010080835404028352916020019161035e565b820191906000526020600020905b81548152906001019060200180831161034157829003601f168201915b5050505050815260200190600101906102c6565b505050509150808054806020026020016040519081016040528092919081815260200182805480156103c357602002820191906000526020600020905b8154815260200190600101908083116103af575b50505050509050955095509550955095505091939590929450565b33600160008273ffffffffffffffffffffffffffffffffffffffff1673ffffffffffffffffffffffffffffffffffffffff16815260200190815260200160002060010160009054906101000a900460ff161561043957600080fd5b81600160003373ffffffffffffffffffffffffffffffffffffffff1673ffffffffffffffffffffffffffffffffffffffff16815260200190815260200160002060000190816104889190611611565b5060018060003373ffffffffffffffffffffffffffffffffffffffff1673ffffffffffffffffffffffffffffffffffffffff16815260200190815260200160002060010160006101000a81548160ff0219169083151502179055507f35ec00e3e3c0155f7e9aaa1c43d14199b44f430fec3bc383f0ea649281e2122482336040516105149291906116e3565b60405180910390a15050565b33600160008273ffffffffffffffffffffffffffffffffffffffff1673ffffffffffffffffffffffffffffffffffffffff16815260200190815260200160002060010160009054906101000a900460ff1661057a57600080fd5b600033426000546040516020016105939392919061177c565b6040516020818303038152906040528051906020012060001c90506000600260008381526020019081526020016000209050600160003373ffffffffffffffffffffffffffffffffffffffff1673ffffffffffffffffffffffffffffffffffffffff168152602001908152602001600020600201829080600181540180825580915050600190039060005260206000200160009091909190915055338160000160006101000a81548173ffffffffffffffffffffffffffffffffffffffff021916908373ffffffffffffffffffffffffffffffffffffffff16021790555060018160000160146101000a81548160ff0219169083151502179055508481600101908161069f9190611611565b508351816004018190555060005b8451811015610740578160030160009080600181540180825580915050600190039060005260206000200160009091909190915055816002018582815181106106f9576106f86117b9565b5b60200260200101519080600181540180825580915050600190039060005260206000200160009091909190915090816107329190611611565b5080806001019150506106ad565b5060008160060160006101000a81548160ff02191690836001811115610769576107686117e8565b5b021790555060008081548092919061078090611846565b91905055507f44607de47f9c19db10d40febb599cc7bb46fefea4602b1562ec8691fd1a5643f85856040516107b692919061188e565b60405180910390a15050505050565b6060600160008373ffffffffffffffffffffffffffffffffffffffff1673ffffffffffffffffffffffffffffffffffffffff16815260200190815260200160002060020180548060200260200160405190810160405280929190818152602001828054801561085357602002820191906000526020600020905b81548152602001906001019080831161083f575b50505050509050919050565b816002600082815260200190815260200160002060000160149054906101000a900460ff1661088d57600080fd5b33836002600082815260200190815260200160002060050160008373ffffffffffffffffffffffffffffffffffffffff1673ffffffffffffffffffffffffffffffffffffffff16815260200190815260200160002060009054906101000a900460ff16156108fa57600080fd5b33600160008273ffffffffffffffffffffffffffffffffffffffff1673ffffffffffffffffffffffffffffffffffffffff16815260200190815260200160002060010160009054906101000a900460ff1661095457600080fd5b60006002600088815260200190815260200160002090508060030160018761097c91906118c5565b8154811061098d5761098c6117b9565b5b9060005260206000200160008154809291906109a890611846565b919050555060018160050160003373ffffffffffffffffffffffffffffffffffffffff1673ffffffffffffffffffffffffffffffffffffffff16815260200190815260200160002060006101000a81548160ff0219169083151502179055507fa384a352a68a0510afd67c3bb3a351080513ea83eb0b9946c2cbf5179e0f7155878733604051610a3a939291906118f9565b60405180910390a150505050505050565b6000600160003373ffffffffffffffffffffffffffffffffffffffff1673ffffffffffffffffffffffffffffffffffffffff16815260200190815260200160002060010160009054906101000a900460ff1615610aab5760019050610ab0565b600090505b90565b606081600160008273ffffffffffffffffffffffffffffffffffffffff1673ffffffffffffffffffffffffffffffffffffffff16815260200190815260200160002060010160009054906101000a900460ff16610b0f57600080fd5b600160008473ffffffffffffffffffffffffffffffffffffffff1673ffffffffffffffffffffffffffffffffffffffff1681526020019081526020016000206000018054610b5c90611434565b80601f0160208091040260200160405190810160405280929190818152602001828054610b8890611434565b8015610bd55780601f10610baa57610100808354040283529160200191610bd5565b820191906000526020600020905b815481529060010190602001808311610bb857829003601f168201915b5050505050915050919050565b60006002600084815260200190815260200160002060050160008373ffffffffffffffffffffffffffffffffffffffff1673ffffffffffffffffffffffffffffffffffffffff16815260200190815260200160002060009054906101000a900460ff16905092915050565b6000604051905090565b600080fd5b600080fd5b6000819050919050565b610c7481610c61565b8114610c7f57600080fd5b50565b600081359050610c9181610c6b565b92915050565b600060208284031215610cad57610cac610c57565b5b6000610cbb84828501610c82565b91505092915050565b600073ffffffffffffffffffffffffffffffffffffffff82169050919050565b6000610cef82610cc4565b9050919050565b610cff81610ce4565b82525050565b600081519050919050565b600082825260208201905092915050565b60005b83811015610d3f578082015181840152602081019050610d24565b60008484015250505050565b6000601f19601f8301169050919050565b6000610d6782610d05565b610d718185610d10565b9350610d81818560208601610d21565b610d8a81610d4b565b840191505092915050565b610d9e81610c61565b82525050565b600081519050919050565b600082825260208201905092915050565b6000819050602082019050919050565b600082825260208201905092915050565b6000610dec82610d05565b610df68185610dd0565b9350610e06818560208601610d21565b610e0f81610d4b565b840191505092915050565b6000610e268383610de1565b905092915050565b6000602082019050919050565b6000610e4682610da4565b610e508185610daf565b935083602082028501610e6285610dc0565b8060005b85811015610e9e5784840389528151610e7f8582610e1a565b9450610e8a83610e2e565b925060208a01995050600181019050610e66565b50829750879550505050505092915050565b600081519050919050565b600082825260208201905092915050565b6000819050602082019050919050565b610ee581610c61565b82525050565b6000610ef78383610edc565b60208301905092915050565b6000602082019050919050565b6000610f1b82610eb0565b610f258185610ebb565b9350610f3083610ecc565b8060005b83811015610f61578151610f488882610eeb565b9750610f5383610f03565b925050600181019050610f34565b5085935050505092915050565b600060a082019050610f836000830188610cf6565b8181036020830152610f958187610d5c565b9050610fa46040830186610d95565b8181036060830152610fb68185610e3b565b90508181036080830152610fca8184610f10565b90509695505050505050565b600080fd5b600080fd5b7f4e487b7100000000000000000000000000000000000000000000000000000000600052604160045260246000fd5b61101882610d4b565b810181811067ffffffffffffffff8211171561103757611036610fe0565b5b80604052505050565b600061104a610c4d565b9050611056828261100f565b919050565b600067ffffffffffffffff82111561107657611075610fe0565b5b61107f82610d4b565b9050602081019050919050565b82818337600083830152505050565b60006110ae6110a98461105b565b611040565b9050828152602081018484840111156110ca576110c9610fdb565b5b6110d584828561108c565b509392505050565b600082601f8301126110f2576110f1610fd6565b5b813561110284826020860161109b565b91505092915050565b60006020828403121561112157611120610c57565b5b600082013567ffffffffffffffff81111561113f5761113e610c5c565b5b61114b848285016110dd565b91505092915050565b600067ffffffffffffffff82111561116f5761116e610fe0565b5b602082029050602081019050919050565b600080fd5b600061119861119384611154565b611040565b905080838252602082019050602084028301858111156111bb576111ba611180565b5b835b8181101561120257803567ffffffffffffffff8111156111e0576111df610fd6565b5b8086016111ed89826110dd565b855260208501945050506020810190506111bd565b5050509392505050565b600082601f83011261122157611220610fd6565b5b8135611231848260208601611185565b91505092915050565b6000806040838503121561125157611250610c57565b5b600083013567ffffffffffffffff81111561126f5761126e610c5c565b5b61127b858286016110dd565b925050602083013567ffffffffffffffff81111561129c5761129b610c5c565b5b6112a88582860161120c565b9150509250929050565b6112bb81610ce4565b81146112c657600080fd5b50565b6000813590506112d8816112b2565b92915050565b6000602082840312156112f4576112f3610c57565b5b6000611302848285016112c9565b91505092915050565b600060208201905081810360008301526113258184610f10565b905092915050565b6000806040838503121561134457611343610c57565b5b600061135285828601610c82565b925050602061136385828601610c82565b9150509250929050565b60008115159050919050565b6113828161136d565b82525050565b600060208201905061139d6000830184611379565b92915050565b600060208201905081810360008301526113bd8184610d5c565b905092915050565b600080604083850312156113dc576113db610c57565b5b60006113ea85828601610c82565b92505060206113fb858286016112c9565b9150509250929050565b7f4e487b7100000000000000000000000000000000000000000000000000000000600052602260045260246000fd5b6000600282049050600182168061144c57607f821691505b60208210810361145f5761145e611405565b5b50919050565b60008190508160005260206000209050919050565b60006020601f8301049050919050565b600082821b905092915050565b6000600883026114c77fffffffffffffffffffffffffffffffffffffffffffffffffffffffffffffffff8261148a565b6114d1868361148a565b95508019841693508086168417925050509392505050565b6000819050919050565b600061150e61150961150484610c61565b6114e9565b610c61565b9050919050565b6000819050919050565b611528836114f3565b61153c61153482611515565b848454611497565b825550505050565b600090565b611551611544565b61155c81848461151f565b505050565b5b8181101561158057611575600082611549565b600181019050611562565b5050565b601f8211156115c55761159681611465565b61159f8461147a565b810160208510156115ae578190505b6115c26115ba8561147a565b830182611561565b50505b505050565b600082821c905092915050565b60006115e8600019846008026115ca565b1980831691505092915050565b600061160183836115d7565b9150826002028217905092915050565b61161a82610d05565b67ffffffffffffffff81111561163357611632610fe0565b5b61163d8254611434565b611648828285611584565b600060209050601f83116001811461167b5760008415611669578287015190505b61167385826115f5565b8655506116db565b601f19841661168986611465565b60005b828110156116b15784890151825560018201915060208501945060208101905061168c565b868310156116ce57848901516116ca601f8916826115d7565b8355505b6001600288020188555050505b505050505050565b600060408201905081810360008301526116fd8185610d5c565b905061170c6020830184610cf6565b9392505050565b60008160601b9050919050565b600061172b82611713565b9050919050565b600061173d82611720565b9050919050565b61175561175082610ce4565b611732565b82525050565b6000819050919050565b61177661177182610c61565b61175b565b82525050565b60006117888286611744565b6014820191506117988285611765565b6020820191506117a88284611765565b602082019150819050949350505050565b7f4e487b7100000000000000000000000000000000000000000000000000000000600052603260045260246000fd5b7f4e487b7100000000000000000000000000000000000000000000000000000000600052602160045260246000fd5b7f4e487b7100000000000000000000000000000000000000000000000000000000600052601160045260246000fd5b600061185182610c61565b91507fffffffffffffffffffffffffffffffffffffffffffffffffffffffffffffffff820361188357611882611817565b5b600182019050919050565b600060408201905081810360008301526118a88185610d5c565b905081810360208301526118bc8184610e3b565b90509392505050565b60006118d082610c61565b91506118db83610c61565b92508282039050818111156118f3576118f2611817565b5b92915050565b600060608201905061190e6000830186610d95565b61191b6020830185610d95565b6119286040830184610cf6565b94935050505056fea2646970667358221220ce1119e3feb35572ce785d4b10d35490255b0acfda05db366cf707150be8f47764736f6c63430008180033",
  "linkReferences": {},
  "deployedLinkReferences": {}
}