{
  "_format": "hh-sol-artifact-1",
  "contractName": "ClubVote",
  "sourceName": "contracts/ClubVote.sol",
  "abi": [
    {
      "anonymous": false,
      "inputs": [
        {
          "indexed": false,
          "internalType": "address",
          "name": "clubAddress",
          "type": "address"
        },
        {
          "indexed": false,
          "internalType": "address",
          "name": "user",
          "type": "address"
        }
      ],
      "name": "MemberApproved",
      "type": "event"
    },
    {
      "anonymous": false,
      "inputs": [
        {
          "indexed": false,
          "internalType": "address",
          "name": "clubAddress",
          "type": "address"
        },
        {
          "indexed": false,
          "internalType": "address",
          "name": "user",
          "type": "address"
        }
      ],
      "name": "MemberJoined",
      "type": "event"
    },
    {
      "anonymous": false,
      "inputs": [
        {
          "indexed": false,
          "internalType": "address",
          "name": "userAddress",
          "type": "address"
        },
        {
          "indexed": false,
          "internalType": "string",
          "name": "name",
          "type": "string"
        },
        {
          "indexed": false,
          "internalType": "string",
          "name": "clubName",
          "type": "string"
        }
      ],
      "name": "UserRegistered",
      "type": "event"
    },
    {
      "anonymous": false,
      "inputs": [
        {
          "indexed": false,
          "internalType": "address",
          "name": "voter",
          "type": "address"
        },
        {
          "indexed": false,
          "internalType": "address",
          "name": "clubAddress",
          "type": "address"
        },
        {
          "indexed": false,
          "internalType": "uint256",
          "name": "voteId",
          "type": "uint256"
        },
        {
          "indexed": false,
          "internalType": "uint256",
          "name": "choice",
          "type": "uint256"
        }
      ],
      "name": "VoteCast",
      "type": "event"
    },
    {
      "anonymous": false,
      "inputs": [
        {
          "indexed": false,
          "internalType": "address",
          "name": "clubAddress",
          "type": "address"
        },
        {
          "indexed": false,
          "internalType": "uint256",
          "name": "voteId",
          "type": "uint256"
        }
      ],
      "name": "VoteClosed",
      "type": "event"
    },
    {
      "anonymous": false,
      "inputs": [
        {
          "indexed": false,
          "internalType": "address",
          "name": "clubAddress",
          "type": "address"
        },
        {
          "indexed": false,
          "internalType": "uint256",
          "name": "voteId",
          "type": "uint256"
        },
        {
          "indexed": false,
          "internalType": "string",
          "name": "voteName",
          "type": "string"
        }
      ],
      "name": "VoteCreated",
      "type": "event"
    },
    {
      "inputs": [
        {
          "internalType": "address",
          "name": "userAddress",
          "type": "address"
        }
      ],
      "name": "approveRequest",
      "outputs": [],
      "stateMutability": "nonpayable",
      "type": "function"
    },
    {
      "inputs": [
        {
          "internalType": "uint256",
          "name": "voteId",
          "type": "uint256"
        }
      ],
      "name": "closeVote",
      "outputs": [],
      "stateMutability": "nonpayable",
      "type": "function"
    },
    {
      "inputs": [
        {
          "internalType": "address",
          "name": "",
          "type": "address"
        }
      ],
      "name": "clubs",
      "outputs": [
        {
          "internalType": "string",
          "name": "name",
          "type": "string"
        },
        {
          "internalType": "uint256",
          "name": "voteCount",
          "type": "uint256"
        },
        {
          "internalType": "uint256",
          "name": "memberCount",
          "type": "uint256"
        },
        {
          "internalType": "uint256",
          "name": "approvedMemberCount",
          "type": "uint256"
        }
      ],
      "stateMutability": "view",
      "type": "function"
    },
    {
      "inputs": [
        {
          "internalType": "string",
          "name": "_name",
          "type": "string"
        },
        {
          "internalType": "string[]",
          "name": "_options",
          "type": "string[]"
        }
      ],
      "name": "createVote",
      "outputs": [],
      "stateMutability": "nonpayable",
      "type": "function"
    },
    {
      "inputs": [],
      "name": "getMembers",
      "outputs": [
        {
          "internalType": "string[]",
          "name": "",
          "type": "string[]"
        },
        {
          "internalType": "address[]",
          "name": "",
          "type": "address[]"
        }
      ],
      "stateMutability": "view",
      "type": "function"
    },
    {
      "inputs": [
        {
          "internalType": "uint256",
          "name": "voteID",
          "type": "uint256"
        }
      ],
      "name": "getOptions",
      "outputs": [
        {
          "internalType": "string[]",
          "name": "",
          "type": "string[]"
        },
        {
          "internalType": "uint256[]",
          "name": "",
          "type": "uint256[]"
        }
      ],
      "stateMutability": "view",
      "type": "function"
    },
    {
      "inputs": [],
      "name": "getUserInfo",
      "outputs": [
        {
          "internalType": "string",
          "name": "",
          "type": "string"
        },
        {
          "internalType": "string",
          "name": "",
          "type": "string"
        }
      ],
      "stateMutability": "view",
      "type": "function"
    },
    {
      "inputs": [
        {
          "internalType": "address",
          "name": "_addr",
          "type": "address"
        }
      ],
      "name": "getUsername",
      "outputs": [
        {
          "internalType": "string",
          "name": "",
          "type": "string"
        }
      ],
      "stateMutability": "view",
      "type": "function"
    },
    {
      "inputs": [
        {
          "internalType": "address",
          "name": "addr",
          "type": "address"
        }
      ],
      "name": "getVotes",
      "outputs": [
        {
          "internalType": "string[]",
          "name": "",
          "type": "string[]"
        },
        {
          "internalType": "uint256[]",
          "name": "",
          "type": "uint256[]"
        },
        {
          "internalType": "enum ClubVote.voteStatus[]",
          "name": "",
          "type": "uint8[]"
        }
      ],
      "stateMutability": "view",
      "type": "function"
    },
    {
      "inputs": [
        {
          "internalType": "address",
          "name": "clubAddress",
          "type": "address"
        }
      ],
      "name": "joinClub",
      "outputs": [],
      "stateMutability": "nonpayable",
      "type": "function"
    },
    {
      "inputs": [
        {
          "internalType": "string",
          "name": "userName",
          "type": "string"
        },
        {
          "internalType": "string",
          "name": "clubName",
          "type": "string"
        }
      ],
      "name": "newUser",
      "outputs": [],
      "stateMutability": "nonpayable",
      "type": "function"
    },
    {
      "inputs": [
        {
          "internalType": "address",
          "name": "userAddress",
          "type": "address"
        }
      ],
      "name": "removeMember",
      "outputs": [],
      "stateMutability": "nonpayable",
      "type": "function"
    },
    {
      "inputs": [],
      "name": "testRead",
      "outputs": [
        {
          "internalType": "string",
          "name": "",
          "type": "string"
        }
      ],
      "stateMutability": "pure",
      "type": "function"
    },
    {
      "inputs": [
        {
          "internalType": "address",
          "name": "",
          "type": "address"
        }
      ],
      "name": "users",
      "outputs": [
        {
          "internalType": "string",
          "name": "name",
          "type": "string"
        },
        {
          "internalType": "address",
          "name": "clubAddress",
          "type": "address"
        }
      ],
      "stateMutability": "view",
      "type": "function"
    },
    {
      "inputs": [
        {
          "internalType": "address",
          "name": "clubAddress",
          "type": "address"
        },
        {
          "internalType": "uint256",
          "name": "voteId",
          "type": "uint256"
        },
        {
          "internalType": "uint256",
          "name": "choice",
          "type": "uint256"
        }
      ],
      "name": "vote",
      "outputs": [
        {
          "internalType": "bool",
          "name": "",
          "type": "bool"
        }
      ],
      "stateMutability": "nonpayable",
      "type": "function"
    }
  ],
  "bytecode": "0x608060405234801561001057600080fd5b50612f3c806100206000396000f3fe608060405234801561001057600080fd5b50600436106100f55760003560e01c80636e48a035116100975780639eab5253116100665780639eab525314610287578063a87430ba146102a6578063ce43c032146102d7578063d8688fe014610307576100f5565b80636e48a035146101ec5780638915b3fb1461020857806390a3a11f146102395780639ab24eb014610255576100f5565b80631f34563c116100d35780631f34563c1461014e5780632a4a1b731461016a57806348bd49461461019a5780635d8d1585146101cd576100f5565b8063061dff9a146100fa5780630b1ca49a146101165780631b49d82b14610132575b600080fd5b610114600480360381019061010f9190611cd0565b610325565b005b610130600480360381019061012b9190611cd0565b6104a8565b005b61014c60048036038101906101479190611cd0565b6105f1565b005b61016860048036038101906101639190611e43565b61080c565b005b610184600480360381019061017f9190611ef1565b610a42565b6040516101919190611f5f565b60405180910390f35b6101b460048036038101906101af9190611cd0565b610d09565b6040516101c49493929190612008565b60405180910390f35b6101d5610dc1565b6040516101e3929190612054565b60405180910390f35b6102066004803603810190610201919061208b565b610fd4565b005b610222600480360381019061021d919061208b565b6110db565b604051610230929190612282565b60405180910390f35b610253600480360381019061024e919061239f565b611344565b005b61026f600480360381019061026a9190611cd0565b6114c0565b60405161027e9392919061253d565b60405180910390f35b61028f61178d565b60405161029d929190612647565b60405180910390f35b6102c060048036038101906102bb9190611cd0565b611a7c565b6040516102ce92919061268d565b60405180910390f35b6102f160048036038101906102ec9190611cd0565b611b48565b6040516102fe91906126bd565b60405180910390f35b61030f611c1b565b60405161031c91906126bd565b60405180910390f35b6000600160003373ffffffffffffffffffffffffffffffffffffffff1673ffffffffffffffffffffffffffffffffffffffff16815260200190815260200160002090508060020160008373ffffffffffffffffffffffffffffffffffffffff1673ffffffffffffffffffffffffffffffffffffffff16815260200190815260200160002060009054906101000a900460ff16156103f7576040517f08c379a00000000000000000000000000000000000000000000000000000000081526004016103ee9061272b565b60405180910390fd5b60018160020160008473ffffffffffffffffffffffffffffffffffffffff1673ffffffffffffffffffffffffffffffffffffffff16815260200190815260200160002060006101000a81548160ff0219169083151502179055508060060160008154809291906104669061277a565b91905055507f18376ea99fa0b809ec0f8f2185ba30fd3fa1aa765aa001e14cffb75624f788af338360405161049c9291906127c2565b60405180910390a15050565b6000600160003373ffffffffffffffffffffffffffffffffffffffff1673ffffffffffffffffffffffffffffffffffffffff16815260200190815260200160002090508060020160008373ffffffffffffffffffffffffffffffffffffffff1673ffffffffffffffffffffffffffffffffffffffff16815260200190815260200160002060009054906101000a900460ff16610579576040517f08c379a000000000000000000000000000000000000000000000000000000000815260040161057090612837565b60405180910390fd5b60008160020160008473ffffffffffffffffffffffffffffffffffffffff1673ffffffffffffffffffffffffffffffffffffffff16815260200190815260200160002060006101000a81548160ff0219169083151502179055508060060160008154809291906105e890612857565b91905055505050565b8073ffffffffffffffffffffffffffffffffffffffff166000803373ffffffffffffffffffffffffffffffffffffffff1673ffffffffffffffffffffffffffffffffffffffff16815260200190815260200160002060010160009054906101000a900473ffffffffffffffffffffffffffffffffffffffff1673ffffffffffffffffffffffffffffffffffffffff16036106c0576040517f08c379a00000000000000000000000000000000000000000000000000000000081526004016106b7906128cc565b60405180910390fd5b6000600160008373ffffffffffffffffffffffffffffffffffffffff1673ffffffffffffffffffffffffffffffffffffffff1681526020019081526020016000209050338160010160008360050154815260200190815260200160002060006101000a81548173ffffffffffffffffffffffffffffffffffffffff021916908373ffffffffffffffffffffffffffffffffffffffff1602179055508060050160008154809291906107709061277a565b919050555060008160020160003373ffffffffffffffffffffffffffffffffffffffff1673ffffffffffffffffffffffffffffffffffffffff16815260200190815260200160002060006101000a81548160ff0219169083151502179055507fb168e0b33ed126dec210fb14910d562a068905fb3431f3abe71b964e9e1b119a82336040516108009291906127c2565b60405180910390a15050565b80600160003373ffffffffffffffffffffffffffffffffffffffff1673ffffffffffffffffffffffffffffffffffffffff168152602001908152602001600020600001908161085b9190612af8565b506000600160003373ffffffffffffffffffffffffffffffffffffffff1673ffffffffffffffffffffffffffffffffffffffff168152602001908152602001600020600401819055506000600160003373ffffffffffffffffffffffffffffffffffffffff1673ffffffffffffffffffffffffffffffffffffffff168152602001908152602001600020600501819055506000600160003373ffffffffffffffffffffffffffffffffffffffff1673ffffffffffffffffffffffffffffffffffffffff16815260200190815260200160002060060181905550816000803373ffffffffffffffffffffffffffffffffffffffff1673ffffffffffffffffffffffffffffffffffffffff16815260200190815260200160002060000190816109829190612af8565b50336000803373ffffffffffffffffffffffffffffffffffffffff1673ffffffffffffffffffffffffffffffffffffffff16815260200190815260200160002060010160006101000a81548173ffffffffffffffffffffffffffffffffffffffff021916908373ffffffffffffffffffffffffffffffffffffffff1602179055507f92822564bab8864c3a47b34e8d23fbce5c46234eb5da261f94087b995ac0f33b338383604051610a3693929190612bca565b60405180910390a15050565b600080600160008673ffffffffffffffffffffffffffffffffffffffff1673ffffffffffffffffffffffffffffffffffffffff16815260200190815260200160002090508060020160003373ffffffffffffffffffffffffffffffffffffffff1673ffffffffffffffffffffffffffffffffffffffff16815260200190815260200160002060009054906101000a900460ff16610b14576040517f08c379a0000000000000000000000000000000000000000000000000000000008152600401610b0b90612c5b565b60405180910390fd5b6000816003016000868152602001908152602001600020905060006001811115610b4157610b40612443565b5b8160060160009054906101000a900460ff166001811115610b6557610b64612443565b5b14610ba5576040517f08c379a0000000000000000000000000000000000000000000000000000000008152600401610b9c90612cc7565b60405180910390fd5b60008160050160003373ffffffffffffffffffffffffffffffffffffffff1673ffffffffffffffffffffffffffffffffffffffff16815260200190815260200160002060009054906101000a900460ff1690508015610c39576040517f08c379a0000000000000000000000000000000000000000000000000000000008152600401610c3090612d33565b60405180910390fd5b8160030160008681526020019081526020016000206000815480929190610c5f9061277a565b919050555060018260050160003373ffffffffffffffffffffffffffffffffffffffff1673ffffffffffffffffffffffffffffffffffffffff16815260200190815260200160002060006101000a81548160ff0219169083151502179055507f1ed37da89ec73264fe3ff50d20d92f19845180819831a4f5dbfb4bf282f0fa5733888888604051610cf39493929190612d53565b60405180910390a1600193505050509392505050565b6001602052806000526040600020600091509050806000018054610d2c9061291b565b80601f0160208091040260200160405190810160405280929190818152602001828054610d589061291b565b8015610da55780601f10610d7a57610100808354040283529160200191610da5565b820191906000526020600020905b815481529060010190602001808311610d8857829003601f168201915b5050505050908060040154908060050154908060060154905084565b60608060008060003373ffffffffffffffffffffffffffffffffffffffff1673ffffffffffffffffffffffffffffffffffffffff1681526020019081526020016000206000018054610e129061291b565b80601f0160208091040260200160405190810160405280929190818152602001828054610e3e9061291b565b8015610e8b5780601f10610e6057610100808354040283529160200191610e8b565b820191906000526020600020905b815481529060010190602001808311610e6e57829003601f168201915b5050505050905060008060003373ffffffffffffffffffffffffffffffffffffffff1673ffffffffffffffffffffffffffffffffffffffff16815260200190815260200160002060010160009054906101000a900473ffffffffffffffffffffffffffffffffffffffff1690506000600160008373ffffffffffffffffffffffffffffffffffffffff1673ffffffffffffffffffffffffffffffffffffffff1681526020019081526020016000206000018054610f479061291b565b80601f0160208091040260200160405190810160405280929190818152602001828054610f739061291b565b8015610fc05780601f10610f9557610100808354040283529160200191610fc0565b820191906000526020600020905b815481529060010190602001808311610fa357829003601f168201915b505050505090508281945094505050509091565b6000600160003373ffffffffffffffffffffffffffffffffffffffff1673ffffffffffffffffffffffffffffffffffffffff16815260200190815260200160002090508060040154821061105d576040517f08c379a000000000000000000000000000000000000000000000000000000000815260040161105490612de4565b60405180910390fd5b600181600301600084815260200190815260200160002060060160006101000a81548160ff0219169083600181111561109957611098612443565b5b02179055507ff3f834a80d87be6dcb993a5939836ccd60d9ae9bdd02be4a3ddd50f89db59d3533836040516110cf929190612e04565b60405180910390a15050565b6060806000600160003373ffffffffffffffffffffffffffffffffffffffff1673ffffffffffffffffffffffffffffffffffffffff168152602001908152602001600020905080600401548410611167576040517f08c379a000000000000000000000000000000000000000000000000000000000815260040161115e90612e79565b60405180910390fd5b600081600301600086815260200190815260200160002090506000816001015467ffffffffffffffff8111156111a05761119f611d18565b5b6040519080825280602002602001820160405280156111d357816020015b60608152602001906001900390816111be5790505b5090506000826001015467ffffffffffffffff8111156111f6576111f5611d18565b5b6040519080825280602002602001820160405280156112245781602001602082028036833780820191505090505b50905060005b83600101548110156113345783600201600082815260200190815260200160002080546112569061291b565b80601f01602080910402602001604051908101604052809291908181526020018280546112829061291b565b80156112cf5780601f106112a4576101008083540402835291602001916112cf565b820191906000526020600020905b8154815290600101906020018083116112b257829003601f168201915b50505050508382815181106112e7576112e6612e99565b5b60200260200101819052508360030160008281526020019081526020016000205482828151811061131b5761131a612e99565b5b602002602001018181525050808060010191505061122a565b5081819550955050505050915091565b6000600160003373ffffffffffffffffffffffffffffffffffffffff1673ffffffffffffffffffffffffffffffffffffffff168152602001908152602001600020905060008160040154905060008260030160008381526020019081526020016000209050848160000190816113ba9190612af8565b5060008160060160006101000a81548160ff021916908360018111156113e3576113e2612443565b5b02179055508351816001018190555060005b84518110156114635784818151811061141157611410612e99565b5b6020026020010151826002016000838152602001908152602001600020908161143a9190612af8565b5060008260030160008381526020019081526020016000208190555080806001019150506113f5565b508260040160008154809291906114799061277a565b91905055507fcf25a6c234cc59090a48bec904c01b25e267d66e3c1893f65c4b15ad21fde8763383876040516114b193929190612ec8565b60405180910390a15050505050565b60608060606000600160008673ffffffffffffffffffffffffffffffffffffffff1673ffffffffffffffffffffffffffffffffffffffff168152602001908152602001600020905060008160040154905060008167ffffffffffffffff81111561152d5761152c611d18565b5b60405190808252806020026020018201604052801561156057816020015b606081526020019060019003908161154b5790505b50905060008267ffffffffffffffff81111561157f5761157e611d18565b5b6040519080825280602002602001820160405280156115ad5781602001602082028036833780820191505090505b50905060008367ffffffffffffffff8111156115cc576115cb611d18565b5b6040519080825280602002602001820160405280156115fa5781602001602082028036833780820191505090505b50905060005b8481101561177757856003016000828152602001908152602001600020600001805461162b9061291b565b80601f01602080910402602001604051908101604052809291908181526020018280546116579061291b565b80156116a45780601f10611679576101008083540402835291602001916116a4565b820191906000526020600020905b81548152906001019060200180831161168757829003601f168201915b50505050508482815181106116bc576116bb612e99565b5b6020026020010181905250856003016000828152602001908152602001600020600101548382815181106116f3576116f2612e99565b5b60200260200101818152505085600301600082815260200190815260200160002060060160009054906101000a900460ff1682828151811061173857611737612e99565b5b6020026020010190600181111561175257611751612443565b5b9081600181111561176657611765612443565b5b815250508080600101915050611600565b5082828297509750975050505050509193909250565b6060806000600160003373ffffffffffffffffffffffffffffffffffffffff1673ffffffffffffffffffffffffffffffffffffffff168152602001908152602001600020905060008160060154905060008167ffffffffffffffff8111156117f8576117f7611d18565b5b60405190808252806020026020018201604052801561182b57816020015b60608152602001906001900390816118165790505b50905060008267ffffffffffffffff81111561184a57611849611d18565b5b6040519080825280602002602001820160405280156118785781602001602082028036833780820191505090505b5090506000805b8560050154811015611a6c57600086600101600083815260200190815260200160002060009054906101000a900473ffffffffffffffffffffffffffffffffffffffff1690508660020160008273ffffffffffffffffffffffffffffffffffffffff1673ffffffffffffffffffffffffffffffffffffffff16815260200190815260200160002060009054906101000a900460ff1615611a5e576000808273ffffffffffffffffffffffffffffffffffffffff1673ffffffffffffffffffffffffffffffffffffffff16815260200190815260200160002060000180546119659061291b565b80601f01602080910402602001604051908101604052809291908181526020018280546119919061291b565b80156119de5780601f106119b3576101008083540402835291602001916119de565b820191906000526020600020905b8154815290600101906020018083116119c157829003601f168201915b50505050508584815181106119f6576119f5612e99565b5b602002602001018190525080848481518110611a1557611a14612e99565b5b602002602001019073ffffffffffffffffffffffffffffffffffffffff16908173ffffffffffffffffffffffffffffffffffffffff16815250508280611a5a9061277a565b9350505b50808060010191505061187f565b5082829650965050505050509091565b6000602052806000526040600020600091509050806000018054611a9f9061291b565b80601f0160208091040260200160405190810160405280929190818152602001828054611acb9061291b565b8015611b185780601f10611aed57610100808354040283529160200191611b18565b820191906000526020600020905b815481529060010190602001808311611afb57829003601f168201915b5050505050908060010160009054906101000a900473ffffffffffffffffffffffffffffffffffffffff16905082565b60606000808373ffffffffffffffffffffffffffffffffffffffff1673ffffffffffffffffffffffffffffffffffffffff1681526020019081526020016000206000018054611b969061291b565b80601f0160208091040260200160405190810160405280929190818152602001828054611bc29061291b565b8015611c0f5780601f10611be457610100808354040283529160200191611c0f565b820191906000526020600020905b815481529060010190602001808311611bf257829003601f168201915b50505050509050919050565b606060006040518060400160405280600481526020017f4d656f770000000000000000000000000000000000000000000000000000000081525090508091505090565b6000604051905090565b600080fd5b600080fd5b600073ffffffffffffffffffffffffffffffffffffffff82169050919050565b6000611c9d82611c72565b9050919050565b611cad81611c92565b8114611cb857600080fd5b50565b600081359050611cca81611ca4565b92915050565b600060208284031215611ce657611ce5611c68565b5b6000611cf484828501611cbb565b91505092915050565b600080fd5b600080fd5b6000601f19601f8301169050919050565b7f4e487b7100000000000000000000000000000000000000000000000000000000600052604160045260246000fd5b611d5082611d07565b810181811067ffffffffffffffff82111715611d6f57611d6e611d18565b5b80604052505050565b6000611d82611c5e565b9050611d8e8282611d47565b919050565b600067ffffffffffffffff821115611dae57611dad611d18565b5b611db782611d07565b9050602081019050919050565b82818337600083830152505050565b6000611de6611de184611d93565b611d78565b905082815260208101848484011115611e0257611e01611d02565b5b611e0d848285611dc4565b509392505050565b600082601f830112611e2a57611e29611cfd565b5b8135611e3a848260208601611dd3565b91505092915050565b60008060408385031215611e5a57611e59611c68565b5b600083013567ffffffffffffffff811115611e7857611e77611c6d565b5b611e8485828601611e15565b925050602083013567ffffffffffffffff811115611ea557611ea4611c6d565b5b611eb185828601611e15565b9150509250929050565b6000819050919050565b611ece81611ebb565b8114611ed957600080fd5b50565b600081359050611eeb81611ec5565b92915050565b600080600060608486031215611f0a57611f09611c68565b5b6000611f1886828701611cbb565b9350506020611f2986828701611edc565b9250506040611f3a86828701611edc565b9150509250925092565b60008115159050919050565b611f5981611f44565b82525050565b6000602082019050611f746000830184611f50565b92915050565b600081519050919050565b600082825260208201905092915050565b60005b83811015611fb4578082015181840152602081019050611f99565b60008484015250505050565b6000611fcb82611f7a565b611fd58185611f85565b9350611fe5818560208601611f96565b611fee81611d07565b840191505092915050565b61200281611ebb565b82525050565b600060808201905081810360008301526120228187611fc0565b90506120316020830186611ff9565b61203e6040830185611ff9565b61204b6060830184611ff9565b95945050505050565b6000604082019050818103600083015261206e8185611fc0565b905081810360208301526120828184611fc0565b90509392505050565b6000602082840312156120a1576120a0611c68565b5b60006120af84828501611edc565b91505092915050565b600081519050919050565b600082825260208201905092915050565b6000819050602082019050919050565b600082825260208201905092915050565b600061210082611f7a565b61210a81856120e4565b935061211a818560208601611f96565b61212381611d07565b840191505092915050565b600061213a83836120f5565b905092915050565b6000602082019050919050565b600061215a826120b8565b61216481856120c3565b935083602082028501612176856120d4565b8060005b858110156121b25784840389528151612193858261212e565b945061219e83612142565b925060208a0199505060018101905061217a565b50829750879550505050505092915050565b600081519050919050565b600082825260208201905092915050565b6000819050602082019050919050565b6121f981611ebb565b82525050565b600061220b83836121f0565b60208301905092915050565b6000602082019050919050565b600061222f826121c4565b61223981856121cf565b9350612244836121e0565b8060005b8381101561227557815161225c88826121ff565b975061226783612217565b925050600181019050612248565b5085935050505092915050565b6000604082019050818103600083015261229c818561214f565b905081810360208301526122b08184612224565b90509392505050565b600067ffffffffffffffff8211156122d4576122d3611d18565b5b602082029050602081019050919050565b600080fd5b60006122fd6122f8846122b9565b611d78565b905080838252602082019050602084028301858111156123205761231f6122e5565b5b835b8181101561236757803567ffffffffffffffff81111561234557612344611cfd565b5b8086016123528982611e15565b85526020850194505050602081019050612322565b5050509392505050565b600082601f83011261238657612385611cfd565b5b81356123968482602086016122ea565b91505092915050565b600080604083850312156123b6576123b5611c68565b5b600083013567ffffffffffffffff8111156123d4576123d3611c6d565b5b6123e085828601611e15565b925050602083013567ffffffffffffffff81111561240157612400611c6d565b5b61240d85828601612371565b9150509250929050565b600081519050919050565b600082825260208201905092915050565b6000819050602082019050919050565b7f4e487b7100000000000000000000000000000000000000000000000000000000600052602160045260246000fd5b6002811061248357612482612443565b5b50565b600081905061249482612472565b919050565b60006124a482612486565b9050919050565b6124b481612499565b82525050565b60006124c683836124ab565b60208301905092915050565b6000602082019050919050565b60006124ea82612417565b6124f48185612422565b93506124ff83612433565b8060005b8381101561253057815161251788826124ba565b9750612522836124d2565b925050600181019050612503565b5085935050505092915050565b60006060820190508181036000830152612557818661214f565b9050818103602083015261256b8185612224565b9050818103604083015261257f81846124df565b9050949350505050565b600081519050919050565b600082825260208201905092915050565b6000819050602082019050919050565b6125be81611c92565b82525050565b60006125d083836125b5565b60208301905092915050565b6000602082019050919050565b60006125f482612589565b6125fe8185612594565b9350612609836125a5565b8060005b8381101561263a57815161262188826125c4565b975061262c836125dc565b92505060018101905061260d565b5085935050505092915050565b60006040820190508181036000830152612661818561214f565b9050818103602083015261267581846125e9565b90509392505050565b61268781611c92565b82525050565b600060408201905081810360008301526126a78185611fc0565b90506126b6602083018461267e565b9392505050565b600060208201905081810360008301526126d78184611fc0565b905092915050565b7f5573657220616c726561647920617070726f7665640000000000000000000000600082015250565b6000612715601583611f85565b9150612720826126df565b602082019050919050565b6000602082019050818103600083015261274481612708565b9050919050565b7f4e487b7100000000000000000000000000000000000000000000000000000000600052601160045260246000fd5b600061278582611ebb565b91507fffffffffffffffffffffffffffffffffffffffffffffffffffffffffffffffff82036127b7576127b661274b565b5b600182019050919050565b60006040820190506127d7600083018561267e565b6127e4602083018461267e565b9392505050565b7f55736572206e6f742061206d656d626572000000000000000000000000000000600082015250565b6000612821601183611f85565b915061282c826127eb565b602082019050919050565b6000602082019050818103600083015261285081612814565b9050919050565b600061286282611ebb565b9150600082036128755761287461274b565b5b600182039050919050565b7f416c72656164792061206d656d62657200000000000000000000000000000000600082015250565b60006128b6601083611f85565b91506128c182612880565b602082019050919050565b600060208201905081810360008301526128e5816128a9565b9050919050565b7f4e487b7100000000000000000000000000000000000000000000000000000000600052602260045260246000fd5b6000600282049050600182168061293357607f821691505b602082108103612946576129456128ec565b5b50919050565b60008190508160005260206000209050919050565b60006020601f8301049050919050565b600082821b905092915050565b6000600883026129ae7fffffffffffffffffffffffffffffffffffffffffffffffffffffffffffffffff82612971565b6129b88683612971565b95508019841693508086168417925050509392505050565b6000819050919050565b60006129f56129f06129eb84611ebb565b6129d0565b611ebb565b9050919050565b6000819050919050565b612a0f836129da565b612a23612a1b826129fc565b84845461297e565b825550505050565b600090565b612a38612a2b565b612a43818484612a06565b505050565b5b81811015612a6757612a5c600082612a30565b600181019050612a49565b5050565b601f821115612aac57612a7d8161294c565b612a8684612961565b81016020851015612a95578190505b612aa9612aa185612961565b830182612a48565b50505b505050565b600082821c905092915050565b6000612acf60001984600802612ab1565b1980831691505092915050565b6000612ae88383612abe565b9150826002028217905092915050565b612b0182611f7a565b67ffffffffffffffff811115612b1a57612b19611d18565b5b612b24825461291b565b612b2f828285612a6b565b600060209050601f831160018114612b625760008415612b50578287015190505b612b5a8582612adc565b865550612bc2565b601f198416612b708661294c565b60005b82811015612b9857848901518255600182019150602085019450602081019050612b73565b86831015612bb55784890151612bb1601f891682612abe565b8355505b6001600288020188555050505b505050505050565b6000606082019050612bdf600083018661267e565b8181036020830152612bf18185611fc0565b90508181036040830152612c058184611fc0565b9050949350505050565b7f4e6f7420616e20617070726f766564206d656d62657200000000000000000000600082015250565b6000612c45601683611f85565b9150612c5082612c0f565b602082019050919050565b60006020820190508181036000830152612c7481612c38565b9050919050565b7f566f7465206973206e6f74206f6e676f696e6700000000000000000000000000600082015250565b6000612cb1601383611f85565b9150612cbc82612c7b565b602082019050919050565b60006020820190508181036000830152612ce081612ca4565b9050919050565b7f557365722068617320616c726561647920766f74656400000000000000000000600082015250565b6000612d1d601683611f85565b9150612d2882612ce7565b602082019050919050565b60006020820190508181036000830152612d4c81612d10565b9050919050565b6000608082019050612d68600083018761267e565b612d75602083018661267e565b612d826040830185611ff9565b612d8f6060830184611ff9565b95945050505050565b7f496e76616c696420766f74654964000000000000000000000000000000000000600082015250565b6000612dce600e83611f85565b9150612dd982612d98565b602082019050919050565b60006020820190508181036000830152612dfd81612dc1565b9050919050565b6000604082019050612e19600083018561267e565b612e266020830184611ff9565b9392505050565b7f496e76616c696420766f74654944000000000000000000000000000000000000600082015250565b6000612e63600e83611f85565b9150612e6e82612e2d565b602082019050919050565b60006020820190508181036000830152612e9281612e56565b9050919050565b7f4e487b7100000000000000000000000000000000000000000000000000000000600052603260045260246000fd5b6000606082019050612edd600083018661267e565b612eea6020830185611ff9565b8181036040830152612efc8184611fc0565b905094935050505056fea26469706673582212200e08a6325e149d1d61e13004b940620e81833090e8a3a490612064b1d6acc7b464736f6c63430008180033",
  "linkReferences": {},
  "deployedLinkReferences": {}
}